{
  "_format": "hh-sol-artifact-1",
  "contractName": "RatingAgencyV2Distributor",
  "sourceName": "contracts/truefi/distributors/RatingAgencyV2Distributor.sol",
  "abi": [
    {
      "anonymous": false,
      "inputs": [
        {
          "indexed": false,
          "internalType": "address",
          "name": "beneficiary",
          "type": "address"
        },
        {
          "indexed": false,
          "internalType": "bool",
          "name": "status",
          "type": "bool"
        }
      ],
      "name": "BeneficiaryStatusChanged",
      "type": "event"
    },
    {
      "anonymous": false,
      "inputs": [
        {
          "indexed": false,
          "internalType": "uint256",
          "name": "amount",
          "type": "uint256"
        }
      ],
      "name": "Distributed",
      "type": "event"
    },
    {
      "anonymous": false,
      "inputs": [
        {
          "indexed": true,
          "internalType": "address",
          "name": "previousOwner",
          "type": "address"
        },
        {
          "indexed": true,
          "internalType": "address",
          "name": "newOwner",
          "type": "address"
        }
      ],
      "name": "OwnershipTransferred",
      "type": "event"
    },
    {
      "inputs": [],
      "name": "amount",
      "outputs": [
        {
          "internalType": "uint256",
          "name": "",
          "type": "uint256"
        }
      ],
      "stateMutability": "view",
      "type": "function"
    },
    {
      "inputs": [
        {
          "internalType": "address",
          "name": "",
          "type": "address"
        }
      ],
      "name": "beneficiaries",
      "outputs": [
        {
          "internalType": "bool",
          "name": "",
          "type": "bool"
        }
      ],
      "stateMutability": "view",
      "type": "function"
    },
    {
      "inputs": [],
      "name": "beneficiary",
      "outputs": [
        {
          "internalType": "address",
          "name": "",
          "type": "address"
        }
      ],
      "stateMutability": "view",
      "type": "function"
    },
    {
      "inputs": [
        {
          "internalType": "uint256",
          "name": "_amount",
          "type": "uint256"
        }
      ],
      "name": "distribute",
      "outputs": [],
      "stateMutability": "nonpayable",
      "type": "function"
    },
    {
      "inputs": [],
      "name": "empty",
      "outputs": [],
      "stateMutability": "nonpayable",
      "type": "function"
    },
    {
      "inputs": [
        {
          "internalType": "address",
          "name": "_beneficiary",
          "type": "address"
        },
        {
          "internalType": "contract IERC20",
          "name": "_trustToken",
          "type": "address"
        }
      ],
      "name": "initialize",
      "outputs": [],
      "stateMutability": "nonpayable",
      "type": "function"
    },
    {
      "inputs": [],
      "name": "isInitialized",
      "outputs": [
        {
          "internalType": "bool",
          "name": "",
          "type": "bool"
        }
      ],
      "stateMutability": "view",
      "type": "function"
    },
    {
      "inputs": [],
      "name": "owner",
      "outputs": [
        {
          "internalType": "address",
          "name": "",
          "type": "address"
        }
      ],
      "stateMutability": "view",
      "type": "function"
    },
    {
      "inputs": [],
      "name": "remaining",
      "outputs": [
        {
          "internalType": "uint256",
          "name": "",
          "type": "uint256"
        }
      ],
      "stateMutability": "view",
      "type": "function"
    },
    {
      "inputs": [],
      "name": "renounceOwnership",
      "outputs": [],
      "stateMutability": "nonpayable",
      "type": "function"
    },
    {
      "inputs": [],
      "name": "reset",
      "outputs": [],
      "stateMutability": "nonpayable",
      "type": "function"
    },
    {
      "inputs": [
        {
          "internalType": "address",
          "name": "_beneficiary",
          "type": "address"
        },
        {
          "internalType": "bool",
          "name": "_status",
          "type": "bool"
        }
      ],
      "name": "setBeneficiaryStatus",
      "outputs": [],
      "stateMutability": "nonpayable",
      "type": "function"
    },
    {
      "inputs": [
        {
          "internalType": "address",
          "name": "newOwner",
          "type": "address"
        }
      ],
      "name": "transferOwnership",
      "outputs": [],
      "stateMutability": "nonpayable",
      "type": "function"
    },
    {
      "inputs": [],
      "name": "trustToken",
      "outputs": [
        {
          "internalType": "contract IERC20",
          "name": "",
          "type": "address"
        }
      ],
      "stateMutability": "view",
      "type": "function"
    }
  ],
  "bytecode": "0x608060405234801561001057600080fd5b5061125a806100206000396000f3fe608060405234801561001057600080fd5b50600436106100ea5760003560e01c80638da5cb5b1161008c578063d13deb2f11610066578063d13deb2f14610236578063d826f88f1461023e578063f2a75fe414610246578063f2fde38b1461024e576100ea565b80638da5cb5b1461020957806391c05b0b14610211578063aa8c217c1461022e576100ea565b8063485cc955116100c8578063485cc9551461016f57806355234ec0146101ac57806356d1c2f0146101c6578063715018a614610201576100ea565b806301567739146100ef57806338af3eed14610136578063392e53cd14610167575b600080fd5b6101226004803603602081101561010557600080fd5b503573ffffffffffffffffffffffffffffffffffffffff16610281565b604080519115158252519081900360200190f35b61013e610296565b6040805173ffffffffffffffffffffffffffffffffffffffff9092168252519081900360200190f35b6101226102b2565b6101aa6004803603604081101561018557600080fd5b5073ffffffffffffffffffffffffffffffffffffffff813581169160200135166102bb565b005b6101b4610444565b60408051918252519081900360200190f35b6101aa600480360360408110156101dc57600080fd5b5073ffffffffffffffffffffffffffffffffffffffff8135169060200135151561044a565b6101aa61056a565b61013e61066a565b6101aa6004803603602081101561022757600080fd5b5035610686565b6101b4610786565b61013e61078c565b6101aa6107a8565b6101aa610851565b6101aa6004803603602081101561026457600080fd5b503573ffffffffffffffffffffffffffffffffffffffff166109b2565b60386020526000908152604090205460ff1681565b60355473ffffffffffffffffffffffffffffffffffffffff1681565b60005460ff1690565b600054610100900460ff16806102d457506102d4610b3d565b806102e2575060005460ff16155b610337576040517f08c379a000000000000000000000000000000000000000000000000000000000815260040180806020018281038252602e8152602001806111cd602e913960400191505060405180910390fd5b600054610100900460ff1615801561039d57600080547fffffffffffffffffffffffffffffffffffffffffffffffffffffffffffffff007fffffffffffffffffffffffffffffffffffffffffffffffffffffffffffff00ff909116610100171660011790555b6103a5610b43565b6034805473ffffffffffffffffffffffffffffffffffffffff8085167fffffffffffffffffffffffff00000000000000000000000000000000000000009283161790925560358054928616929091169190911790556601c6bf52634000603755666a94d74f430000603655801561043f57600080547fffffffffffffffffffffffffffffffffffffffffffffffffffffffffffff00ff1690555b505050565b60375481565b610452610cd4565b60335473ffffffffffffffffffffffffffffffffffffffff9081169116146104db57604080517f08c379a000000000000000000000000000000000000000000000000000000000815260206004820181905260248201527f4f776e61626c653a2063616c6c6572206973206e6f7420746865206f776e6572604482015290519081900360640190fd5b73ffffffffffffffffffffffffffffffffffffffff821660008181526038602090815260409182902080547fffffffffffffffffffffffffffffffffffffffffffffffffffffffffffffff001685151590811790915582519384529083015280517f3edf05e6a686cb241645e927f84e923fc50b026a62238f6b5ae31af19a391e859281900390910190a15050565b610572610cd4565b60335473ffffffffffffffffffffffffffffffffffffffff9081169116146105fb57604080517f08c379a000000000000000000000000000000000000000000000000000000000815260206004820181905260248201527f4f776e61626c653a2063616c6c6572206973206e6f7420746865206f776e6572604482015290519081900360640190fd5b60335460405160009173ffffffffffffffffffffffffffffffffffffffff16907f8be0079c531659141344cd1fd0a4f28419497f9722a3daafe3b4186f6b6457e0908390a3603380547fffffffffffffffffffffffff0000000000000000000000000000000000000000169055565b60335473ffffffffffffffffffffffffffffffffffffffff1690565b60355473ffffffffffffffffffffffffffffffffffffffff163314806106bb57503360009081526038602052604090205460ff165b610710576040517f08c379a00000000000000000000000000000000000000000000000000000000081526004018080602001828103825260398152602001806111946039913960400191505060405180910390fd5b603754610723908263ffffffff610cd816565b6037556034546107509073ffffffffffffffffffffffffffffffffffffffff16338363ffffffff610d4f16565b6040805182815290517fddc9c30275a04c48091f24199f9c405765de34d979d6847f5b9798a57232d2e59181900360200190a150565b60365481565b60345473ffffffffffffffffffffffffffffffffffffffff1681565b6107b0610cd4565b60335473ffffffffffffffffffffffffffffffffffffffff90811691161461083957604080517f08c379a000000000000000000000000000000000000000000000000000000000815260206004820181905260248201527f4f776e61626c653a2063616c6c6572206973206e6f7420746865206f776e6572604482015290519081900360640190fd5b6611c37937e080006036556601c6bf52634000603755565b610859610cd4565b60335473ffffffffffffffffffffffffffffffffffffffff9081169116146108e257604080517f08c379a000000000000000000000000000000000000000000000000000000000815260206004820181905260248201527f4f776e61626c653a2063616c6c6572206973206e6f7420746865206f776e6572604482015290519081900360640190fd5b6000603755603454604080517f70a0823100000000000000000000000000000000000000000000000000000000815230600482015290516109b092339273ffffffffffffffffffffffffffffffffffffffff909116916370a0823191602480820192602092909190829003018186803b15801561095e57600080fd5b505afa158015610972573d6000803e3d6000fd5b505050506040513d602081101561098857600080fd5b505160345473ffffffffffffffffffffffffffffffffffffffff16919063ffffffff610d4f16565b565b6109ba610cd4565b60335473ffffffffffffffffffffffffffffffffffffffff908116911614610a4357604080517f08c379a000000000000000000000000000000000000000000000000000000000815260206004820181905260248201527f4f776e61626c653a2063616c6c6572206973206e6f7420746865206f776e6572604482015290519081900360640190fd5b73ffffffffffffffffffffffffffffffffffffffff8116610aaf576040517f08c379a00000000000000000000000000000000000000000000000000000000081526004018080602001828103825260268152602001806111486026913960400191505060405180910390fd5b60335460405173ffffffffffffffffffffffffffffffffffffffff8084169216907f8be0079c531659141344cd1fd0a4f28419497f9722a3daafe3b4186f6b6457e090600090a3603380547fffffffffffffffffffffffff00000000000000000000000000000000000000001673ffffffffffffffffffffffffffffffffffffffff92909216919091179055565b303b1590565b600054610100900460ff1680610b5c5750610b5c610b3d565b80610b6a575060005460ff16155b610bbf576040517f08c379a000000000000000000000000000000000000000000000000000000000815260040180806020018281038252602e8152602001806111cd602e913960400191505060405180910390fd5b600054610100900460ff16158015610c2557600080547fffffffffffffffffffffffffffffffffffffffffffffffffffffffffffffff007fffffffffffffffffffffffffffffffffffffffffffffffffffffffffffff00ff909116610100171660011790555b6000610c2f610cd4565b603380547fffffffffffffffffffffffff00000000000000000000000000000000000000001673ffffffffffffffffffffffffffffffffffffffff8316908117909155604051919250906000907f8be0079c531659141344cd1fd0a4f28419497f9722a3daafe3b4186f6b6457e0908290a3508015610cd157600080547fffffffffffffffffffffffffffffffffffffffffffffffffffffffffffff00ff1690555b50565b3390565b600082821115610d4957604080517f08c379a000000000000000000000000000000000000000000000000000000000815260206004820152601e60248201527f536166654d6174683a207375627472616374696f6e206f766572666c6f770000604482015290519081900360640190fd5b50900390565b6040805173ffffffffffffffffffffffffffffffffffffffff8416602482015260448082018490528251808303909101815260649091019091526020810180517bffffffffffffffffffffffffffffffffffffffffffffffffffffffff167fa9059cbb0000000000000000000000000000000000000000000000000000000017905261043f9084906060610e39826040518060400160405280602081526020017f5361666545524332303a206c6f772d6c6576656c2063616c6c206661696c65648152508573ffffffffffffffffffffffffffffffffffffffff16610eaf9092919063ffffffff16565b80519091501561043f57808060200190516020811015610e5857600080fd5b505161043f576040517f08c379a000000000000000000000000000000000000000000000000000000000815260040180806020018281038252602a8152602001806111fb602a913960400191505060405180910390fd5b6060610ebe8484600085610ec8565b90505b9392505050565b606082471015610f23576040517f08c379a000000000000000000000000000000000000000000000000000000000815260040180806020018281038252602681526020018061116e6026913960400191505060405180910390fd5b610f2c85611083565b610f9757604080517f08c379a000000000000000000000000000000000000000000000000000000000815260206004820152601d60248201527f416464726573733a2063616c6c20746f206e6f6e2d636f6e7472616374000000604482015290519081900360640190fd5b600060608673ffffffffffffffffffffffffffffffffffffffff1685876040518082805190602001908083835b6020831061100157805182527fffffffffffffffffffffffffffffffffffffffffffffffffffffffffffffffe09092019160209182019101610fc4565b6001836020036101000a03801982511681845116808217855250505050505090500191505060006040518083038185875af1925050503d8060008114611063576040519150601f19603f3d011682016040523d82523d6000602084013e611068565b606091505b5091509150611078828286611089565b979650505050505050565b3b151590565b60608315611098575081610ec1565b8251156110a85782518084602001fd5b816040517f08c379a00000000000000000000000000000000000000000000000000000000081526004018080602001828103825283818151815260200191508051906020019080838360005b8381101561110c5781810151838201526020016110f4565b50505050905090810190601f1680156111395780820380516001836020036101000a031916815260200191505b509250505060405180910390fdfe4f776e61626c653a206e6577206f776e657220697320746865207a65726f2061646472657373416464726573733a20696e73756666696369656e742062616c616e636520666f722063616c6c4172626974726172794469737472696275746f723a204f6e6c792062656e65666963696172792063616e207265636569766520746f6b656e73436f6e747261637420696e7374616e63652068617320616c7265616479206265656e20696e697469616c697a65645361666545524332303a204552433230206f7065726174696f6e20646964206e6f742073756363656564a2646970667358221220285bdc63ce66a501ead389f0bc75f7d66590b797d3fb4d2f4192c72494eda0ac64736f6c634300060a0033",
  "linkReferences": {},
  "deployedLinkReferences": {}
}