{
  "_format": "hh-sol-artifact-1",
  "contractName": "TimeLockRegistry",
  "sourceName": "contracts/trusttoken/TimeLockRegistry.sol",
  "abi": [
    {
      "anonymous": false,
      "inputs": [
        {
          "indexed": false,
          "internalType": "address",
          "name": "receiver",
          "type": "address"
        },
        {
          "indexed": false,
          "internalType": "uint256",
          "name": "distribution",
          "type": "uint256"
        }
      ],
      "name": "Cancel",
      "type": "event"
    },
    {
      "anonymous": false,
      "inputs": [
        {
          "indexed": false,
          "internalType": "address",
          "name": "account",
          "type": "address"
        },
        {
          "indexed": false,
          "internalType": "uint256",
          "name": "distribution",
          "type": "uint256"
        }
      ],
      "name": "Claim",
      "type": "event"
    },
    {
      "anonymous": false,
      "inputs": [
        {
          "indexed": true,
          "internalType": "address",
          "name": "previousOwner",
          "type": "address"
        },
        {
          "indexed": true,
          "internalType": "address",
          "name": "newOwner",
          "type": "address"
        }
      ],
      "name": "OwnershipTransferred",
      "type": "event"
    },
    {
      "anonymous": false,
      "inputs": [
        {
          "indexed": false,
          "internalType": "address",
          "name": "receiver",
          "type": "address"
        },
        {
          "indexed": false,
          "internalType": "uint256",
          "name": "distribution",
          "type": "uint256"
        }
      ],
      "name": "Register",
      "type": "event"
    },
    {
      "inputs": [
        {
          "internalType": "address",
          "name": "",
          "type": "address"
        },
        {
          "internalType": "address",
          "name": "",
          "type": "address"
        }
      ],
      "name": "allowance",
      "outputs": [
        {
          "internalType": "uint256",
          "name": "",
          "type": "uint256"
        }
      ],
      "stateMutability": "view",
      "type": "function"
    },
    {
      "inputs": [
        {
          "internalType": "address",
          "name": "",
          "type": "address"
        }
      ],
      "name": "balanceOf",
      "outputs": [
        {
          "internalType": "uint256",
          "name": "",
          "type": "uint256"
        }
      ],
      "stateMutability": "view",
      "type": "function"
    },
    {
      "inputs": [
        {
          "internalType": "address",
          "name": "receiver",
          "type": "address"
        }
      ],
      "name": "cancel",
      "outputs": [],
      "stateMutability": "nonpayable",
      "type": "function"
    },
    {
      "inputs": [
        {
          "internalType": "address",
          "name": "",
          "type": "address"
        },
        {
          "internalType": "uint32",
          "name": "",
          "type": "uint32"
        }
      ],
      "name": "checkpoints",
      "outputs": [
        {
          "internalType": "uint32",
          "name": "fromBlock",
          "type": "uint32"
        },
        {
          "internalType": "uint96",
          "name": "votes",
          "type": "uint96"
        }
      ],
      "stateMutability": "view",
      "type": "function"
    },
    {
      "inputs": [],
      "name": "claim",
      "outputs": [],
      "stateMutability": "nonpayable",
      "type": "function"
    },
    {
      "inputs": [],
      "name": "claimOwnership",
      "outputs": [],
      "stateMutability": "nonpayable",
      "type": "function"
    },
    {
      "inputs": [
        {
          "internalType": "address",
          "name": "",
          "type": "address"
        }
      ],
      "name": "delegates",
      "outputs": [
        {
          "internalType": "address",
          "name": "",
          "type": "address"
        }
      ],
      "stateMutability": "view",
      "type": "function"
    },
    {
      "inputs": [
        {
          "internalType": "contract TimeLockedToken",
          "name": "_token",
          "type": "address"
        }
      ],
      "name": "initialize",
      "outputs": [],
      "stateMutability": "nonpayable",
      "type": "function"
    },
    {
      "inputs": [
        {
          "internalType": "address",
          "name": "",
          "type": "address"
        }
      ],
      "name": "nonces",
      "outputs": [
        {
          "internalType": "uint256",
          "name": "",
          "type": "uint256"
        }
      ],
      "stateMutability": "view",
      "type": "function"
    },
    {
      "inputs": [
        {
          "internalType": "address",
          "name": "",
          "type": "address"
        }
      ],
      "name": "numCheckpoints",
      "outputs": [
        {
          "internalType": "uint32",
          "name": "",
          "type": "uint32"
        }
      ],
      "stateMutability": "view",
      "type": "function"
    },
    {
      "inputs": [],
      "name": "owner",
      "outputs": [
        {
          "internalType": "address",
          "name": "",
          "type": "address"
        }
      ],
      "stateMutability": "view",
      "type": "function"
    },
    {
      "inputs": [],
      "name": "pendingOwner",
      "outputs": [
        {
          "internalType": "address",
          "name": "",
          "type": "address"
        }
      ],
      "stateMutability": "view",
      "type": "function"
    },
    {
      "inputs": [
        {
          "internalType": "address",
          "name": "receiver",
          "type": "address"
        },
        {
          "internalType": "uint256",
          "name": "distribution",
          "type": "uint256"
        }
      ],
      "name": "register",
      "outputs": [],
      "stateMutability": "nonpayable",
      "type": "function"
    },
    {
      "inputs": [
        {
          "internalType": "address",
          "name": "",
          "type": "address"
        }
      ],
      "name": "registeredDistributions",
      "outputs": [
        {
          "internalType": "uint256",
          "name": "",
          "type": "uint256"
        }
      ],
      "stateMutability": "view",
      "type": "function"
    },
    {
      "inputs": [],
      "name": "returnsLocked",
      "outputs": [
        {
          "internalType": "bool",
          "name": "",
          "type": "bool"
        }
      ],
      "stateMutability": "view",
      "type": "function"
    },
    {
      "inputs": [],
      "name": "timeLockRegistry",
      "outputs": [
        {
          "internalType": "address",
          "name": "",
          "type": "address"
        }
      ],
      "stateMutability": "view",
      "type": "function"
    },
    {
      "inputs": [],
      "name": "token",
      "outputs": [
        {
          "internalType": "contract TimeLockedToken",
          "name": "",
          "type": "address"
        }
      ],
      "stateMutability": "view",
      "type": "function"
    },
    {
      "inputs": [],
      "name": "totalSupply",
      "outputs": [
        {
          "internalType": "uint256",
          "name": "",
          "type": "uint256"
        }
      ],
      "stateMutability": "view",
      "type": "function"
    },
    {
      "inputs": [
        {
          "internalType": "address",
          "name": "newOwner",
          "type": "address"
        }
      ],
      "name": "transferOwnership",
      "outputs": [],
      "stateMutability": "nonpayable",
      "type": "function"
    }
  ],
  "bytecode": "0x608060405234801561001057600080fd5b50600580546001600160a01b031916339081179091556040516000907f8be0079c531659141344cd1fd0a4f28419497f9722a3daafe3b4186f6b6457e0908290a3611018806100606000396000f3fe608060405234801561001057600080fd5b50600436106101515760003560e01c806370a08231116100cd578063dd62ed3e11610081578063f1127ed811610066578063f1127ed8146103d1578063f2fde38b1461043d578063fc0c546a1461047057610151565b8063dd62ed3e1461038e578063e30c3978146103c957610151565b80638da5cb5b116100b25780638da5cb5b14610320578063c2b3f72f14610328578063c4d66de81461035b57610151565b806370a08231146102ba5780637ecebe00146102ed57610151565b80634e71d92d11610124578063587cde1e11610109578063587cde1e146102025780636d705ebb146102355780636fcfff451461026e57610151565b80634e71d92d146101f25780634e71e0c8146101fa57610151565b806318160ddd14610156578063238189a814610170578063335f5753146101a15780634c33fe94146101bd575b600080fd5b61015e610478565b60408051918252519081900360200190f35b61017861047e565b6040805173ffffffffffffffffffffffffffffffffffffffff9092168252519081900360200190f35b6101a961049a565b604080519115158252519081900360200190f35b6101f0600480360360208110156101d357600080fd5b503573ffffffffffffffffffffffffffffffffffffffff166104bb565b005b6101f061074e565b6101f06108ab565b6101786004803603602081101561021857600080fd5b503573ffffffffffffffffffffffffffffffffffffffff16610969565b6101f06004803603604081101561024b57600080fd5b5073ffffffffffffffffffffffffffffffffffffffff8135169060200135610991565b6102a16004803603602081101561028457600080fd5b503573ffffffffffffffffffffffffffffffffffffffff16610cfb565b6040805163ffffffff9092168252519081900360200190f35b61015e600480360360208110156102d057600080fd5b503573ffffffffffffffffffffffffffffffffffffffff16610d13565b61015e6004803603602081101561030357600080fd5b503573ffffffffffffffffffffffffffffffffffffffff16610d25565b610178610d37565b61015e6004803603602081101561033e57600080fd5b503573ffffffffffffffffffffffffffffffffffffffff16610d53565b6101f06004803603602081101561037157600080fd5b503573ffffffffffffffffffffffffffffffffffffffff16610d65565b61015e600480360360408110156103a457600080fd5b5073ffffffffffffffffffffffffffffffffffffffff81358116916020013516610e52565b610178610e6f565b610410600480360360408110156103e757600080fd5b50803573ffffffffffffffffffffffffffffffffffffffff16906020013563ffffffff16610e8b565b6040805163ffffffff90931683526bffffffffffffffffffffffff90911660208301528051918290030190f35b6101f06004803603602081101561045357600080fd5b503573ffffffffffffffffffffffffffffffffffffffff16610ec6565b610178610f93565b60015481565b60085473ffffffffffffffffffffffffffffffffffffffff1681565b60085474010000000000000000000000000000000000000000900460ff1681565b60055473ffffffffffffffffffffffffffffffffffffffff16331461054157604080517f08c379a000000000000000000000000000000000000000000000000000000000815260206004820152600a60248201527f6f6e6c79206f776e657200000000000000000000000000000000000000000000604482015290519081900360640190fd5b73ffffffffffffffffffffffffffffffffffffffff81166000908152600e60205260409020546105d257604080517f08c379a000000000000000000000000000000000000000000000000000000000815260206004820152600e60248201527f4e6f742072656769737465726564000000000000000000000000000000000000604482015290519081900360640190fd5b73ffffffffffffffffffffffffffffffffffffffff8082166000908152600e60209081526040808320805490849055600d5482517fa9059cbb0000000000000000000000000000000000000000000000000000000081523360048201526024810183905292519195169363a9059cbb93604480850194919392918390030190829087803b15801561066257600080fd5b505af1158015610676573d6000803e3d6000fd5b505050506040513d602081101561068c57600080fd5b50516106f957604080517f08c379a000000000000000000000000000000000000000000000000000000000815260206004820152600f60248201527f5472616e73666572206661696c65640000000000000000000000000000000000604482015290519081900360640190fd5b6040805173ffffffffffffffffffffffffffffffffffffffff841681526020810183905281517f27f83af92b39768b17fe0c8d6922452702717efb8626d97e7a754e0b27d4f6d2929181900390910190a15050565b336000908152600e60205260409020546107c957604080517f08c379a000000000000000000000000000000000000000000000000000000000815260206004820152600e60248201527f4e6f742072656769737465726564000000000000000000000000000000000000604482015290519081900360640190fd5b336000818152600e6020526040808220805490839055600d5482517f97671bea0000000000000000000000000000000000000000000000000000000081526004810195909552602485018290529151909373ffffffffffffffffffffffffffffffffffffffff909216926397671bea926044808201939182900301818387803b15801561085557600080fd5b505af1158015610869573d6000803e3d6000fd5b5050604080513381526020810185905281517f47cee97cb7acd717b3c0aa1435d004cd5b3c8c57d70dbceb4e4458bbd60e39d49450908190039091019150a150565b60065473ffffffffffffffffffffffffffffffffffffffff1633146108cf57600080fd5b60065460055460405173ffffffffffffffffffffffffffffffffffffffff92831692839216907f8be0079c531659141344cd1fd0a4f28419497f9722a3daafe3b4186f6b6457e090600090a36005805473ffffffffffffffffffffffffffffffffffffffff9092167fffffffffffffffffffffffff0000000000000000000000000000000000000000928316179055600680549091169055565b60096020526000908152604090205473ffffffffffffffffffffffffffffffffffffffff1681565b60055473ffffffffffffffffffffffffffffffffffffffff163314610a1757604080517f08c379a000000000000000000000000000000000000000000000000000000000815260206004820152600a60248201527f6f6e6c79206f776e657200000000000000000000000000000000000000000000604482015290519081900360640190fd5b73ffffffffffffffffffffffffffffffffffffffff8216610a9957604080517f08c379a000000000000000000000000000000000000000000000000000000000815260206004820152600c60248201527f5a65726f20616464726573730000000000000000000000000000000000000000604482015290519081900360640190fd5b80610b0557604080517f08c379a000000000000000000000000000000000000000000000000000000000815260206004820152601060248201527f446973747269627574696f6e203d203000000000000000000000000000000000604482015290519081900360640190fd5b73ffffffffffffffffffffffffffffffffffffffff82166000908152600e602052604090205415610b81576040517f08c379a0000000000000000000000000000000000000000000000000000000008152600401808060200182810382526033815260200180610fb06033913960400191505060405180910390fd5b73ffffffffffffffffffffffffffffffffffffffff8083166000908152600e60209081526040808320859055600d5481517f23b872dd0000000000000000000000000000000000000000000000000000000081523360048201523060248201526044810187905291519416936323b872dd93606480840194938390030190829087803b158015610c1057600080fd5b505af1158015610c24573d6000803e3d6000fd5b505050506040513d6020811015610c3a57600080fd5b5051610ca757604080517f08c379a000000000000000000000000000000000000000000000000000000000815260206004820152600f60248201527f5472616e73666572206661696c65640000000000000000000000000000000000604482015290519081900360640190fd5b6040805173ffffffffffffffffffffffffffffffffffffffff841681526020810183905281517e7dc6ab80cc84c043b7b8d4fcafc802187470087f7ea7fccd2e17aecd0256a1929181900390910190a15050565b600b6020526000908152604090205463ffffffff1681565b60026020526000908152604090205481565b600c6020526000908152604090205481565b60055473ffffffffffffffffffffffffffffffffffffffff1690565b600e6020526000908152604090205481565b60005460ff1615610dd757604080517f08c379a000000000000000000000000000000000000000000000000000000000815260206004820152601360248201527f416c726561647920696e697469616c697a656400000000000000000000000000604482015290519081900360640190fd5b600d805473ffffffffffffffffffffffffffffffffffffffff9092167fffffffffffffffffffffffff00000000000000000000000000000000000000009283161790556005805490911633179055600080547fffffffffffffffffffffffffffffffffffffffffffffffffffffffffffffff00166001179055565b600360209081526000928352604080842090915290825290205481565b60065473ffffffffffffffffffffffffffffffffffffffff1690565b600a60209081526000928352604080842090915290825290205463ffffffff81169064010000000090046bffffffffffffffffffffffff1682565b60055473ffffffffffffffffffffffffffffffffffffffff163314610f4c57604080517f08c379a000000000000000000000000000000000000000000000000000000000815260206004820152600a60248201527f6f6e6c79206f776e657200000000000000000000000000000000000000000000604482015290519081900360640190fd5b600680547fffffffffffffffffffffffff00000000000000000000000000000000000000001673ffffffffffffffffffffffffffffffffffffffff92909216919091179055565b600d5473ffffffffffffffffffffffffffffffffffffffff168156fe446973747269627574696f6e20666f722074686973206164647265737320697320616c72656164792072656769737465726564a2646970667358221220fe5626e5897b801ef5198a34520b40161b66ec36d698246ba712fa5e3c9b875964736f6c634300060a0033",
  "linkReferences": {},
  "deployedLinkReferences": {}
}