{
  "_format": "hh-sol-artifact-1",
  "contractName": "TestTrustToken",
  "sourceName": "contracts/trusttoken/mocks/TestTrustToken.sol",
  "abi": [
    {
      "anonymous": false,
      "inputs": [
        {
          "indexed": true,
          "internalType": "address",
          "name": "owner",
          "type": "address"
        },
        {
          "indexed": true,
          "internalType": "address",
          "name": "spender",
          "type": "address"
        },
        {
          "indexed": false,
          "internalType": "uint256",
          "name": "value",
          "type": "uint256"
        }
      ],
      "name": "Approval",
      "type": "event"
    },
    {
      "anonymous": false,
      "inputs": [
        {
          "indexed": true,
          "internalType": "address",
          "name": "delegator",
          "type": "address"
        },
        {
          "indexed": true,
          "internalType": "address",
          "name": "fromDelegate",
          "type": "address"
        },
        {
          "indexed": true,
          "internalType": "address",
          "name": "toDelegate",
          "type": "address"
        }
      ],
      "name": "DelegateChanged",
      "type": "event"
    },
    {
      "anonymous": false,
      "inputs": [
        {
          "indexed": true,
          "internalType": "address",
          "name": "delegate",
          "type": "address"
        },
        {
          "indexed": false,
          "internalType": "uint256",
          "name": "previousBalance",
          "type": "uint256"
        },
        {
          "indexed": false,
          "internalType": "uint256",
          "name": "newBalance",
          "type": "uint256"
        }
      ],
      "name": "DelegateVotesChanged",
      "type": "event"
    },
    {
      "anonymous": false,
      "inputs": [
        {
          "indexed": true,
          "internalType": "address",
          "name": "previousOwner",
          "type": "address"
        },
        {
          "indexed": true,
          "internalType": "address",
          "name": "newOwner",
          "type": "address"
        }
      ],
      "name": "OwnershipTransferred",
      "type": "event"
    },
    {
      "anonymous": false,
      "inputs": [
        {
          "indexed": true,
          "internalType": "address",
          "name": "from",
          "type": "address"
        },
        {
          "indexed": true,
          "internalType": "address",
          "name": "to",
          "type": "address"
        },
        {
          "indexed": false,
          "internalType": "uint256",
          "name": "value",
          "type": "uint256"
        }
      ],
      "name": "Transfer",
      "type": "event"
    },
    {
      "inputs": [],
      "name": "DELEGATION_TYPEHASH",
      "outputs": [
        {
          "internalType": "bytes32",
          "name": "",
          "type": "bytes32"
        }
      ],
      "stateMutability": "view",
      "type": "function"
    },
    {
      "inputs": [],
      "name": "DOMAIN_TYPEHASH",
      "outputs": [
        {
          "internalType": "bytes32",
          "name": "",
          "type": "bytes32"
        }
      ],
      "stateMutability": "view",
      "type": "function"
    },
    {
      "inputs": [
        {
          "internalType": "address",
          "name": "",
          "type": "address"
        },
        {
          "internalType": "address",
          "name": "",
          "type": "address"
        }
      ],
      "name": "allowance",
      "outputs": [
        {
          "internalType": "uint256",
          "name": "",
          "type": "uint256"
        }
      ],
      "stateMutability": "view",
      "type": "function"
    },
    {
      "inputs": [
        {
          "internalType": "address",
          "name": "spender",
          "type": "address"
        },
        {
          "internalType": "uint256",
          "name": "amount",
          "type": "uint256"
        }
      ],
      "name": "approve",
      "outputs": [
        {
          "internalType": "bool",
          "name": "",
          "type": "bool"
        }
      ],
      "stateMutability": "nonpayable",
      "type": "function"
    },
    {
      "inputs": [
        {
          "internalType": "address",
          "name": "",
          "type": "address"
        }
      ],
      "name": "balanceOf",
      "outputs": [
        {
          "internalType": "uint256",
          "name": "",
          "type": "uint256"
        }
      ],
      "stateMutability": "view",
      "type": "function"
    },
    {
      "inputs": [
        {
          "internalType": "uint256",
          "name": "amount",
          "type": "uint256"
        }
      ],
      "name": "burn",
      "outputs": [],
      "stateMutability": "nonpayable",
      "type": "function"
    },
    {
      "inputs": [
        {
          "internalType": "address",
          "name": "",
          "type": "address"
        },
        {
          "internalType": "uint32",
          "name": "",
          "type": "uint32"
        }
      ],
      "name": "checkpoints",
      "outputs": [
        {
          "internalType": "uint32",
          "name": "fromBlock",
          "type": "uint32"
        },
        {
          "internalType": "uint96",
          "name": "votes",
          "type": "uint96"
        }
      ],
      "stateMutability": "view",
      "type": "function"
    },
    {
      "inputs": [],
      "name": "claimOwnership",
      "outputs": [],
      "stateMutability": "nonpayable",
      "type": "function"
    },
    {
      "inputs": [],
      "name": "decimals",
      "outputs": [
        {
          "internalType": "uint8",
          "name": "",
          "type": "uint8"
        }
      ],
      "stateMutability": "pure",
      "type": "function"
    },
    {
      "inputs": [
        {
          "internalType": "address",
          "name": "spender",
          "type": "address"
        },
        {
          "internalType": "uint256",
          "name": "subtractedValue",
          "type": "uint256"
        }
      ],
      "name": "decreaseAllowance",
      "outputs": [
        {
          "internalType": "bool",
          "name": "",
          "type": "bool"
        }
      ],
      "stateMutability": "nonpayable",
      "type": "function"
    },
    {
      "inputs": [
        {
          "internalType": "address",
          "name": "delegatee",
          "type": "address"
        }
      ],
      "name": "delegate",
      "outputs": [],
      "stateMutability": "nonpayable",
      "type": "function"
    },
    {
      "inputs": [
        {
          "internalType": "address",
          "name": "delegatee",
          "type": "address"
        },
        {
          "internalType": "uint256",
          "name": "nonce",
          "type": "uint256"
        },
        {
          "internalType": "uint256",
          "name": "expiry",
          "type": "uint256"
        },
        {
          "internalType": "uint8",
          "name": "v",
          "type": "uint8"
        },
        {
          "internalType": "bytes32",
          "name": "r",
          "type": "bytes32"
        },
        {
          "internalType": "bytes32",
          "name": "s",
          "type": "bytes32"
        }
      ],
      "name": "delegateBySig",
      "outputs": [],
      "stateMutability": "nonpayable",
      "type": "function"
    },
    {
      "inputs": [
        {
          "internalType": "address",
          "name": "",
          "type": "address"
        }
      ],
      "name": "delegates",
      "outputs": [
        {
          "internalType": "address",
          "name": "",
          "type": "address"
        }
      ],
      "stateMutability": "view",
      "type": "function"
    },
    {
      "inputs": [],
      "name": "epochsLeft",
      "outputs": [
        {
          "internalType": "uint256",
          "name": "",
          "type": "uint256"
        }
      ],
      "stateMutability": "view",
      "type": "function"
    },
    {
      "inputs": [],
      "name": "epochsPassed",
      "outputs": [
        {
          "internalType": "uint256",
          "name": "",
          "type": "uint256"
        }
      ],
      "stateMutability": "view",
      "type": "function"
    },
    {
      "inputs": [
        {
          "internalType": "address",
          "name": "to",
          "type": "address"
        },
        {
          "internalType": "uint256",
          "name": "amount",
          "type": "uint256"
        }
      ],
      "name": "faucet",
      "outputs": [],
      "stateMutability": "nonpayable",
      "type": "function"
    },
    {
      "inputs": [],
      "name": "finalEpoch",
      "outputs": [
        {
          "internalType": "uint256",
          "name": "",
          "type": "uint256"
        }
      ],
      "stateMutability": "pure",
      "type": "function"
    },
    {
      "inputs": [
        {
          "internalType": "address",
          "name": "account",
          "type": "address"
        }
      ],
      "name": "getCurrentVotes",
      "outputs": [
        {
          "internalType": "uint96",
          "name": "",
          "type": "uint96"
        }
      ],
      "stateMutability": "view",
      "type": "function"
    },
    {
      "inputs": [
        {
          "internalType": "address",
          "name": "account",
          "type": "address"
        },
        {
          "internalType": "uint256",
          "name": "blockNumber",
          "type": "uint256"
        }
      ],
      "name": "getPriorVotes",
      "outputs": [
        {
          "internalType": "uint96",
          "name": "",
          "type": "uint96"
        }
      ],
      "stateMutability": "view",
      "type": "function"
    },
    {
      "inputs": [],
      "name": "getStamp",
      "outputs": [
        {
          "internalType": "uint256",
          "name": "stamp",
          "type": "uint256"
        }
      ],
      "stateMutability": "view",
      "type": "function"
    },
    {
      "inputs": [
        {
          "internalType": "address",
          "name": "spender",
          "type": "address"
        },
        {
          "internalType": "uint256",
          "name": "addedValue",
          "type": "uint256"
        }
      ],
      "name": "increaseAllowance",
      "outputs": [
        {
          "internalType": "bool",
          "name": "",
          "type": "bool"
        }
      ],
      "stateMutability": "nonpayable",
      "type": "function"
    },
    {
      "inputs": [],
      "name": "initialize",
      "outputs": [],
      "stateMutability": "nonpayable",
      "type": "function"
    },
    {
      "inputs": [],
      "name": "latestEpoch",
      "outputs": [
        {
          "internalType": "uint256",
          "name": "",
          "type": "uint256"
        }
      ],
      "stateMutability": "view",
      "type": "function"
    },
    {
      "inputs": [],
      "name": "lockReturns",
      "outputs": [],
      "stateMutability": "nonpayable",
      "type": "function"
    },
    {
      "inputs": [],
      "name": "lockStart",
      "outputs": [
        {
          "internalType": "uint256",
          "name": "",
          "type": "uint256"
        }
      ],
      "stateMutability": "pure",
      "type": "function"
    },
    {
      "inputs": [
        {
          "internalType": "address",
          "name": "account",
          "type": "address"
        }
      ],
      "name": "lockedBalance",
      "outputs": [
        {
          "internalType": "uint256",
          "name": "",
          "type": "uint256"
        }
      ],
      "stateMutability": "view",
      "type": "function"
    },
    {
      "inputs": [
        {
          "internalType": "address",
          "name": "_to",
          "type": "address"
        },
        {
          "internalType": "uint256",
          "name": "_amount",
          "type": "uint256"
        }
      ],
      "name": "mint",
      "outputs": [],
      "stateMutability": "nonpayable",
      "type": "function"
    },
    {
      "inputs": [],
      "name": "name",
      "outputs": [
        {
          "internalType": "string",
          "name": "",
          "type": "string"
        }
      ],
      "stateMutability": "pure",
      "type": "function"
    },
    {
      "inputs": [],
      "name": "nextEpoch",
      "outputs": [
        {
          "internalType": "uint256",
          "name": "",
          "type": "uint256"
        }
      ],
      "stateMutability": "view",
      "type": "function"
    },
    {
      "inputs": [
        {
          "internalType": "address",
          "name": "",
          "type": "address"
        }
      ],
      "name": "nonces",
      "outputs": [
        {
          "internalType": "uint256",
          "name": "",
          "type": "uint256"
        }
      ],
      "stateMutability": "view",
      "type": "function"
    },
    {
      "inputs": [
        {
          "internalType": "address",
          "name": "",
          "type": "address"
        }
      ],
      "name": "numCheckpoints",
      "outputs": [
        {
          "internalType": "uint32",
          "name": "",
          "type": "uint32"
        }
      ],
      "stateMutability": "view",
      "type": "function"
    },
    {
      "inputs": [],
      "name": "owner",
      "outputs": [
        {
          "internalType": "address",
          "name": "",
          "type": "address"
        }
      ],
      "stateMutability": "view",
      "type": "function"
    },
    {
      "inputs": [
        {
          "internalType": "address",
          "name": "to",
          "type": "address"
        },
        {
          "internalType": "uint256",
          "name": "amount",
          "type": "uint256"
        }
      ],
      "name": "ownerFaucet",
      "outputs": [],
      "stateMutability": "nonpayable",
      "type": "function"
    },
    {
      "inputs": [],
      "name": "pendingOwner",
      "outputs": [
        {
          "internalType": "address",
          "name": "",
          "type": "address"
        }
      ],
      "stateMutability": "view",
      "type": "function"
    },
    {
      "inputs": [
        {
          "internalType": "address",
          "name": "receiver",
          "type": "address"
        },
        {
          "internalType": "uint256",
          "name": "amount",
          "type": "uint256"
        }
      ],
      "name": "registerLockup",
      "outputs": [],
      "stateMutability": "nonpayable",
      "type": "function"
    },
    {
      "inputs": [],
      "name": "returnsLocked",
      "outputs": [
        {
          "internalType": "bool",
          "name": "",
          "type": "bool"
        }
      ],
      "stateMutability": "view",
      "type": "function"
    },
    {
      "inputs": [],
      "name": "rounding",
      "outputs": [
        {
          "internalType": "uint8",
          "name": "",
          "type": "uint8"
        }
      ],
      "stateMutability": "pure",
      "type": "function"
    },
    {
      "inputs": [
        {
          "internalType": "address",
          "name": "newTimeLockRegistry",
          "type": "address"
        }
      ],
      "name": "setTimeLockRegistry",
      "outputs": [],
      "stateMutability": "nonpayable",
      "type": "function"
    },
    {
      "inputs": [],
      "name": "symbol",
      "outputs": [
        {
          "internalType": "string",
          "name": "",
          "type": "string"
        }
      ],
      "stateMutability": "pure",
      "type": "function"
    },
    {
      "inputs": [],
      "name": "timeLockRegistry",
      "outputs": [
        {
          "internalType": "address",
          "name": "",
          "type": "address"
        }
      ],
      "stateMutability": "view",
      "type": "function"
    },
    {
      "inputs": [],
      "name": "totalSupply",
      "outputs": [
        {
          "internalType": "uint256",
          "name": "",
          "type": "uint256"
        }
      ],
      "stateMutability": "view",
      "type": "function"
    },
    {
      "inputs": [
        {
          "internalType": "address",
          "name": "recipient",
          "type": "address"
        },
        {
          "internalType": "uint256",
          "name": "amount",
          "type": "uint256"
        }
      ],
      "name": "transfer",
      "outputs": [
        {
          "internalType": "bool",
          "name": "",
          "type": "bool"
        }
      ],
      "stateMutability": "nonpayable",
      "type": "function"
    },
    {
      "inputs": [
        {
          "internalType": "address",
          "name": "sender",
          "type": "address"
        },
        {
          "internalType": "address",
          "name": "recipient",
          "type": "address"
        },
        {
          "internalType": "uint256",
          "name": "amount",
          "type": "uint256"
        }
      ],
      "name": "transferFrom",
      "outputs": [
        {
          "internalType": "bool",
          "name": "",
          "type": "bool"
        }
      ],
      "stateMutability": "nonpayable",
      "type": "function"
    },
    {
      "inputs": [
        {
          "internalType": "address",
          "name": "newOwner",
          "type": "address"
        }
      ],
      "name": "transferOwnership",
      "outputs": [],
      "stateMutability": "nonpayable",
      "type": "function"
    },
    {
      "inputs": [
        {
          "internalType": "address",
          "name": "account",
          "type": "address"
        }
      ],
      "name": "unlockedBalance",
      "outputs": [
        {
          "internalType": "uint256",
          "name": "",
          "type": "uint256"
        }
      ],
      "stateMutability": "view",
      "type": "function"
    }
  ],
  "bytecode": "0x608060405234801561001057600080fd5b50600580546001600160a01b031916339081179091556040516000907f8be0079c531659141344cd1fd0a4f28419497f9722a3daafe3b4186f6b6457e0908290a361319b806100606000396000f3fe608060405234801561001057600080fd5b50600436106102ff5760003560e01c8063782d6fe11161019c5780639cb118bf116100ee578063dd62ed3e11610097578063f1127ed811610071578063f1127ed81461084f578063f2fde38b146108ae578063fc6167cc146108d4576102ff565b8063dd62ed3e14610811578063e30c39781461083f578063e7a324dc14610847576102ff565b8063aea0e78b116100c8578063aea0e78b1461079c578063b4b5ea57146107a4578063c3cda520146107ca576102ff565b80639cb118bf1461073c578063a457c2d714610744578063a9059cbb14610770576102ff565b80638da5cb5b1161015057806397671bea1161012a57806397671bea146106e25780639ae697bf1461070e5780639c7e1a9e14610734576102ff565b80638da5cb5b146106ac57806395d89b41146106b4578063962399e2146106bc576102ff565b80637ecebe00116101815780637ecebe00146106765780638129fc1c1461069c578063881ed6db146106a4576102ff565b8063782d6fe1146105fd5780637b56c2b21461064a576102ff565b80633950935111610255578063587cde1e116102095780635e0fac2e116101e35780635e0fac2e146105725780636fcfff451461059857806370a08231146105d7576102ff565b8063587cde1e146104fa5780635a6c84c6146105205780635c19a95c1461054c576102ff565b806340c10f191161023a57806340c10f19146104a757806342966c68146104d55780634e71e0c8146104f2576102ff565b806339509351146104735780633a98d88e1461049f576102ff565b8063238189a8116102b75780632f384662116102915780632f38466214610463578063313ce56714610445578063335f57531461046b576102ff565b8063238189a8146103eb57806323b872dd1461040f5780632e44040314610445576102ff565b806315cb7cfa116102e857806315cb7cfa146103c157806318160ddd146103db57806320606b70146103e3576102ff565b806306fdde0314610304578063095ea7b314610381575b600080fd5b61030c6108dc565b6040805160208082528351818301528351919283929083019185019080838360005b8381101561034657818101518382015260200161032e565b50505050905090810190601f1680156103735780820380516001836020036101000a031916815260200191505b509250505060405180910390f35b6103ad6004803603604081101561039757600080fd5b506001600160a01b038135169060200135610914565b604080519115158252519081900360200190f35b6103c9610932565b60408051918252519081900360200190f35b6103c96109b9565b6103c96109bf565b6103f36109da565b604080516001600160a01b039092168252519081900360200190f35b6103ad6004803603606081101561042557600080fd5b506001600160a01b038135811691602081013590911690604001356109e9565b61044d610a76565b6040805160ff9092168252519081900360200190f35b6103c9610a7b565b6103ad610a9b565b6103ad6004803603604081101561048957600080fd5b506001600160a01b038135169060200135610abc565b6103c9610b10565b6104d3600480360360408110156104bd57600080fd5b506001600160a01b038135169060200135610b4c565b005b6104d3600480360360208110156104eb57600080fd5b5035610c2d565b6104d3610c3a565b6103f36004803603602081101561051057600080fd5b50356001600160a01b0316610cd1565b6104d36004803603604081101561053657600080fd5b506001600160a01b038135169060200135610cec565b6104d36004803603602081101561056257600080fd5b50356001600160a01b0316610daf565b6103c96004803603602081101561058857600080fd5b50356001600160a01b0316610db9565b6105be600480360360208110156105ae57600080fd5b50356001600160a01b0316610dec565b6040805163ffffffff9092168252519081900360200190f35b6103c9600480360360208110156105ed57600080fd5b50356001600160a01b0316610e04565b6106296004803603604081101561061357600080fd5b506001600160a01b038135169060200135610e16565b604080516bffffffffffffffffffffffff9092168252519081900360200190f35b6104d36004803603604081101561066057600080fd5b506001600160a01b0381351690602001356110af565b6103c96004803603602081101561068c57600080fd5b50356001600160a01b03166111a1565b6104d36111b3565b6103c9611262565b6103f361126a565b61030c611279565b6104d3600480360360208110156106d257600080fd5b50356001600160a01b03166112b0565b6104d3600480360360408110156106f857600080fd5b506001600160a01b038135169060200135611407565b6103c96004803603602081101561072457600080fd5b50356001600160a01b0316611517565b6104d361154e565b6103c96115ee565b6103ad6004803603604081101561075a57600080fd5b506001600160a01b038135169060200135611623565b6103ad6004803603604081101561078657600080fd5b506001600160a01b038135169060200135611691565b6103c96116a5565b610629600480360360208110156107ba57600080fd5b50356001600160a01b0316611716565b6104d3600480360360c08110156107e057600080fd5b506001600160a01b038135169060208101359060408101359060ff6060820135169060808101359060a001356117ab565b6103c96004803603604081101561082757600080fd5b506001600160a01b0381358116916020013516611a78565b6103f3611a95565b6103c9611aa4565b6108816004803603604081101561086557600080fd5b5080356001600160a01b0316906020013563ffffffff16611abf565b6040805163ffffffff90931683526bffffffffffffffffffffffff90911660208301528051918290030190f35b6104d3600480360360208110156108c457600080fd5b50356001600160a01b0316611afa565b6103c9611b93565b60408051808201909152600681527f547275654669000000000000000000000000000000000000000000000000000060208201525b90565b6000610928610921611bb8565b8484611bbc565b5060015b92915050565b6000635f1b133742101561094857506000610911565b600061095e42635f1b133763ffffffff611ca816565b905062278d00811015610975576000915050610911565b600061099d6276a7006109918462278d0063ffffffff611ca816565b9063ffffffff611d0516565b905060088111156109b357600892505050610911565b91505090565b60015481565b604051806043612f5b82396043019050604051809103902081565b6008546001600160a01b031681565b60006109f6848484611d6c565b610a6c84610a02611bb8565b610a6785604051806060016040528060288152602001612fbf602891396001600160a01b038a16600090815260036020526040812090610a40611bb8565b6001600160a01b03168152602081019190915260400160002054919063ffffffff611dc416565b611bbc565b5060019392505050565b600890565b6000610a96610a88610932565b60089063ffffffff611ca816565b905090565b60085474010000000000000000000000000000000000000000900460ff1681565b6000610928610ac9611bb8565b84610a678560036000610ada611bb8565b6001600160a01b03908116825260208083019390935260409182016000908120918c16815292529020549063ffffffff611e5b16565b6000610a96610b296276a700600863ffffffff611eb516565b610b40635f1b133762278d0063ffffffff611e5b16565b9063ffffffff611e5b16565b6005546001600160a01b03163314610bab576040805162461bcd60e51b815260206004820152600a60248201527f6f6e6c79206f776e657200000000000000000000000000000000000000000000604482015290519081900360640190fd5b60015467020324bb546e800090610bc8908363ffffffff611e5b16565b11610bdc57610bd78282611f0e565b610c29565b6040805162461bcd60e51b815260206004820152601360248201527f4d617820737570706c7920657863656564656400000000000000000000000000604482015290519081900360640190fd5b5050565b610c373382611f82565b50565b6006546001600160a01b03163314610c5157600080fd5b6006546005546040516001600160a01b0392831692839216907f8be0079c531659141344cd1fd0a4f28419497f9722a3daafe3b4186f6b6457e090600090a3600580546001600160a01b039092167fffffffffffffffffffffffff0000000000000000000000000000000000000000928316179055600680549091169055565b6009602052600090815260409020546001600160a01b031681565b6005546001600160a01b03163314610d4b576040805162461bcd60e51b815260206004820152600a60248201527f6f6e6c79206f776e657200000000000000000000000000000000000000000000604482015290519081900360640190fd5b60015467020324bb546e800090610d68908363ffffffff611e5b16565b1115610da55760405162461bcd60e51b8152600401808060200182810382526023815260200180612d996023913960400191505060405180910390fd5b610c298282611f0e565b610c373382612056565b600061092c610dc783611517565b6001600160a01b0384166000908152600260205260409020549063ffffffff611ca816565b600b6020526000908152604090205463ffffffff1681565b60026020526000908152604090205481565b6000438210610e565760405162461bcd60e51b815260040180806020018281038252602d815260200180612e95602d913960400191505060405180910390fd5b6001600160a01b0383166000908152600b602052604090205463ffffffff1680610e8457600091505061092c565b6001600160a01b0384166000908152600a6020908152604080832063ffffffff7fffffffffffffffffffffffffffffffffffffffffffffffffffffffffffffffff860181168552925290912054168310610f42576001600160a01b0384166000908152600a602090815260408083207fffffffffffffffffffffffffffffffffffffffffffffffffffffffffffffffff9490940163ffffffff168352929052205464010000000090046bffffffffffffffffffffffff16905061092c565b6001600160a01b0384166000908152600a6020908152604080832083805290915290205463ffffffff16831015610f7d57600091505061092c565b60007fffffffffffffffffffffffffffffffffffffffffffffffffffffffffffffffff82015b8163ffffffff168163ffffffff16111561106457600282820363ffffffff16048103610fcd612d3b565b506001600160a01b0387166000908152600a6020908152604080832063ffffffff8581168552908352928190208151808301909252549283168082526401000000009093046bffffffffffffffffffffffff16918101919091529087141561103f5760200151945061092c9350505050565b805163ffffffff168711156110565781935061105d565b6001820392505b5050610fa3565b506001600160a01b0385166000908152600a6020908152604080832063ffffffff909416835292905220546bffffffffffffffffffffffff6401000000009091041691505092915050565b426110bd603c610b40611b93565b11156110fa5760405162461bcd60e51b815260040180806020018281038252603481526020018061310d6034913960400191505060405180910390fd5b64e8d4a5100081111561113e5760405162461bcd60e51b8152600401808060200182810382526040815260200180612ec26040913960400191505060405180910390fd5b60015467020324bb546e80009061115b908363ffffffff611e5b16565b11156111985760405162461bcd60e51b8152600401808060200182810382526023815260200180612d996023913960400191505060405180910390fd5b610da542612141565b600c6020526000908152604090205481565b60005460ff161561120b576040805162461bcd60e51b815260206004820152601360248201527f616c726561647920696e697469616c697a656400000000000000000000000000604482015290519081900360640190fd5b600580547fffffffffffffffffffffffff00000000000000000000000000000000000000001633179055600080547fffffffffffffffffffffffffffffffffffffffffffffffffffffffffffffff00166001179055565b635f1b133790565b6005546001600160a01b031690565b60408051808201909152600381527f5452550000000000000000000000000000000000000000000000000000000000602082015290565b6005546001600160a01b0316331461130f576040805162461bcd60e51b815260206004820152600a60248201527f6f6e6c79206f776e657200000000000000000000000000000000000000000000604482015290519081900360640190fd5b6001600160a01b03811661136a576040805162461bcd60e51b815260206004820152601660248201527f63616e6e6f74206265207a65726f206164647265737300000000000000000000604482015290519081900360640190fd5b6008546001600160a01b03828116911614156113cd576040805162461bcd60e51b815260206004820152601c60248201527f6d757374206265206e65772054696d654c6f636b526567697374727900000000604482015290519081900360640190fd5b600880547fffffffffffffffffffffffff0000000000000000000000000000000000000000166001600160a01b0392909216919091179055565b6008546001600160a01b03163314611466576040805162461bcd60e51b815260206004820152601560248201527f6f6e6c792054696d654c6f636b52656769737472790000000000000000000000604482015290519081900360640190fd5b336000908152600260205260409020548111156114ca576040805162461bcd60e51b815260206004820152601460248201527f696e73756666696369656e742062616c616e6365000000000000000000000000604482015290519081900360640190fd5b6001600160a01b0382166000908152600760205260409020546114f3908263ffffffff611e5b16565b6001600160a01b038316600090815260076020526040902055610c29338383611d6c565b600061092c6008610991611529610a7b565b6001600160a01b0386166000908152600760205260409020549063ffffffff611eb516565b6005546001600160a01b031633146115ad576040805162461bcd60e51b815260206004820152600a60248201527f6f6e6c79206f776e657200000000000000000000000000000000000000000000604482015290519081900360640190fd5b600880547fffffffffffffffffffffff00ffffffffffffffffffffffffffffffffffffffff1674010000000000000000000000000000000000000000179055565b6000806115f9610932565b90508061160d57635f1b1337915050610911565b6109b3610b29826276a70063ffffffff611eb516565b6000610928611630611bb8565b84610a6785604051806060016040528060258152602001613141602591396003600061165a611bb8565b6001600160a01b03908116825260208083019390935260409182016000908120918d1681529252902054919063ffffffff611dc416565b600061092861169e611bb8565b8484611d6c565b6000806116b0610932565b905060088114156116e4577fffffffffffffffffffffffffffffffffffffffffffffffffffffffffffffffff915050610911565b80611707576116ff6276a700610b4062278d00610b406115ee565b915050610911565b6109b36276a700610b406115ee565b6001600160a01b0381166000908152600b602052604081205463ffffffff16806117415760006117a4565b6001600160a01b0383166000908152600a602090815260408083207fffffffffffffffffffffffffffffffffffffffffffffffffffffffffffffffff850163ffffffff16845290915290205464010000000090046bffffffffffffffffffffffff165b9392505050565b60006040518080612f5b60439139604301905060405180910390206117ce6108dc565b805190602001206117dd612165565b3060405160200180858152602001848152602001838152602001826001600160a01b03166001600160a01b03168152602001945050505050604051602081830303815290604052805190602001209050600060405180806130a7603a91396040805191829003603a0182206020808401919091526001600160a01b038c1683830152606083018b905260808084018b90528251808503909101815260a0840183528051908201207f190100000000000000000000000000000000000000000000000000000000000060c085015260c2840187905260e2808501829052835180860390910181526101028501808552815191840191909120600091829052610122860180865281905260ff8c1661014287015261016286018b905261018286018a9052935191965092945091926001926101a280830193927fffffffffffffffffffffffffffffffffffffffffffffffffffffffffffffffe08301929081900390910190855afa158015611954573d6000803e3d6000fd5b50506040517fffffffffffffffffffffffffffffffffffffffffffffffffffffffffffffffe001519150506001600160a01b0381166119c45760405162461bcd60e51b815260040180806020018281038252602c815260200180612f02602c913960400191505060405180910390fd5b6001600160a01b0381166000908152600c602052604090208054600181019091558914611a225760405162461bcd60e51b815260040180806020018281038252602881526020018061305b6028913960400191505060405180910390fd5b87421115611a615760405162461bcd60e51b815260040180806020018281038252602c8152602001806130e1602c913960400191505060405180910390fd5b611a6b818b612056565b505050505b505050505050565b600360209081526000928352604080842090915290825290205481565b6006546001600160a01b031690565b60405180603a6130a78239603a019050604051809103902081565b600a60209081526000928352604080842090915290825290205463ffffffff81169064010000000090046bffffffffffffffffffffffff1682565b6005546001600160a01b03163314611b59576040805162461bcd60e51b815260206004820152600a60248201527f6f6e6c79206f776e657200000000000000000000000000000000000000000000604482015290519081900360640190fd5b600680547fffffffffffffffffffffffff0000000000000000000000000000000000000000166001600160a01b0392909216919091179055565b7f2f28007de92226a28af88f681cdc4b6f1674637db295a37f849bd7dee6c8254c5490565b3390565b6001600160a01b038316611c015760405162461bcd60e51b81526004018080602001828103825260248152602001806130836024913960400191505060405180910390fd5b6001600160a01b038216611c465760405162461bcd60e51b8152600401808060200182810382526022815260200180612dde6022913960400191505060405180910390fd5b6001600160a01b03808416600081815260036020908152604080832094871680845294825291829020859055815185815291517f8c5be1e5ebec7d5bd14f71427d1e84f3dd0314c0f7b2291e5b200ac8c7c3b9259281900390910190a3505050565b600082821115611cff576040805162461bcd60e51b815260206004820152601e60248201527f536166654d6174683a207375627472616374696f6e206f766572666c6f770000604482015290519081900360640190fd5b50900390565b6000808211611d5b576040805162461bcd60e51b815260206004820152601a60248201527f536166654d6174683a206469766973696f6e206279207a65726f000000000000604482015290519081900360640190fd5b818381611d6457fe5b049392505050565b6001600160a01b038216301415611db45760405162461bcd60e51b8152600401808060200182810382526035815260200180612e006035913960400191505060405180910390fd5b611dbf838383612169565b505050565b60008184841115611e535760405162461bcd60e51b81526004018080602001828103825283818151815260200191508051906020019080838360005b83811015611e18578181015183820152602001611e00565b50505050905090810190601f168015611e455780820380516001836020036101000a031916815260200191505b509250505060405180910390fd5b505050900390565b6000828201838110156117a4576040805162461bcd60e51b815260206004820152601b60248201527f536166654d6174683a206164646974696f6e206f766572666c6f770000000000604482015290519081900360640190fd5b600082611ec45750600061092c565b82820282848281611ed157fe5b04146117a45760405162461bcd60e51b8152600401808060200182810382526021815260200180612f9e6021913960400191505060405180910390fd5b611f188282612274565b6001600160a01b038083166000908152600960209081526040808320548151808301909252601c82527f53746b547275546f6b656e3a2075696e743936206f766572666c6f770000000092820192909252610c29939190911690611f7d908590612372565b6123d8565b6001600160a01b038216600090815260026020526040902054811115611fef576040805162461bcd60e51b815260206004820152601460248201527f696e73756666696369656e742062616c616e6365000000000000000000000000604482015290519081900360640190fd5b80611ff983610db9565b101561204c576040805162461bcd60e51b815260206004820152601f60248201527f617474656d7074696e6720746f206275726e206c6f636b65642066756e647300604482015290519081900360640190fd5b610c2982826125b7565b6001600160a01b03808316600090815260096020526040812054909116906120bb6120808561263e565b6040518060400160405280601c81526020017f53746b547275546f6b656e3a2075696e743936206f766572666c6f7700000000815250612372565b6001600160a01b0385811660008181526009602052604080822080547fffffffffffffffffffffffff000000000000000000000000000000000000000016898616908117909155905194955093928616927f3134e8a2e6d97e929a7e54011ea5485d7d196dd5f0ba4d4ef95803e8e3fc257f9190a461213b8284836123d8565b50505050565b7f2f28007de92226a28af88f681cdc4b6f1674637db295a37f849bd7dee6c8254c55565b4690565b6001600160a01b0383166000908152600260205260409020548111156121d6576040805162461bcd60e51b815260206004820152601460248201527f696e73756666696369656e742062616c616e6365000000000000000000000000604482015290519081900360640190fd5b60085474010000000000000000000000000000000000000000900460ff1615801561220e57506005546001600160a01b038381169116145b156122225761221d8382612649565b611dbf565b8061222c84610db9565b10156122695760405162461bcd60e51b8152600401808060200182810382526023815260200180612d766023913960400191505060405180910390fd5b611dbf8383836126d3565b6001600160a01b0382166122cf576040805162461bcd60e51b815260206004820152601f60248201527f45524332303a206d696e7420746f20746865207a65726f206164647265737300604482015290519081900360640190fd5b6122db60008383611dbf565b6001546122ee908263ffffffff611e5b16565b6001556001600160a01b03821660009081526002602052604090205461231a908263ffffffff611e5b16565b6001600160a01b03831660008181526002602090815260408083209490945583518581529351929391927fddf252ad1be2c89b69c2b068fc378daa952ba7f163c4a11628f55a4df523b3ef9281900390910190a35050565b6000816c0100000000000000000000000084106123d05760405162461bcd60e51b8152602060048201818152835160248401528351909283926044909101919085019080838360008315611e18578181015183820152602001611e00565b509192915050565b816001600160a01b0316836001600160a01b03161415801561240857506000816bffffffffffffffffffffffff16115b15611dbf576001600160a01b038316156124e4576001600160a01b0383166000908152600b602052604081205463ffffffff1690816124485760006124ab565b6001600160a01b0385166000908152600a602090815260408083207fffffffffffffffffffffffffffffffffffffffffffffffffffffffffffffffff860163ffffffff16845290915290205464010000000090046bffffffffffffffffffffffff165b905060006124d282856040518060600160405280602e8152602001612fe7602e9139612751565b90506124e0868484846127c0565b5050505b6001600160a01b03821615611dbf576001600160a01b0382166000908152600b602052604081205463ffffffff16908161251f576000612582565b6001600160a01b0384166000908152600a602090815260408083207fffffffffffffffffffffffffffffffffffffffffffffffffffffffffffffffff860163ffffffff16845290915290205464010000000090046bffffffffffffffffffffffff165b905060006125a982856040518060600160405280602d8152602001612f2e602d9139612a05565b9050611a70858484846127c0565b6125c18282612a74565b610c2960096000846001600160a01b03166001600160a01b0316815260200190815260200160002060009054906101000a90046001600160a01b03166000611f7d846040518060400160405280601c81526020017f53746b547275546f6b656e3a2075696e743936206f766572666c6f7700000000815250612372565b600061092c82610db9565b600061265483610db9565b9050818110156126bf576126a5612669610a7b565b6001600160a01b03851660009081526002602052604090205461099190600890612699908763ffffffff611ca816565b9063ffffffff611eb516565b6001600160a01b0384166000908152600760205260409020555b600554611dbf9084906001600160a01b0316845b6126de838383612b7c565b6001600160a01b03808416600090815260096020908152604080832054868516845292819020548151808301909252601c82527f53746b547275546f6b656e3a2075696e743936206f766572666c6f770000000092820192909252611dbf93928316929190911690611f7d908590612372565b6000836bffffffffffffffffffffffff16836bffffffffffffffffffffffff1611158290611e535760405162461bcd60e51b8152602060048201818152835160248401528351909283926044909101919085019080838360008315611e18578181015183820152602001611e00565b60006127e4436040518060600160405280603a8152602001612e5b603a9139612ce5565b905060008463ffffffff1611801561284b57506001600160a01b0385166000908152600a6020908152604080832063ffffffff7fffffffffffffffffffffffffffffffffffffffffffffffffffffffffffffffff8901811685529252909120548282169116145b156128dd576001600160a01b0385166000908152600a602090815260408083207fffffffffffffffffffffffffffffffffffffffffffffffffffffffffffffffff880163ffffffff168452909152902080547fffffffffffffffffffffffffffffffff000000000000000000000000ffffffff166401000000006bffffffffffffffffffffffff8516021790556129ac565b60408051808201825263ffffffff80841682526bffffffffffffffffffffffff80861660208085019182526001600160a01b038b166000818152600a83528781208c871682528352878120965187549451909516640100000000027fffffffffffffffffffffffffffffffff000000000000000000000000ffffffff9587167fffffffffffffffffffffffffffffffffffffffffffffffffffffffff00000000958616179590951694909417909555938252600b90935292909220805460018801909316929091169190911790555b604080516bffffffffffffffffffffffff80861682528416602082015281516001600160a01b038816927fdec2bacdd2f05b59de34da9b523dff8be42e5e38e818c82fdb0bae774387a724928290030190a25050505050565b6000838301826bffffffffffffffffffffffff8087169083161015612a6b5760405162461bcd60e51b8152602060048201818152835160248401528351909283926044909101919085019080838360008315611e18578181015183820152602001611e00565b50949350505050565b6001600160a01b038216612ab95760405162461bcd60e51b81526004018080602001828103825260218152602001806130156021913960400191505060405180910390fd5b612ac582600083611dbf565b612b0881604051806060016040528060228152602001612dbc602291396001600160a01b038516600090815260026020526040902054919063ffffffff611dc416565b6001600160a01b038316600090815260026020526040902055600154612b34908263ffffffff611ca816565b6001556040805182815290516000916001600160a01b038516917fddf252ad1be2c89b69c2b068fc378daa952ba7f163c4a11628f55a4df523b3ef9181900360200190a35050565b6001600160a01b038316612bc15760405162461bcd60e51b81526004018080602001828103825260258152602001806130366025913960400191505060405180910390fd5b6001600160a01b038216612c065760405162461bcd60e51b8152600401808060200182810382526023815260200180612d536023913960400191505060405180910390fd5b612c11838383611dbf565b612c5481604051806060016040528060268152602001612e35602691396001600160a01b038616600090815260026020526040902054919063ffffffff611dc416565b6001600160a01b038085166000908152600260205260408082209390935590841681522054612c89908263ffffffff611e5b16565b6001600160a01b0380841660008181526002602090815260409182902094909455805185815290519193928716927fddf252ad1be2c89b69c2b068fc378daa952ba7f163c4a11628f55a4df523b3ef92918290030190a3505050565b60008164010000000084106123d05760405162461bcd60e51b8152602060048201818152835160248401528351909283926044909101919085019080838360008315611e18578181015183820152602001611e00565b60408051808201909152600080825260208201529056fe45524332303a207472616e7366657220746f20746865207a65726f2061646472657373617474656d7074696e6720746f207472616e73666572206c6f636b65642066756e6473546573745472757374546f6b656e3a204d617820537570706c7920457863656564656445524332303a206275726e20616d6f756e7420657863656564732062616c616e636545524332303a20617070726f766520746f20746865207a65726f20616464726573735472757374546f6b656e3a2043616e2774207472616e7366657220746f207468652054525520636f6e747261637420697473656c6645524332303a207472616e7366657220616d6f756e7420657863656564732062616c616e63655472757374546f6b656e3a3a5f7772697465436865636b706f696e743a20626c6f636b206e756d626572206578636565647320333220626974735472757374546f6b656e3a3a6765745072696f72566f7465733a206e6f74207965742064657465726d696e6564546573745472757374546f6b656e3a20416d6f756e742065786365656473206d61782066617563657420616d6f756e7420706572207472616e73616374696f6e5472757374546f6b656e3a3a64656c656761746542795369673a20696e76616c6964207369676e61747572655472757374546f6b656e3a3a5f6d6f7665566f7465733a20766f746520616d6f756e74206f766572666c6f7773454950373132446f6d61696e28737472696e67206e616d652c75696e7432353620636861696e49642c6164647265737320766572696679696e67436f6e747261637429536166654d6174683a206d756c7469706c69636174696f6e206f766572666c6f7745524332303a207472616e7366657220616d6f756e74206578636565647320616c6c6f77616e63655472757374546f6b656e3a3a5f6d6f7665566f7465733a20766f746520616d6f756e7420756e646572666c6f777345524332303a206275726e2066726f6d20746865207a65726f206164647265737345524332303a207472616e736665722066726f6d20746865207a65726f20616464726573735472757374546f6b656e3a3a64656c656761746542795369673a20696e76616c6964206e6f6e636545524332303a20617070726f76652066726f6d20746865207a65726f206164647265737344656c65676174696f6e28616464726573732064656c6567617465652c75696e74323536206e6f6e63652c75696e7432353620657870697279295472757374546f6b656e3a3a64656c656761746542795369673a207369676e61747572652065787069726564546573745472757374546f6b656e3a2043616e206f6e6c792063616c6c20666175636574206f6e636520706572206d696e75746545524332303a2064656372656173656420616c6c6f77616e63652062656c6f77207a65726fa264697066735822122030187249043f85bf6bcd88a762131324cb1e2b2dcc489628a80e56061a2f8f9764736f6c634300060a0033",
  "linkReferences": {},
  "deployedLinkReferences": {}
}