{
  "_format": "hh-sol-artifact-1",
  "contractName": "ProxyStorage",
  "sourceName": "contracts/governance/common/ProxyStorage.sol",
  "abi": [
    {
      "inputs": [
        {
          "internalType": "address",
          "name": "",
          "type": "address"
        },
        {
          "internalType": "address",
          "name": "",
          "type": "address"
        }
      ],
      "name": "allowance",
      "outputs": [
        {
          "internalType": "uint256",
          "name": "",
          "type": "uint256"
        }
      ],
      "stateMutability": "view",
      "type": "function"
    },
    {
      "inputs": [
        {
          "internalType": "address",
          "name": "",
          "type": "address"
        }
      ],
      "name": "balanceOf",
      "outputs": [
        {
          "internalType": "uint256",
          "name": "",
          "type": "uint256"
        }
      ],
      "stateMutability": "view",
      "type": "function"
    },
    {
      "inputs": [
        {
          "internalType": "address",
          "name": "",
          "type": "address"
        },
        {
          "internalType": "uint32",
          "name": "",
          "type": "uint32"
        }
      ],
      "name": "checkpoints",
      "outputs": [
        {
          "internalType": "uint32",
          "name": "fromBlock",
          "type": "uint32"
        },
        {
          "internalType": "uint96",
          "name": "votes",
          "type": "uint96"
        }
      ],
      "stateMutability": "view",
      "type": "function"
    },
    {
      "inputs": [
        {
          "internalType": "address",
          "name": "",
          "type": "address"
        }
      ],
      "name": "delegates",
      "outputs": [
        {
          "internalType": "address",
          "name": "",
          "type": "address"
        }
      ],
      "stateMutability": "view",
      "type": "function"
    },
    {
      "inputs": [],
      "name": "initalized",
      "outputs": [
        {
          "internalType": "bool",
          "name": "",
          "type": "bool"
        }
      ],
      "stateMutability": "view",
      "type": "function"
    },
    {
      "inputs": [
        {
          "internalType": "address",
          "name": "",
          "type": "address"
        }
      ],
      "name": "nonces",
      "outputs": [
        {
          "internalType": "uint256",
          "name": "",
          "type": "uint256"
        }
      ],
      "stateMutability": "view",
      "type": "function"
    },
    {
      "inputs": [
        {
          "internalType": "address",
          "name": "",
          "type": "address"
        }
      ],
      "name": "numCheckpoints",
      "outputs": [
        {
          "internalType": "uint32",
          "name": "",
          "type": "uint32"
        }
      ],
      "stateMutability": "view",
      "type": "function"
    },
    {
      "inputs": [],
      "name": "totalSupply",
      "outputs": [
        {
          "internalType": "uint256",
          "name": "",
          "type": "uint256"
        }
      ],
      "stateMutability": "view",
      "type": "function"
    }
  ],
  "bytecode": "0x608060405234801561001057600080fd5b50610379806100206000396000f3fe608060405234801561001057600080fd5b50600436106100885760003560e01c806370a082311161005b57806370a082311461016b5780637ecebe001461019e578063dd62ed3e146101d1578063f1127ed81461020c57610088565b806318160ddd1461008d578063587cde1e146100a75780635be1a091146101035780636fcfff451461011f575b600080fd5b610095610278565b60408051918252519081900360200190f35b6100da600480360360208110156100bd57600080fd5b503573ffffffffffffffffffffffffffffffffffffffff1661027e565b6040805173ffffffffffffffffffffffffffffffffffffffff9092168252519081900360200190f35b61010b6102a6565b604080519115158252519081900360200190f35b6101526004803603602081101561013557600080fd5b503573ffffffffffffffffffffffffffffffffffffffff166102af565b6040805163ffffffff9092168252519081900360200190f35b6100956004803603602081101561018157600080fd5b503573ffffffffffffffffffffffffffffffffffffffff166102c7565b610095600480360360208110156101b457600080fd5b503573ffffffffffffffffffffffffffffffffffffffff166102d9565b610095600480360360408110156101e757600080fd5b5073ffffffffffffffffffffffffffffffffffffffff813581169160200135166102eb565b61024b6004803603604081101561022257600080fd5b50803573ffffffffffffffffffffffffffffffffffffffff16906020013563ffffffff16610308565b6040805163ffffffff90931683526bffffffffffffffffffffffff90911660208301528051918290030190f35b60015481565b60076020526000908152604090205473ffffffffffffffffffffffffffffffffffffffff1681565b60005460ff1681565b60096020526000908152604090205463ffffffff1681565b60026020526000908152604090205481565b600a6020526000908152604090205481565b600360209081526000928352604080842090915290825290205481565b600860209081526000928352604080842090915290825290205463ffffffff81169064010000000090046bffffffffffffffffffffffff168256fea26469706673582212207df9018afc83d218a02ae3aa6e0c99ed52e69260c48e812f9d7ff1c3a9fdb25564736f6c634300060a0033",
  "linkReferences": {},
  "deployedLinkReferences": {}
}