{
  "_format": "hh-sol-artifact-1",
  "contractName": "LoanFactory",
  "sourceName": "contracts/truefi/LoanFactory.sol",
  "abi": [
    {
      "anonymous": false,
      "inputs": [
        {
          "indexed": false,
          "internalType": "address",
          "name": "contractAddress",
          "type": "address"
        }
      ],
      "name": "LoanTokenCreated",
      "type": "event"
    },
    {
      "inputs": [
        {
          "internalType": "uint256",
          "name": "_amount",
          "type": "uint256"
        },
        {
          "internalType": "uint256",
          "name": "_term",
          "type": "uint256"
        },
        {
          "internalType": "uint256",
          "name": "_apy",
          "type": "uint256"
        }
      ],
      "name": "createLoanToken",
      "outputs": [],
      "stateMutability": "nonpayable",
      "type": "function"
    },
    {
      "inputs": [],
      "name": "currencyToken",
      "outputs": [
        {
          "internalType": "contract IERC20",
          "name": "",
          "type": "address"
        }
      ],
      "stateMutability": "view",
      "type": "function"
    },
    {
      "inputs": [
        {
          "internalType": "contract IERC20",
          "name": "_currencyToken",
          "type": "address"
        }
      ],
      "name": "initialize",
      "outputs": [],
      "stateMutability": "nonpayable",
      "type": "function"
    },
    {
      "inputs": [],
      "name": "isInitialized",
      "outputs": [
        {
          "internalType": "bool",
          "name": "",
          "type": "bool"
        }
      ],
      "stateMutability": "view",
      "type": "function"
    },
    {
      "inputs": [
        {
          "internalType": "address",
          "name": "",
          "type": "address"
        }
      ],
      "name": "isLoanToken",
      "outputs": [
        {
          "internalType": "bool",
          "name": "",
          "type": "bool"
        }
      ],
      "stateMutability": "view",
      "type": "function"
    },
    {
      "inputs": [],
      "name": "lender",
      "outputs": [
        {
          "internalType": "address",
          "name": "",
          "type": "address"
        }
      ],
      "stateMutability": "view",
      "type": "function"
    },
    {
      "inputs": [],
      "name": "liquidator",
      "outputs": [
        {
          "internalType": "address",
          "name": "",
          "type": "address"
        }
      ],
      "stateMutability": "view",
      "type": "function"
    },
    {
      "inputs": [],
      "name": "setLender",
      "outputs": [],
      "stateMutability": "nonpayable",
      "type": "function"
    },
    {
      "inputs": [],
      "name": "setLiquidator",
      "outputs": [],
      "stateMutability": "nonpayable",
      "type": "function"
    }
  ],
  "bytecode": "0x608060405234801561001057600080fd5b5061354e806100206000396000f3fe608060405234801561001057600080fd5b50600436106100a35760003560e01c80636b2fa37411610076578063bcead63e1161005b578063bcead63e14610163578063c4d66de81461016b578063da1841501461019e576100a3565b80636b2fa37414610153578063872b84c71461015b576100a3565b80632dd96d61146100a8578063392e53cd146100ef5780634046ebae146100f75780634d3d5df414610128575b600080fd5b6100db600480360360208110156100be57600080fd5b503573ffffffffffffffffffffffffffffffffffffffff166101a6565b604080519115158252519081900360200190f35b6100db6101bb565b6100ff6101c4565b6040805173ffffffffffffffffffffffffffffffffffffffff9092168252519081900360200190f35b6101516004803603606081101561013e57600080fd5b50803590602081013590604001356101e0565b005b6100ff6103c8565b6101516103e4565b6100ff610424565b6101516004803603602081101561018157600080fd5b503573ffffffffffffffffffffffffffffffffffffffff16610440565b610151610596565b60346020526000908152604090205460ff1681565b60005460ff1690565b60365473ffffffffffffffffffffffffffffffffffffffff1681565b6000831161023a576040517f08c379a0000000000000000000000000000000000000000000000000000000008152600401808060200182810382526034815260200180620034ab6034913960400191505060405180910390fd5b60008211610294576040517f08c379a000000000000000000000000000000000000000000000000000000000815260040180806020018281038252603a815260200180620034df603a913960400191505060405180910390fd5b60335460355460365460405160009373ffffffffffffffffffffffffffffffffffffffff908116933393908216929116908890889088906102d4906105dc565b73ffffffffffffffffffffffffffffffffffffffff97881681529587166020870152938616604080870191909152929095166060850152608084015260a083019390935260c082015290519081900360e001906000f08015801561033c573d6000803e3d6000fd5b5073ffffffffffffffffffffffffffffffffffffffff811660008181526034602090815260409182902080547fffffffffffffffffffffffffffffffffffffffffffffffffffffffffffffff00166001179055815192835290519293507f76798570126d3c18775ba46bf883a4be57792ec5f030d32af263b8b1a013cee092918290030190a150505050565b60335473ffffffffffffffffffffffffffffffffffffffff1681565b603580547fffffffffffffffffffffffff0000000000000000000000000000000000000000167316d02dc67eb237c387023339356b25d1d54b0922179055565b60355473ffffffffffffffffffffffffffffffffffffffff1681565b600054610100900460ff168061045957506104596105d6565b80610467575060005460ff16155b6104bd576040517f08c379a000000000000000000000000000000000000000000000000000000000815260040180806020018281038252602e8152602001806200347d602e913960400191505060405180910390fd5b600054610100900460ff1615801561052357600080547fffffffffffffffffffffffffffffffffffffffffffffffffffffffffffffff007fffffffffffffffffffffffffffffffffffffffffffffffffffffffffffff00ff909116610100171660011790555b603380547fffffffffffffffffffffffff00000000000000000000000000000000000000001673ffffffffffffffffffffffffffffffffffffffff8416179055801561059257600080547fffffffffffffffffffffffffffffffffffffffffffffffffffffffffffff00ff1690555b5050565b603680547fffffffffffffffffffffffff0000000000000000000000000000000000000000167376dd4921c99ac6b61b3a98f9fa6f181ca6d70c77179055565b303b1590565b612e9280620005eb8339019056fe60806040526019600e553480156200001657600080fd5b5060405162002e9238038062002e92833981810160405260e08110156200003c57600080fd5b5080516020808301516040808501516060860151608087015160a088015160c09098015184518086018652600a8152692637b0b7102a37b5b2b760b11b818901908152865180880190975260048752632627a0a760e11b9887019890985280519899969894979396929592949193909291620000bb9160039162000378565b508051620000d190600490602084019062000378565b50506005805460ff19166012179055506001600160a01b0385166200013d576040805162461bcd60e51b815260206004820152601c60248201527f4c6f616e546f6b656e3a204c656e646572206973206e6f742073657400000000604482015290519081900360640190fd5b601080546001600160a01b03808a16610100908102610100600160a81b031993841617909355600580548a831690940293909216929092179055600680548683166001600160a01b031991821617909155600785905560088490556009839055600b805492881692909116919091179055620001c2836001600160e01b03620001d316565b600c55506200041d95505050505050565b60006200024962000234612710620002206301e13380620002206008546200020c6009548a6200024f60201b6200186b1790919060201c565b6200024f60201b6200186b1790919060201c565b620002b460201b620018c41790919060201c565b836200031d60201b6200192b1790919060201c565b92915050565b600082620002605750600062000249565b828202828482816200026e57fe5b0414620002ad5760405162461bcd60e51b815260040180806020018281038252602181526020018062002e716021913960400191505060405180910390fd5b9392505050565b60008082116200030b576040805162461bcd60e51b815260206004820152601a60248201527f536166654d6174683a206469766973696f6e206279207a65726f000000000000604482015290519081900360640190fd5b8183816200031557fe5b049392505050565b600082820183811015620002ad576040805162461bcd60e51b815260206004820152601b60248201527f536166654d6174683a206164646974696f6e206f766572666c6f770000000000604482015290519081900360640190fd5b828054600181600116156101000203166002900490600052602060002090601f016020900481019282601f10620003bb57805160ff1916838001178555620003eb565b82800160010185558215620003eb579182015b82811115620003eb578251825591602001919060010190620003ce565b50620003f9929150620003fd565b5090565b6200041a91905b80821115620003f9576000815560010162000404565b90565b612a44806200042d6000396000f3fe608060405234801561001057600080fd5b50600436106102f45760003560e01c806370a0823111610191578063a9059cbb116100e3578063be9a655511610097578063dd62ed3e11610071578063dd62ed3e146107bd578063e231bff0146107f8578063fbb27dce14610800576102f4565b8063be9a65551461077b578063c5a46ee614610783578063db006a75146107a0576102f4565b8063b60d4288116100c8578063b60d428814610763578063b69ef8a81461076b578063bcead63e14610773576102f4565b8063a9059cbb14610722578063aa8c217c1461075b576102f4565b806380e9071b11610145578063a10ffbed1161011f578063a10ffbed146106bb578063a457c2d7146106c3578063a5ea11da146106fc576102f4565b806380e9071b146106a357806395d89b41146106ab5780639632e720146106b3576102f4565b8063780f9e3711610176578063780f9e371461063557806378fc3cb3146106685780637df1f1b91461069b576102f4565b806370a08231146105fa57806371f83e151461062d576102f4565b8063313ce5671161024a57806351cff8d9116101fe57806366d16cc3116101d857806366d16cc3146105e25780636b2fa374146105ea5780636e31d80a146105f2576102f4565b806351cff8d91461059f57806354fd4d50146105d25780636164051a146105da576102f4565b80633bcfc4b81161022f5780633bcfc4b81461052b5780634046ebae146105335780634d9b8fcf14610564576102f4565b8063313ce567146104d457806339509351146104f2576102f4565b80631f4be86d116102ac57806323b872dd1161028657806323b872dd1461048157806328a07025146104c45780632e9a8d14146104cc576102f4565b80631f4be86d146103ef578063200d2ed21461041c57806322867d7814610448576102f4565b80630dca59c1116102dd5780630dca59c1146103c357806311da60b4146103dd57806318160ddd146103e7576102f4565b806306fdde03146102f9578063095ea7b314610376575b600080fd5b610301610808565b6040805160208082528351818301528351919283929083019185019080838360005b8381101561033b578181015183820152602001610323565b50505050905090810190601f1680156103685780820380516001836020036101000a031916815260200191505b509250505060405180910390f35b6103af6004803603604081101561038c57600080fd5b5073ffffffffffffffffffffffffffffffffffffffff81351690602001356108bc565b604080519115158252519081900360200190f35b6103cb6108da565b60408051918252519081900360200190f35b6103e56108e0565b005b6103cb6109f4565b6103f76109fa565b604080516fffffffffffffffffffffffffffffffff9092168252519081900360200190f35b610424610a01565b6040518082600581111561043457fe5b60ff16815260200191505060405180910390f35b6103e56004803603604081101561045e57600080fd5b5073ffffffffffffffffffffffffffffffffffffffff8135169060200135610a0a565b6103af6004803603606081101561049757600080fd5b5073ffffffffffffffffffffffffffffffffffffffff813581169160208101359091169060400135610a18565b6103e5610ac0565b6103e5610bdf565b6104dc610d5b565b6040805160ff9092168252519081900360200190f35b6103af6004803603604081101561050857600080fd5b5073ffffffffffffffffffffffffffffffffffffffff8135169060200135610d64565b6103cb610dc5565b61053b610dcb565b6040805173ffffffffffffffffffffffffffffffffffffffff9092168252519081900360200190f35b6103e56004803603604081101561057a57600080fd5b5073ffffffffffffffffffffffffffffffffffffffff81351690602001351515610de7565b6103e5600480360360208110156105b557600080fd5b503573ffffffffffffffffffffffffffffffffffffffff16610ecc565b6104dc61101e565b6103af611023565b6103cb6110a1565b61053b6110bf565b6103af6110e0565b6103cb6004803603602081101561061057600080fd5b503573ffffffffffffffffffffffffffffffffffffffff166110e5565b6103cb611111565b6103e56004803603602081101561064b57600080fd5b503573ffffffffffffffffffffffffffffffffffffffff16611117565b6103af6004803603602081101561067e57600080fd5b503573ffffffffffffffffffffffffffffffffffffffff1661113d565b61053b611152565b6103e5611173565b61030161133b565b6103cb6113ba565b6103cb6113f7565b6103af600480360360408110156106d957600080fd5b5073ffffffffffffffffffffffffffffffffffffffff81351690602001356113fd565b610704611478565b60408051938452602084019290925282820152519081900360600190f35b6103af6004803603604081101561073857600080fd5b5073ffffffffffffffffffffffffffffffffffffffff8135169060200135611486565b6103cb61149a565b6103e56114a0565b6103cb6115ea565b61053b6115f4565b6103cb611610565b6103cb6004803603602081101561079957600080fd5b5035611616565b6103e5600480360360208110156107b657600080fd5b50356116c8565b6103cb600480360360408110156107d357600080fd5b5073ffffffffffffffffffffffffffffffffffffffff813581169160200135166117cd565b6103cb611805565b6103cb61180b565b60038054604080516020601f60027fffffffffffffffffffffffffffffffffffffffffffffffffffffffffffffffff6101006001881615020190951694909404938401819004810282018101909252828152606093909290918301828280156108b25780601f10610887576101008083540402835291602001916108b2565b820191906000526020600020905b81548152906001019060200180831161089557829003601f168201915b5050505050905090565b60006108d06108c9611985565b8484611989565b5060015b92915050565b600c5481565b600160105460ff1660058111156108f357fe5b148061090f5750600260105460ff16600581111561090d57fe5b145b61094a5760405162461bcd60e51b81526004018080602001828103825260378152602001806126ea6037913960400191505060405180910390fd5b610952611023565b61098d5760405162461bcd60e51b81526004018080602001828103825260288152602001806127c16028913960400191505060405180910390fd5b601080547fffffffffffffffffffffffffffffffffffffffffffffffffffffffffffffff001660031790557fcc3183593ff0e17b930d6f19f832ddcf865bf7ef55eb16754850c55ac447b2ad6109e1611a9c565b60408051918252519081900360200190a1565b60025490565b6201518081565b60105460ff1681565b610a148282611b43565b5050565b6000610a25848484611c6c565b610ab584610a31611985565b610ab0856040518060600160405280602881526020016127e96028913973ffffffffffffffffffffffffffffffffffffffff8a16600090815260016020526040812090610a7c611985565b73ffffffffffffffffffffffffffffffffffffffff168152602081019190915260400160002054919063ffffffff611d0816565b611989565b5060015b9392505050565b600460105460ff166005811115610ad357fe5b14610b0f5760405162461bcd60e51b815260040180806020018281038252602d8152602001806129e2602d913960400191505060405180910390fd5b60065473ffffffffffffffffffffffffffffffffffffffff163314610b655760405162461bcd60e51b81526004018080602001828103825260278152602001806128f56027913960400191505060405180910390fd5b601080547fffffffffffffffffffffffffffffffffffffffffffffffffffffffffffffff00166005908117918290556040517f94e0c4b6b0d923b06d6df29524c6fb781364afa30be58bfa01b09fdf3b3f5e8c9260ff169181908390811115610bca57fe5b60ff16815260200191505060405180910390a1565b600160105460ff166005811115610bf257fe5b1480610c0e5750600260105460ff166005811115610c0c57fe5b145b610c495760405162461bcd60e51b81526004018080602001828103825260378152602001806126ea6037913960400191505060405180910390fd5b610c51611023565b15610c8d5760405162461bcd60e51b81526004018080602001828103825260278152602001806125eb6027913960400191505060405180910390fd5b42610cca620151806fffffffffffffffffffffffffffffffff16610cbe600854600a5461192b90919063ffffffff16565b9063ffffffff61192b16565b1115610d075760405162461bcd60e51b81526004018080602001828103825260278152602001806129486027913960400191505060405180910390fd5b601080547fffffffffffffffffffffffffffffffffffffffffffffffffffffffffffffff001660041790557f1d75e3348506adf1891a585d582e37bfdd45f92284df8a0a8a8f20e428f45c1b6109e1611a9c565b60055460ff1690565b60006108d0610d71611985565b84610ab08560016000610d82611985565b73ffffffffffffffffffffffffffffffffffffffff908116825260208083019390935260409182016000908120918c16815292529020549063ffffffff61192b16565b60095481565b60065473ffffffffffffffffffffffffffffffffffffffff1681565b600b5473ffffffffffffffffffffffffffffffffffffffff163314610e3d5760405162461bcd60e51b815260040180806020018281038252602f815260200180612695602f913960400191505060405180910390fd5b73ffffffffffffffffffffffffffffffffffffffff82166000818152600f602090815260409182902080547fffffffffffffffffffffffffffffffffffffffffffffffffffffffffffffff001685151590811790915582519384529083015280517f1b3b164cc59c87814760e94930af830522796bfcf37eb8c9953f560a1999b0cb9281900390910190a15050565b600554610100900473ffffffffffffffffffffffffffffffffffffffff163314610f275760405162461bcd60e51b81526004018080602001828103825260258152602001806126706025913960400191505060405180910390fd5b600160105460ff166005811115610f3a57fe5b14610f765760405162461bcd60e51b815260040180806020018281038252602a8152602001806128cb602a913960400191505060405180910390fd5b601080547fffffffffffffffffffffffffffffffffffffffffffffffffffffffffffffff00166002179055610fd281610fad6113ba565b601054610100900473ffffffffffffffffffffffffffffffffffffffff169190611d9f565b6040805173ffffffffffffffffffffffffffffffffffffffff8316815290517ff45a04d08a70caa7eb4b747571305559ad9fdf4a093afd41506b35c8a306fa949181900360200190a150565b600390565b6000600160105460ff16600581111561103857fe5b14806110545750600260105460ff16600581111561105257fe5b145b61108f5760405162461bcd60e51b81526004018080602001828103825260378152602001806126ea6037913960400191505060405180910390fd5b600c5461109a611a9c565b1015905090565b60006110ba600754600c54611e3190919063ffffffff16565b905090565b601054610100900473ffffffffffffffffffffffffffffffffffffffff1681565b600190565b73ffffffffffffffffffffffffffffffffffffffff81166000908152602081905260409020545b919050565b600e5481565b61113a81611135611126611a9c565b600c549063ffffffff611e3116565b611b43565b50565b600f6020526000908152604090205460ff1681565b600554610100900473ffffffffffffffffffffffffffffffffffffffff1681565b600360105460ff16600581111561118657fe5b10156111c35760405162461bcd60e51b815260040180806020018281038252602a815260200180612776602a913960400191505060405180910390fd5b600554610100900473ffffffffffffffffffffffffffffffffffffffff16331461121e5760405162461bcd60e51b81526004018080602001828103825260258152602001806126706025913960400191505060405180910390fd5b6112266109f4565b156112625760405162461bcd60e51b815260040180806020018281038252603c815260200180612612603c913960400191505060405180910390fd5b600061126c611a9c565b9050600081116112ad5760405162461bcd60e51b81526004018080602001828103825260288152602001806127216028913960400191505060405180910390fd5b6005546010546112e09173ffffffffffffffffffffffffffffffffffffffff610100928390048116929091041683611d9f565b6005546040805161010090920473ffffffffffffffffffffffffffffffffffffffff1682526020820183905280517fcab347be18c8c37ef504626a027a12ea6725f491b5f5b154778d8d0c54f7841e9281900390910190a150565b60048054604080516020601f60027fffffffffffffffffffffffffffffffffffffffffffffffffffffffffffffffff6101006001881615020190951694909404938401819004810282018101909252828152606093909290918301828280156108b25780601f10610887576101008083540402835291602001916108b2565b60006110ba6113e86127106113dc600e5460075461186b90919063ffffffff16565b9063ffffffff6118c416565b6007549063ffffffff611e3116565b60085481565b60006108d061140a611985565b84610ab0856040518060600160405280602581526020016129bd6025913960016000611434611985565b73ffffffffffffffffffffffffffffffffffffffff908116825260208083019390935260409182016000908120918d1681529252902054919063ffffffff611d0816565b600754600954600854909192565b60006108d0611493611985565b8484611c6c565b60075481565b600060105460ff1660058111156114b357fe5b146114ef5760405162461bcd60e51b815260040180806020018281038252602c81526020018061291c602c913960400191505060405180910390fd5b600b5473ffffffffffffffffffffffffffffffffffffffff1633146115455760405162461bcd60e51b815260040180806020018281038252602f815260200180612695602f913960400191505060405180910390fd5b601080547fffffffffffffffffffffffffffffffffffffffffffffffffffffffffffffff0016600117905542600a55600c54611582903390611e8e565b6115b5333061158f6113ba565b601054610100900473ffffffffffffffffffffffffffffffffffffffff16929190611fb1565b6040805133815290517fb436c2bf863ccd7b8f63171201efd4792066b4ce8e543dde9c3e9e9ab98e216c9181900360200190a1565b60006110ba611a9c565b600b5473ffffffffffffffffffffffffffffffffffffffff1681565b600a5481565b6000816116255750600061110c565b600061163c600a5442611e3190919063ffffffff16565b905060085481118061165e5750600360105460ff16600581111561165c57fe5b145b1561166857506008545b600061169f6127106113dc6301e133806113dc8661169360095460075461186b90919063ffffffff16565b9063ffffffff61186b16565b90506116c0600c546113dc866116938560075461192b90919063ffffffff16565b949350505050565b600360105460ff1660058111156116db57fe5b10156117185760405162461bcd60e51b815260040180806020018281038252602a815260200180612776602a913960400191505060405180910390fd5b600061173d6117256109f4565b6113dc611730611a9c565b859063ffffffff61186b16565b600d54909150611753908263ffffffff61192b16565b600d556117603383612046565b60105461178990610100900473ffffffffffffffffffffffffffffffffffffffff163383611d9f565b604080513381526020810184905280820183905290517ff3a670cd3af7d64b488926880889d08a8585a138ff455227af6737339a1ec2629181900360600190a15050565b73ffffffffffffffffffffffffffffffffffffffff918216600090815260016020908152604080832093909416825291909152205490565b600d5481565b6000600260105460ff16600581111561182057fe5b101561185d5760405162461bcd60e51b815260040180806020018281038252602d815260200180612749602d913960400191505060405180910390fd5b6110ba600d54610cbe611a9c565b60008261187a575060006108d4565b8282028284828161188757fe5b0414610ab95760405162461bcd60e51b81526004018080602001828103825260218152602001806127a06021913960400191505060405180910390fd5b600080821161191a576040805162461bcd60e51b815260206004820152601a60248201527f536166654d6174683a206469766973696f6e206279207a65726f000000000000604482015290519081900360640190fd5b81838161192357fe5b049392505050565b600082820183811015610ab9576040805162461bcd60e51b815260206004820152601b60248201527f536166654d6174683a206164646974696f6e206f766572666c6f770000000000604482015290519081900360640190fd5b3390565b73ffffffffffffffffffffffffffffffffffffffff83166119db5760405162461bcd60e51b815260040180806020018281038252602481526020018061296f6024913960400191505060405180910390fd5b73ffffffffffffffffffffffffffffffffffffffff8216611a2d5760405162461bcd60e51b815260040180806020018281038252602281526020018061264e6022913960400191505060405180910390fd5b73ffffffffffffffffffffffffffffffffffffffff808416600081815260016020908152604080832094871680845294825291829020859055815185815291517f8c5be1e5ebec7d5bd14f71427d1e84f3dd0314c0f7b2291e5b200ac8c7c3b9259281900390910190a3505050565b601054604080517f70a082310000000000000000000000000000000000000000000000000000000081523060048201529051600092610100900473ffffffffffffffffffffffffffffffffffffffff16916370a08231916024808301926020929190829003018186803b158015611b1257600080fd5b505afa158015611b26573d6000803e3d6000fd5b505050506040513d6020811015611b3c57600080fd5b5051905090565b600260105460ff166005811115611b5657fe5b1015611b935760405162461bcd60e51b815260040180806020018281038252602d815260200180612749602d913960400191505060405180910390fd5b611b9e611126611a9c565b811115611bdc5760405162461bcd60e51b81526004018080602001828103825260258152602001806128116025913960400191505060405180910390fd5b6040805173ffffffffffffffffffffffffffffffffffffffff841681526020810183905281517f0516911bcc3a0a7412a44601057c0a0a1ec628bde049a84284bc428866534488929181900390910190a1601054611c5790610100900473ffffffffffffffffffffffffffffffffffffffff16833084611fb1565b611c5f611023565b15610a1457610a146108e0565b600b54839073ffffffffffffffffffffffffffffffffffffffff80831691161480611cbc575073ffffffffffffffffffffffffffffffffffffffff81166000908152600f602052604090205460ff165b611cf75760405162461bcd60e51b815260040180806020018281038252604f815260200180612857604f913960600191505060405180910390fd5b611d02848484612182565b50505050565b60008184841115611d975760405162461bcd60e51b81526004018080602001828103825283818151815260200191508051906020019080838360005b83811015611d5c578181015183820152602001611d44565b50505050905090810190601f168015611d895780820380516001836020036101000a031916815260200191505b509250505060405180910390fd5b505050900390565b6040805173ffffffffffffffffffffffffffffffffffffffff8416602482015260448082018490528251808303909101815260649091019091526020810180517bffffffffffffffffffffffffffffffffffffffffffffffffffffffff167fa9059cbb00000000000000000000000000000000000000000000000000000000179052611e2c90849061232a565b505050565b600082821115611e88576040805162461bcd60e51b815260206004820152601e60248201527f536166654d6174683a207375627472616374696f6e206f766572666c6f770000604482015290519081900360640190fd5b50900390565b73ffffffffffffffffffffffffffffffffffffffff8216611ef6576040805162461bcd60e51b815260206004820152601f60248201527f45524332303a206d696e7420746f20746865207a65726f206164647265737300604482015290519081900360640190fd5b611f0260008383611e2c565b600254611f15908263ffffffff61192b16565b60025573ffffffffffffffffffffffffffffffffffffffff8216600090815260208190526040902054611f4e908263ffffffff61192b16565b73ffffffffffffffffffffffffffffffffffffffff83166000818152602081815260408083209490945583518581529351929391927fddf252ad1be2c89b69c2b068fc378daa952ba7f163c4a11628f55a4df523b3ef9281900390910190a35050565b6040805173ffffffffffffffffffffffffffffffffffffffff80861660248301528416604482015260648082018490528251808303909101815260849091019091526020810180517bffffffffffffffffffffffffffffffffffffffffffffffffffffffff167f23b872dd00000000000000000000000000000000000000000000000000000000179052611d0290859061232a565b73ffffffffffffffffffffffffffffffffffffffff82166120985760405162461bcd60e51b81526004018080602001828103825260218152602001806128366021913960400191505060405180910390fd5b6120a482600083611e2c565b6120f4816040518060600160405280602281526020016125c96022913973ffffffffffffffffffffffffffffffffffffffff8516600090815260208190526040902054919063ffffffff611d0816565b73ffffffffffffffffffffffffffffffffffffffff831660009081526020819052604090205560025461212d908263ffffffff611e3116565b60025560408051828152905160009173ffffffffffffffffffffffffffffffffffffffff8516917fddf252ad1be2c89b69c2b068fc378daa952ba7f163c4a11628f55a4df523b3ef9181900360200190a35050565b73ffffffffffffffffffffffffffffffffffffffff83166121d45760405162461bcd60e51b81526004018080602001828103825260258152602001806128a66025913960400191505060405180910390fd5b73ffffffffffffffffffffffffffffffffffffffff82166122265760405162461bcd60e51b81526004018080602001828103825260238152602001806125a66023913960400191505060405180910390fd5b612231838383611e2c565b612281816040518060600160405280602681526020016126c46026913973ffffffffffffffffffffffffffffffffffffffff8616600090815260208190526040902054919063ffffffff611d0816565b73ffffffffffffffffffffffffffffffffffffffff80851660009081526020819052604080822093909355908416815220546122c3908263ffffffff61192b16565b73ffffffffffffffffffffffffffffffffffffffff8084166000818152602081815260409182902094909455805185815290519193928716927fddf252ad1be2c89b69c2b068fc378daa952ba7f163c4a11628f55a4df523b3ef92918290030190a3505050565b606061238c826040518060400160405280602081526020017f5361666545524332303a206c6f772d6c6576656c2063616c6c206661696c65648152508573ffffffffffffffffffffffffffffffffffffffff166123e89092919063ffffffff16565b805190915015611e2c578080602001905160208110156123ab57600080fd5b5051611e2c5760405162461bcd60e51b815260040180806020018281038252602a815260200180612993602a913960400191505060405180910390fd5b60606116c08484600085856123fc85612539565b61244d576040805162461bcd60e51b815260206004820152601d60248201527f416464726573733a2063616c6c20746f206e6f6e2d636f6e7472616374000000604482015290519081900360640190fd5b600060608673ffffffffffffffffffffffffffffffffffffffff1685876040518082805190602001908083835b602083106124b757805182527fffffffffffffffffffffffffffffffffffffffffffffffffffffffffffffffe0909201916020918201910161247a565b6001836020036101000a03801982511681845116808217855250505050505090500191505060006040518083038185875af1925050503d8060008114612519576040519150601f19603f3d011682016040523d82523d6000602084013e61251e565b606091505b509150915061252e82828661253f565b979650505050505050565b3b151590565b6060831561254e575081610ab9565b82511561255e5782518084602001fd5b60405162461bcd60e51b8152602060048201818152845160248401528451859391928392604401919085019080838360008315611d5c578181015183820152602001611d4456fe45524332303a207472616e7366657220746f20746865207a65726f206164647265737345524332303a206275726e20616d6f756e7420657863656564732062616c616e63654c6f616e546f6b656e3a2063616e6e6f742064656661756c74206120726570616964206c6f616e4c6f616e546f6b656e3a2043616e6e6f74207265636c61696d207768656e204c6f616e546f6b656e732061726520696e2063697263756c6174696f6e45524332303a20617070726f766520746f20746865207a65726f20616464726573734c6f616e546f6b656e3a2043616c6c6572206973206e6f742074686520626f72726f7765724c6f616e546f6b656e3a20546869732063616e20626520706572666f726d6564206f6e6c79206279206c656e64657245524332303a207472616e7366657220616d6f756e7420657863656564732062616c616e63654c6f616e546f6b656e3a2043757272656e74207374617475732073686f756c642062652046756e646564206f722057697468647261776e4c6f616e546f6b656e3a2043616e6e6f74207265636c61696d207768656e2062616c616e636520304c6f616e546f6b656e3a204f6e6c79206166746572206c6f616e20686173206265656e2077697468647261776e4c6f616e546f6b656e3a204f6e6c79206166746572206c6f616e20686173206265656e20636c6f736564536166654d6174683a206d756c7469706c69636174696f6e206f766572666c6f774c6f616e546f6b656e3a206c6f616e206d7573742062652072657061696420746f20736574746c6545524332303a207472616e7366657220616d6f756e74206578636565647320616c6c6f77616e63654c6f616e546f6b656e3a2043616e6e6f74207265706179206f76657220746865206465627445524332303a206275726e2066726f6d20746865207a65726f20616464726573734c6f616e546f6b656e3a20546869732063616e20626520706572666f726d6564206f6e6c79206279206c656e646572206f72206163636f756e747320616c6c6f77656420746f207472616e7366657245524332303a207472616e736665722066726f6d20746865207a65726f20616464726573734c6f616e546f6b656e3a2043757272656e74207374617475732073686f756c642062652046756e6465644c6f616e546f6b656e3a2043616c6c6572206973206e6f7420746865206c697175696461746f724c6f616e546f6b656e3a2043757272656e74207374617475732073686f756c64206265204177616974696e674c6f616e546f6b656e3a204c6f616e2063616e6e6f742062652064656661756c7465642079657445524332303a20617070726f76652066726f6d20746865207a65726f20616464726573735361666545524332303a204552433230206f7065726174696f6e20646964206e6f74207375636365656445524332303a2064656372656173656420616c6c6f77616e63652062656c6f77207a65726f4c6f616e546f6b656e3a2043757272656e74207374617475732073686f756c642062652044656661756c746564a2646970667358221220bf672fb9452bf635fb37e3a4695dc4b5fb9735688df14566ab08f12372de195564736f6c634300060a0033536166654d6174683a206d756c7469706c69636174696f6e206f766572666c6f77436f6e747261637420696e7374616e63652068617320616c7265616479206265656e20696e697469616c697a65644c6f616e466163746f72793a204c6f616e73206f6620616d6f756e7420302c2077696c6c206e6f7420626520617070726f7665644c6f616e466163746f72793a204c6f616e732063616e6e6f74206861766520696e7374616e74616e656f7573207465726d206f66207265706179a26469706673582212205926688156e422a10a827ca9333e6d538dac5e731b91d823291274b7a4c3dc7764736f6c634300060a0033",
  "linkReferences": {},
  "deployedLinkReferences": {}
}