{
  "contracts/Governance/GovernorBravoInterfaces.sol": {
    "GovernorBravoDelegatorStorage": {
      "abi": [
        {
          "constant": true,
          "inputs": [],
          "name": "admin",
          "outputs": [
            {
              "internalType": "address",
              "name": "",
              "type": "address"
            }
          ],
          "payable": false,
          "stateMutability": "view",
          "type": "function"
        },
        {
          "constant": true,
          "inputs": [],
          "name": "implementation",
          "outputs": [
            {
              "internalType": "address",
              "name": "",
              "type": "address"
            }
          ],
          "payable": false,
          "stateMutability": "view",
          "type": "function"
        },
        {
          "constant": true,
          "inputs": [],
          "name": "pendingAdmin",
          "outputs": [
            {
              "internalType": "address",
              "name": "",
              "type": "address"
            }
          ],
          "payable": false,
          "stateMutability": "view",
          "type": "function"
        }
      ],
      "evm": {
        "bytecode": {
          "linkReferences": {},
          "object": "608060405234801561001057600080fd5b50610106806100206000396000f3fe6080604052348015600f57600080fd5b5060043610603c5760003560e01c8063267822471460415780635c60da1b14605b578063f851a440146061575b600080fd5b60476067565b6040516052919060a1565b60405180910390f35b60476076565b60476085565b6001546001600160a01b031681565b6002546001600160a01b031681565b6000546001600160a01b031681565b609b8160b3565b82525050565b6020810160ad82846094565b92915050565b60006001600160a01b03821660ad56fea365627a7a723158205b502d8829d723f01b155908eb8747c3344a129d504a93027db1fa63b01c36046c6578706572696d656e74616cf564736f6c63430005100040",
          "opcodes": "PUSH1 0x80 PUSH1 0x40 MSTORE CALLVALUE DUP1 ISZERO PUSH2 0x10 JUMPI PUSH1 0x0 DUP1 REVERT JUMPDEST POP PUSH2 0x106 DUP1 PUSH2 0x20 PUSH1 0x0 CODECOPY PUSH1 0x0 RETURN INVALID PUSH1 0x80 PUSH1 0x40 MSTORE CALLVALUE DUP1 ISZERO PUSH1 0xF JUMPI PUSH1 0x0 DUP1 REVERT JUMPDEST POP PUSH1 0x4 CALLDATASIZE LT PUSH1 0x3C JUMPI PUSH1 0x0 CALLDATALOAD PUSH1 0xE0 SHR DUP1 PUSH4 0x26782247 EQ PUSH1 0x41 JUMPI DUP1 PUSH4 0x5C60DA1B EQ PUSH1 0x5B JUMPI DUP1 PUSH4 0xF851A440 EQ PUSH1 0x61 JUMPI JUMPDEST PUSH1 0x0 DUP1 REVERT JUMPDEST PUSH1 0x47 PUSH1 0x67 JUMP JUMPDEST PUSH1 0x40 MLOAD PUSH1 0x52 SWAP2 SWAP1 PUSH1 0xA1 JUMP JUMPDEST PUSH1 0x40 MLOAD DUP1 SWAP2 SUB SWAP1 RETURN JUMPDEST PUSH1 0x47 PUSH1 0x76 JUMP JUMPDEST PUSH1 0x47 PUSH1 0x85 JUMP JUMPDEST PUSH1 0x1 SLOAD PUSH1 0x1 PUSH1 0x1 PUSH1 0xA0 SHL SUB AND DUP2 JUMP JUMPDEST PUSH1 0x2 SLOAD PUSH1 0x1 PUSH1 0x1 PUSH1 0xA0 SHL SUB AND DUP2 JUMP JUMPDEST PUSH1 0x0 SLOAD PUSH1 0x1 PUSH1 0x1 PUSH1 0xA0 SHL SUB AND DUP2 JUMP JUMPDEST PUSH1 0x9B DUP2 PUSH1 0xB3 JUMP JUMPDEST DUP3 MSTORE POP POP JUMP JUMPDEST PUSH1 0x20 DUP2 ADD PUSH1 0xAD DUP3 DUP5 PUSH1 0x94 JUMP JUMPDEST SWAP3 SWAP2 POP POP JUMP JUMPDEST PUSH1 0x0 PUSH1 0x1 PUSH1 0x1 PUSH1 0xA0 SHL SUB DUP3 AND PUSH1 0xAD JUMP INVALID LOG3 PUSH6 0x627A7A723158 KECCAK256 JUMPDEST POP 0x2D DUP9 0x29 0xD7 0x23 CREATE SHL ISZERO MSIZE ADDMOD 0xEB DUP8 SELFBALANCE 0xC3 CALLVALUE 0x4A SLT SWAP14 POP 0x4A SWAP4 MUL PUSH30 0xB1FA63B01C36046C6578706572696D656E74616CF564736F6C6343000510 STOP BLOCKHASH "
        },
        "methodIdentifiers": {
          "admin()": "f851a440",
          "implementation()": "5c60da1b",
          "pendingAdmin()": "26782247"
        }
      }
    }
  }
}