{
  "_format": "hh-sol-artifact-1",
  "contractName": "ERC721EnumerableMock",
  "sourceName": "contracts/mocks/ERC721EnumerableMock.sol",
  "abi": [
    {
      "inputs": [
        {
          "internalType": "string",
          "name": "name",
          "type": "string"
        },
        {
          "internalType": "string",
          "name": "symbol",
          "type": "string"
        }
      ],
      "stateMutability": "nonpayable",
      "type": "constructor"
    },
    {
      "anonymous": false,
      "inputs": [
        {
          "indexed": true,
          "internalType": "address",
          "name": "owner",
          "type": "address"
        },
        {
          "indexed": true,
          "internalType": "address",
          "name": "approved",
          "type": "address"
        },
        {
          "indexed": true,
          "internalType": "uint256",
          "name": "tokenId",
          "type": "uint256"
        }
      ],
      "name": "Approval",
      "type": "event"
    },
    {
      "anonymous": false,
      "inputs": [
        {
          "indexed": true,
          "internalType": "address",
          "name": "owner",
          "type": "address"
        },
        {
          "indexed": true,
          "internalType": "address",
          "name": "operator",
          "type": "address"
        },
        {
          "indexed": false,
          "internalType": "bool",
          "name": "approved",
          "type": "bool"
        }
      ],
      "name": "ApprovalForAll",
      "type": "event"
    },
    {
      "anonymous": false,
      "inputs": [
        {
          "indexed": true,
          "internalType": "address",
          "name": "from",
          "type": "address"
        },
        {
          "indexed": true,
          "internalType": "address",
          "name": "to",
          "type": "address"
        },
        {
          "indexed": true,
          "internalType": "uint256",
          "name": "tokenId",
          "type": "uint256"
        }
      ],
      "name": "Transfer",
      "type": "event"
    },
    {
      "inputs": [
        {
          "internalType": "address",
          "name": "to",
          "type": "address"
        },
        {
          "internalType": "uint256",
          "name": "tokenId",
          "type": "uint256"
        }
      ],
      "name": "approve",
      "outputs": [],
      "stateMutability": "nonpayable",
      "type": "function"
    },
    {
      "inputs": [
        {
          "internalType": "address",
          "name": "owner",
          "type": "address"
        }
      ],
      "name": "balanceOf",
      "outputs": [
        {
          "internalType": "uint256",
          "name": "",
          "type": "uint256"
        }
      ],
      "stateMutability": "view",
      "type": "function"
    },
    {
      "inputs": [],
      "name": "baseURI",
      "outputs": [
        {
          "internalType": "string",
          "name": "",
          "type": "string"
        }
      ],
      "stateMutability": "view",
      "type": "function"
    },
    {
      "inputs": [
        {
          "internalType": "uint256",
          "name": "tokenId",
          "type": "uint256"
        }
      ],
      "name": "burn",
      "outputs": [],
      "stateMutability": "nonpayable",
      "type": "function"
    },
    {
      "inputs": [
        {
          "internalType": "uint256",
          "name": "tokenId",
          "type": "uint256"
        }
      ],
      "name": "exists",
      "outputs": [
        {
          "internalType": "bool",
          "name": "",
          "type": "bool"
        }
      ],
      "stateMutability": "view",
      "type": "function"
    },
    {
      "inputs": [
        {
          "internalType": "uint256",
          "name": "tokenId",
          "type": "uint256"
        }
      ],
      "name": "getApproved",
      "outputs": [
        {
          "internalType": "address",
          "name": "",
          "type": "address"
        }
      ],
      "stateMutability": "view",
      "type": "function"
    },
    {
      "inputs": [
        {
          "internalType": "address",
          "name": "owner",
          "type": "address"
        },
        {
          "internalType": "address",
          "name": "operator",
          "type": "address"
        }
      ],
      "name": "isApprovedForAll",
      "outputs": [
        {
          "internalType": "bool",
          "name": "",
          "type": "bool"
        }
      ],
      "stateMutability": "view",
      "type": "function"
    },
    {
      "inputs": [
        {
          "internalType": "address",
          "name": "to",
          "type": "address"
        },
        {
          "internalType": "uint256",
          "name": "tokenId",
          "type": "uint256"
        }
      ],
      "name": "mint",
      "outputs": [],
      "stateMutability": "nonpayable",
      "type": "function"
    },
    {
      "inputs": [],
      "name": "name",
      "outputs": [
        {
          "internalType": "string",
          "name": "",
          "type": "string"
        }
      ],
      "stateMutability": "view",
      "type": "function"
    },
    {
      "inputs": [
        {
          "internalType": "uint256",
          "name": "tokenId",
          "type": "uint256"
        }
      ],
      "name": "ownerOf",
      "outputs": [
        {
          "internalType": "address",
          "name": "",
          "type": "address"
        }
      ],
      "stateMutability": "view",
      "type": "function"
    },
    {
      "inputs": [
        {
          "internalType": "address",
          "name": "to",
          "type": "address"
        },
        {
          "internalType": "uint256",
          "name": "tokenId",
          "type": "uint256"
        },
        {
          "internalType": "bytes",
          "name": "_data",
          "type": "bytes"
        }
      ],
      "name": "safeMint",
      "outputs": [],
      "stateMutability": "nonpayable",
      "type": "function"
    },
    {
      "inputs": [
        {
          "internalType": "address",
          "name": "to",
          "type": "address"
        },
        {
          "internalType": "uint256",
          "name": "tokenId",
          "type": "uint256"
        }
      ],
      "name": "safeMint",
      "outputs": [],
      "stateMutability": "nonpayable",
      "type": "function"
    },
    {
      "inputs": [
        {
          "internalType": "address",
          "name": "from",
          "type": "address"
        },
        {
          "internalType": "address",
          "name": "to",
          "type": "address"
        },
        {
          "internalType": "uint256",
          "name": "tokenId",
          "type": "uint256"
        }
      ],
      "name": "safeTransferFrom",
      "outputs": [],
      "stateMutability": "nonpayable",
      "type": "function"
    },
    {
      "inputs": [
        {
          "internalType": "address",
          "name": "from",
          "type": "address"
        },
        {
          "internalType": "address",
          "name": "to",
          "type": "address"
        },
        {
          "internalType": "uint256",
          "name": "tokenId",
          "type": "uint256"
        },
        {
          "internalType": "bytes",
          "name": "_data",
          "type": "bytes"
        }
      ],
      "name": "safeTransferFrom",
      "outputs": [],
      "stateMutability": "nonpayable",
      "type": "function"
    },
    {
      "inputs": [
        {
          "internalType": "address",
          "name": "operator",
          "type": "address"
        },
        {
          "internalType": "bool",
          "name": "approved",
          "type": "bool"
        }
      ],
      "name": "setApprovalForAll",
      "outputs": [],
      "stateMutability": "nonpayable",
      "type": "function"
    },
    {
      "inputs": [
        {
          "internalType": "string",
          "name": "newBaseTokenURI",
          "type": "string"
        }
      ],
      "name": "setBaseURI",
      "outputs": [],
      "stateMutability": "nonpayable",
      "type": "function"
    },
    {
      "inputs": [
        {
          "internalType": "bytes4",
          "name": "interfaceId",
          "type": "bytes4"
        }
      ],
      "name": "supportsInterface",
      "outputs": [
        {
          "internalType": "bool",
          "name": "",
          "type": "bool"
        }
      ],
      "stateMutability": "view",
      "type": "function"
    },
    {
      "inputs": [],
      "name": "symbol",
      "outputs": [
        {
          "internalType": "string",
          "name": "",
          "type": "string"
        }
      ],
      "stateMutability": "view",
      "type": "function"
    },
    {
      "inputs": [
        {
          "internalType": "uint256",
          "name": "index",
          "type": "uint256"
        }
      ],
      "name": "tokenByIndex",
      "outputs": [
        {
          "internalType": "uint256",
          "name": "",
          "type": "uint256"
        }
      ],
      "stateMutability": "view",
      "type": "function"
    },
    {
      "inputs": [
        {
          "internalType": "address",
          "name": "owner",
          "type": "address"
        },
        {
          "internalType": "uint256",
          "name": "index",
          "type": "uint256"
        }
      ],
      "name": "tokenOfOwnerByIndex",
      "outputs": [
        {
          "internalType": "uint256",
          "name": "",
          "type": "uint256"
        }
      ],
      "stateMutability": "view",
      "type": "function"
    },
    {
      "inputs": [
        {
          "internalType": "uint256",
          "name": "tokenId",
          "type": "uint256"
        }
      ],
      "name": "tokenURI",
      "outputs": [
        {
          "internalType": "string",
          "name": "",
          "type": "string"
        }
      ],
      "stateMutability": "view",
      "type": "function"
    },
    {
      "inputs": [],
      "name": "totalSupply",
      "outputs": [
        {
          "internalType": "uint256",
          "name": "",
          "type": "uint256"
        }
      ],
      "stateMutability": "view",
      "type": "function"
    },
    {
      "inputs": [
        {
          "internalType": "address",
          "name": "from",
          "type": "address"
        },
        {
          "internalType": "address",
          "name": "to",
          "type": "address"
        },
        {
          "internalType": "uint256",
          "name": "tokenId",
          "type": "uint256"
        }
      ],
      "name": "transferFrom",
      "outputs": [],
      "stateMutability": "nonpayable",
      "type": "function"
    }
  ],
  "bytecode": "0x60806040523480156200001157600080fd5b506040516200377b3803806200377b8339818101604052810190620000379190620002c2565b818181600090805190602001906200005192919062000075565b5080600190805190602001906200006a92919062000075565b5050505050620003ac565b828054620000839062000376565b90600052602060002090601f016020900481019282620000a75760008555620000f3565b82601f10620000c257805160ff1916838001178555620000f3565b82800160010185558215620000f3579182015b82811115620000f2578251825591602001919060010190620000d5565b5b50905062000102919062000106565b5090565b5b808211156200012157600081600090555060010162000107565b5090565b6000604051905090565b600080fd5b600080fd5b600080fd5b600080fd5b6000601f19601f8301169050919050565b7f4e487b7100000000000000000000000000000000000000000000000000000000600052604160045260246000fd5b6200018e8262000143565b810181811067ffffffffffffffff82111715620001b057620001af62000154565b5b80604052505050565b6000620001c562000125565b9050620001d3828262000183565b919050565b600067ffffffffffffffff821115620001f657620001f562000154565b5b620002018262000143565b9050602081019050919050565b60005b838110156200022e57808201518184015260208101905062000211565b838111156200023e576000848401525b50505050565b60006200025b6200025584620001d8565b620001b9565b9050828152602081018484840111156200027a57620002796200013e565b5b620002878482856200020e565b509392505050565b600082601f830112620002a757620002a662000139565b5b8151620002b984826020860162000244565b91505092915050565b60008060408385031215620002dc57620002db6200012f565b5b600083015167ffffffffffffffff811115620002fd57620002fc62000134565b5b6200030b858286016200028f565b925050602083015167ffffffffffffffff8111156200032f576200032e62000134565b5b6200033d858286016200028f565b9150509250929050565b7f4e487b7100000000000000000000000000000000000000000000000000000000600052602260045260246000fd5b600060028204905060018216806200038f57607f821691505b60208210811415620003a657620003a562000347565b5b50919050565b6133bf80620003bc6000396000f3fe608060405234801561001057600080fd5b506004361061014d5760003560e01c80634f6ccce7116100c357806395d89b411161007c57806395d89b41146103c0578063a1448194146103de578063a22cb465146103fa578063b88d4fde14610416578063c87b56dd14610432578063e985e9c5146104625761014d565b80634f6ccce7146102da57806355f804b31461030a5780636352211e146103265780636c0360eb1461035657806370a08231146103745780638832e6e3146103a45761014d565b806323b872dd1161011557806323b872dd1461020a5780632f745c591461022657806340c10f191461025657806342842e0e1461027257806342966c681461028e5780634f558e79146102aa5761014d565b806301ffc9a71461015257806306fdde0314610182578063081812fc146101a0578063095ea7b3146101d057806318160ddd146101ec575b600080fd5b61016c600480360381019061016791906120d3565b610492565b604051610179919061211b565b60405180910390f35b61018a61050c565b60405161019791906121cf565b60405180910390f35b6101ba60048036038101906101b59190612227565b61059e565b6040516101c79190612295565b60405180910390f35b6101ea60048036038101906101e591906122dc565b610623565b005b6101f461073b565b604051610201919061232b565b60405180910390f35b610224600480360381019061021f9190612346565b610748565b005b610240600480360381019061023b91906122dc565b6107a8565b60405161024d919061232b565b60405180910390f35b610270600480360381019061026b91906122dc565b61084d565b005b61028c60048036038101906102879190612346565b61085b565b005b6102a860048036038101906102a39190612227565b61087b565b005b6102c460048036038101906102bf9190612227565b610887565b6040516102d1919061211b565b60405180910390f35b6102f460048036038101906102ef9190612227565b610899565b604051610301919061232b565b60405180910390f35b610324600480360381019061031f91906123fe565b61090a565b005b610340600480360381019061033b9190612227565b610920565b60405161034d9190612295565b60405180910390f35b61035e6109d2565b60405161036b91906121cf565b60405180910390f35b61038e6004803603810190610389919061244b565b6109e1565b60405161039b919061232b565b60405180910390f35b6103be60048036038101906103b991906125a8565b610a99565b005b6103c8610aa9565b6040516103d591906121cf565b60405180910390f35b6103f860048036038101906103f391906122dc565b610b3b565b005b610414600480360381019061040f9190612643565b610b49565b005b610430600480360381019061042b9190612683565b610b5f565b005b61044c60048036038101906104479190612227565b610bc1565b60405161045991906121cf565b60405180910390f35b61047c60048036038101906104779190612706565b610c68565b604051610489919061211b565b60405180910390f35b60007f780e9d63000000000000000000000000000000000000000000000000000000007bffffffffffffffffffffffffffffffffffffffffffffffffffffffff1916827bffffffffffffffffffffffffffffffffffffffffffffffffffffffff19161480610505575061050482610cfc565b5b9050919050565b60606000805461051b90612775565b80601f016020809104026020016040519081016040528092919081815260200182805461054790612775565b80156105945780601f1061056957610100808354040283529160200191610594565b820191906000526020600020905b81548152906001019060200180831161057757829003601f168201915b5050505050905090565b60006105a982610dde565b6105e8576040517f08c379a00000000000000000000000000000000000000000000000000000000081526004016105df90612819565b60405180910390fd5b6004600083815260200190815260200160002060009054906101000a900473ffffffffffffffffffffffffffffffffffffffff169050919050565b600061062e82610920565b90508073ffffffffffffffffffffffffffffffffffffffff168373ffffffffffffffffffffffffffffffffffffffff16141561069f576040517f08c379a0000000000000000000000000000000000000000000000000000000008152600401610696906128ab565b60405180910390fd5b8073ffffffffffffffffffffffffffffffffffffffff166106be610e4a565b73ffffffffffffffffffffffffffffffffffffffff1614806106ed57506106ec816106e7610e4a565b610c68565b5b61072c576040517f08c379a00000000000000000000000000000000000000000000000000000000081526004016107239061293d565b60405180910390fd5b6107368383610e52565b505050565b6000600880549050905090565b610759610753610e4a565b82610f0b565b610798576040517f08c379a000000000000000000000000000000000000000000000000000000000815260040161078f906129cf565b60405180910390fd5b6107a3838383610fe9565b505050565b60006107b3836109e1565b82106107f4576040517f08c379a00000000000000000000000000000000000000000000000000000000081526004016107eb90612a61565b60405180910390fd5b600660008473ffffffffffffffffffffffffffffffffffffffff1673ffffffffffffffffffffffffffffffffffffffff168152602001908152602001600020600083815260200190815260200160002054905092915050565b6108578282611250565b5050565b61087683838360405180602001604052806000815250610b5f565b505050565b6108848161142a565b50565b600061089282610dde565b9050919050565b60006108a361073b565b82106108e4576040517f08c379a00000000000000000000000000000000000000000000000000000000081526004016108db90612af3565b60405180910390fd5b600882815481106108f8576108f7612b13565b5b90600052602060002001549050919050565b8181600a919061091b929190611fc4565b505050565b6000806002600084815260200190815260200160002060009054906101000a900473ffffffffffffffffffffffffffffffffffffffff169050600073ffffffffffffffffffffffffffffffffffffffff168173ffffffffffffffffffffffffffffffffffffffff1614156109c9576040517f08c379a00000000000000000000000000000000000000000000000000000000081526004016109c090612bb4565b60405180910390fd5b80915050919050565b60606109dc611547565b905090565b60008073ffffffffffffffffffffffffffffffffffffffff168273ffffffffffffffffffffffffffffffffffffffff161415610a52576040517f08c379a0000000000000000000000000000000000000000000000000000000008152600401610a4990612c46565b60405180910390fd5b600360008373ffffffffffffffffffffffffffffffffffffffff1673ffffffffffffffffffffffffffffffffffffffff168152602001908152602001600020549050919050565b610aa48383836115d9565b505050565b606060018054610ab890612775565b80601f0160208091040260200160405190810160405280929190818152602001828054610ae490612775565b8015610b315780601f10610b0657610100808354040283529160200191610b31565b820191906000526020600020905b815481529060010190602001808311610b1457829003601f168201915b5050505050905090565b610b458282611634565b5050565b610b5b610b54610e4a565b8383611652565b5050565b610b70610b6a610e4a565b83610f0b565b610baf576040517f08c379a0000000000000000000000000000000000000000000000000000000008152600401610ba6906129cf565b60405180910390fd5b610bbb848484846117bf565b50505050565b6060610bcc82610dde565b610c0b576040517f08c379a0000000000000000000000000000000000000000000000000000000008152600401610c0290612cd8565b60405180910390fd5b6000610c15611547565b90506000815111610c355760405180602001604052806000815250610c60565b80610c3f8461181b565b604051602001610c50929190612d34565b6040516020818303038152906040525b915050919050565b6000600560008473ffffffffffffffffffffffffffffffffffffffff1673ffffffffffffffffffffffffffffffffffffffff16815260200190815260200160002060008373ffffffffffffffffffffffffffffffffffffffff1673ffffffffffffffffffffffffffffffffffffffff16815260200190815260200160002060009054906101000a900460ff16905092915050565b60007f80ac58cd000000000000000000000000000000000000000000000000000000007bffffffffffffffffffffffffffffffffffffffffffffffffffffffff1916827bffffffffffffffffffffffffffffffffffffffffffffffffffffffff19161480610dc757507f5b5e139f000000000000000000000000000000000000000000000000000000007bffffffffffffffffffffffffffffffffffffffffffffffffffffffff1916827bffffffffffffffffffffffffffffffffffffffffffffffffffffffff1916145b80610dd75750610dd68261197c565b5b9050919050565b60008073ffffffffffffffffffffffffffffffffffffffff166002600084815260200190815260200160002060009054906101000a900473ffffffffffffffffffffffffffffffffffffffff1673ffffffffffffffffffffffffffffffffffffffff1614159050919050565b600033905090565b816004600083815260200190815260200160002060006101000a81548173ffffffffffffffffffffffffffffffffffffffff021916908373ffffffffffffffffffffffffffffffffffffffff160217905550808273ffffffffffffffffffffffffffffffffffffffff16610ec583610920565b73ffffffffffffffffffffffffffffffffffffffff167f8c5be1e5ebec7d5bd14f71427d1e84f3dd0314c0f7b2291e5b200ac8c7c3b92560405160405180910390a45050565b6000610f1682610dde565b610f55576040517f08c379a0000000000000000000000000000000000000000000000000000000008152600401610f4c90612dca565b60405180910390fd5b6000610f6083610920565b90508073ffffffffffffffffffffffffffffffffffffffff168473ffffffffffffffffffffffffffffffffffffffff161480610fcf57508373ffffffffffffffffffffffffffffffffffffffff16610fb78461059e565b73ffffffffffffffffffffffffffffffffffffffff16145b80610fe05750610fdf8185610c68565b5b91505092915050565b8273ffffffffffffffffffffffffffffffffffffffff1661100982610920565b73ffffffffffffffffffffffffffffffffffffffff161461105f576040517f08c379a000000000000000000000000000000000000000000000000000000000815260040161105690612e5c565b60405180910390fd5b600073ffffffffffffffffffffffffffffffffffffffff168273ffffffffffffffffffffffffffffffffffffffff1614156110cf576040517f08c379a00000000000000000000000000000000000000000000000000000000081526004016110c690612eee565b60405180910390fd5b6110da8383836119e6565b6110e5600082610e52565b6001600360008573ffffffffffffffffffffffffffffffffffffffff1673ffffffffffffffffffffffffffffffffffffffff16815260200190815260200160002060008282546111359190612f3d565b925050819055506001600360008473ffffffffffffffffffffffffffffffffffffffff1673ffffffffffffffffffffffffffffffffffffffff168152602001908152602001600020600082825461118c9190612f71565b92505081905550816002600083815260200190815260200160002060006101000a81548173ffffffffffffffffffffffffffffffffffffffff021916908373ffffffffffffffffffffffffffffffffffffffff160217905550808273ffffffffffffffffffffffffffffffffffffffff168473ffffffffffffffffffffffffffffffffffffffff167fddf252ad1be2c89b69c2b068fc378daa952ba7f163c4a11628f55a4df523b3ef60405160405180910390a461124b838383611afa565b505050565b600073ffffffffffffffffffffffffffffffffffffffff168273ffffffffffffffffffffffffffffffffffffffff1614156112c0576040517f08c379a00000000000000000000000000000000000000000000000000000000081526004016112b790613013565b60405180910390fd5b6112c981610dde565b15611309576040517f08c379a00000000000000000000000000000000000000000000000000000000081526004016113009061307f565b60405180910390fd5b611315600083836119e6565b6001600360008473ffffffffffffffffffffffffffffffffffffffff1673ffffffffffffffffffffffffffffffffffffffff16815260200190815260200160002060008282546113659190612f71565b92505081905550816002600083815260200190815260200160002060006101000a81548173ffffffffffffffffffffffffffffffffffffffff021916908373ffffffffffffffffffffffffffffffffffffffff160217905550808273ffffffffffffffffffffffffffffffffffffffff16600073ffffffffffffffffffffffffffffffffffffffff167fddf252ad1be2c89b69c2b068fc378daa952ba7f163c4a11628f55a4df523b3ef60405160405180910390a461142660008383611afa565b5050565b600061143582610920565b9050611443816000846119e6565b61144e600083610e52565b6001600360008373ffffffffffffffffffffffffffffffffffffffff1673ffffffffffffffffffffffffffffffffffffffff168152602001908152602001600020600082825461149e9190612f3d565b925050819055506002600083815260200190815260200160002060006101000a81549073ffffffffffffffffffffffffffffffffffffffff021916905581600073ffffffffffffffffffffffffffffffffffffffff168273ffffffffffffffffffffffffffffffffffffffff167fddf252ad1be2c89b69c2b068fc378daa952ba7f163c4a11628f55a4df523b3ef60405160405180910390a461154381600084611afa565b5050565b6060600a805461155690612775565b80601f016020809104026020016040519081016040528092919081815260200182805461158290612775565b80156115cf5780601f106115a4576101008083540402835291602001916115cf565b820191906000526020600020905b8154815290600101906020018083116115b257829003601f168201915b5050505050905090565b6115e38383611250565b6115f06000848484611aff565b61162f576040517f08c379a000000000000000000000000000000000000000000000000000000000815260040161162690613111565b60405180910390fd5b505050565b61164e8282604051806020016040528060008152506115d9565b5050565b8173ffffffffffffffffffffffffffffffffffffffff168373ffffffffffffffffffffffffffffffffffffffff1614156116c1576040517f08c379a00000000000000000000000000000000000000000000000000000000081526004016116b89061317d565b60405180910390fd5b80600560008573ffffffffffffffffffffffffffffffffffffffff1673ffffffffffffffffffffffffffffffffffffffff16815260200190815260200160002060008473ffffffffffffffffffffffffffffffffffffffff1673ffffffffffffffffffffffffffffffffffffffff16815260200190815260200160002060006101000a81548160ff0219169083151502179055508173ffffffffffffffffffffffffffffffffffffffff168373ffffffffffffffffffffffffffffffffffffffff167f17307eab39ab6107e8899845ad3d59bd9653f200f220920489ca2b5937696c31836040516117b2919061211b565b60405180910390a3505050565b6117ca848484610fe9565b6117d684848484611aff565b611815576040517f08c379a000000000000000000000000000000000000000000000000000000000815260040161180c90613111565b60405180910390fd5b50505050565b60606000821415611863576040518060400160405280600181526020017f30000000000000000000000000000000000000000000000000000000000000008152509050611977565b600082905060005b6000821461189557808061187e9061319d565b915050600a8261188e9190613215565b915061186b565b60008167ffffffffffffffff8111156118b1576118b061247d565b5b6040519080825280601f01601f1916602001820160405280156118e35781602001600182028036833780820191505090505b5090505b60008514611970576001826118fc9190612f3d565b9150600a8561190b9190613246565b60306119179190612f71565b60f81b81838151811061192d5761192c612b13565b5b60200101907effffffffffffffffffffffffffffffffffffffffffffffffffffffffffffff1916908160001a905350600a856119699190613215565b94506118e7565b8093505050505b919050565b60007f01ffc9a7000000000000000000000000000000000000000000000000000000007bffffffffffffffffffffffffffffffffffffffffffffffffffffffff1916827bffffffffffffffffffffffffffffffffffffffffffffffffffffffff1916149050919050565b6119f1838383611c96565b600073ffffffffffffffffffffffffffffffffffffffff168373ffffffffffffffffffffffffffffffffffffffff161415611a3457611a2f81611c9b565b611a73565b8173ffffffffffffffffffffffffffffffffffffffff168373ffffffffffffffffffffffffffffffffffffffff1614611a7257611a718382611ce4565b5b5b600073ffffffffffffffffffffffffffffffffffffffff168273ffffffffffffffffffffffffffffffffffffffff161415611ab657611ab181611e51565b611af5565b8273ffffffffffffffffffffffffffffffffffffffff168273ffffffffffffffffffffffffffffffffffffffff1614611af457611af38282611f22565b5b5b505050565b505050565b6000611b208473ffffffffffffffffffffffffffffffffffffffff16611fa1565b15611c89578373ffffffffffffffffffffffffffffffffffffffff1663150b7a02611b49610e4a565b8786866040518563ffffffff1660e01b8152600401611b6b94939291906132cc565b602060405180830381600087803b158015611b8557600080fd5b505af1925050508015611bb657506040513d601f19601f82011682018060405250810190611bb3919061332d565b60015b611c39573d8060008114611be6576040519150601f19603f3d011682016040523d82523d6000602084013e611beb565b606091505b50600081511415611c31576040517f08c379a0000000000000000000000000000000000000000000000000000000008152600401611c2890613111565b60405180910390fd5b805181602001fd5b63150b7a0260e01b7bffffffffffffffffffffffffffffffffffffffffffffffffffffffff1916817bffffffffffffffffffffffffffffffffffffffffffffffffffffffff191614915050611c8e565b600190505b949350505050565b505050565b6008805490506009600083815260200190815260200160002081905550600881908060018154018082558091505060019003906000526020600020016000909190919091505550565b60006001611cf1846109e1565b611cfb9190612f3d565b9050600060076000848152602001908152602001600020549050818114611de0576000600660008673ffffffffffffffffffffffffffffffffffffffff1673ffffffffffffffffffffffffffffffffffffffff168152602001908152602001600020600084815260200190815260200160002054905080600660008773ffffffffffffffffffffffffffffffffffffffff1673ffffffffffffffffffffffffffffffffffffffff168152602001908152602001600020600084815260200190815260200160002081905550816007600083815260200190815260200160002081905550505b6007600084815260200190815260200160002060009055600660008573ffffffffffffffffffffffffffffffffffffffff1673ffffffffffffffffffffffffffffffffffffffff16815260200190815260200160002060008381526020019081526020016000206000905550505050565b60006001600880549050611e659190612f3d565b9050600060096000848152602001908152602001600020549050600060088381548110611e9557611e94612b13565b5b906000526020600020015490508060088381548110611eb757611eb6612b13565b5b906000526020600020018190555081600960008381526020019081526020016000208190555060096000858152602001908152602001600020600090556008805480611f0657611f0561335a565b5b6001900381819060005260206000200160009055905550505050565b6000611f2d836109e1565b905081600660008573ffffffffffffffffffffffffffffffffffffffff1673ffffffffffffffffffffffffffffffffffffffff168152602001908152602001600020600083815260200190815260200160002081905550806007600084815260200190815260200160002081905550505050565b6000808273ffffffffffffffffffffffffffffffffffffffff163b119050919050565b828054611fd090612775565b90600052602060002090601f016020900481019282611ff25760008555612039565b82601f1061200b57803560ff1916838001178555612039565b82800160010185558215612039579182015b8281111561203857823582559160200191906001019061201d565b5b509050612046919061204a565b5090565b5b8082111561206357600081600090555060010161204b565b5090565b6000604051905090565b600080fd5b600080fd5b60007fffffffff0000000000000000000000000000000000000000000000000000000082169050919050565b6120b08161207b565b81146120bb57600080fd5b50565b6000813590506120cd816120a7565b92915050565b6000602082840312156120e9576120e8612071565b5b60006120f7848285016120be565b91505092915050565b60008115159050919050565b61211581612100565b82525050565b6000602082019050612130600083018461210c565b92915050565b600081519050919050565b600082825260208201905092915050565b60005b83811015612170578082015181840152602081019050612155565b8381111561217f576000848401525b50505050565b6000601f19601f8301169050919050565b60006121a182612136565b6121ab8185612141565b93506121bb818560208601612152565b6121c481612185565b840191505092915050565b600060208201905081810360008301526121e98184612196565b905092915050565b6000819050919050565b612204816121f1565b811461220f57600080fd5b50565b600081359050612221816121fb565b92915050565b60006020828403121561223d5761223c612071565b5b600061224b84828501612212565b91505092915050565b600073ffffffffffffffffffffffffffffffffffffffff82169050919050565b600061227f82612254565b9050919050565b61228f81612274565b82525050565b60006020820190506122aa6000830184612286565b92915050565b6122b981612274565b81146122c457600080fd5b50565b6000813590506122d6816122b0565b92915050565b600080604083850312156122f3576122f2612071565b5b6000612301858286016122c7565b925050602061231285828601612212565b9150509250929050565b612325816121f1565b82525050565b6000602082019050612340600083018461231c565b92915050565b60008060006060848603121561235f5761235e612071565b5b600061236d868287016122c7565b935050602061237e868287016122c7565b925050604061238f86828701612212565b9150509250925092565b600080fd5b600080fd5b600080fd5b60008083601f8401126123be576123bd612399565b5b8235905067ffffffffffffffff8111156123db576123da61239e565b5b6020830191508360018202830111156123f7576123f66123a3565b5b9250929050565b6000806020838503121561241557612414612071565b5b600083013567ffffffffffffffff81111561243357612432612076565b5b61243f858286016123a8565b92509250509250929050565b60006020828403121561246157612460612071565b5b600061246f848285016122c7565b91505092915050565b600080fd5b7f4e487b7100000000000000000000000000000000000000000000000000000000600052604160045260246000fd5b6124b582612185565b810181811067ffffffffffffffff821117156124d4576124d361247d565b5b80604052505050565b60006124e7612067565b90506124f382826124ac565b919050565b600067ffffffffffffffff8211156125135761251261247d565b5b61251c82612185565b9050602081019050919050565b82818337600083830152505050565b600061254b612546846124f8565b6124dd565b90508281526020810184848401111561256757612566612478565b5b612572848285612529565b509392505050565b600082601f83011261258f5761258e612399565b5b813561259f848260208601612538565b91505092915050565b6000806000606084860312156125c1576125c0612071565b5b60006125cf868287016122c7565b93505060206125e086828701612212565b925050604084013567ffffffffffffffff81111561260157612600612076565b5b61260d8682870161257a565b9150509250925092565b61262081612100565b811461262b57600080fd5b50565b60008135905061263d81612617565b92915050565b6000806040838503121561265a57612659612071565b5b6000612668858286016122c7565b92505060206126798582860161262e565b9150509250929050565b6000806000806080858703121561269d5761269c612071565b5b60006126ab878288016122c7565b94505060206126bc878288016122c7565b93505060406126cd87828801612212565b925050606085013567ffffffffffffffff8111156126ee576126ed612076565b5b6126fa8782880161257a565b91505092959194509250565b6000806040838503121561271d5761271c612071565b5b600061272b858286016122c7565b925050602061273c858286016122c7565b9150509250929050565b7f4e487b7100000000000000000000000000000000000000000000000000000000600052602260045260246000fd5b6000600282049050600182168061278d57607f821691505b602082108114156127a1576127a0612746565b5b50919050565b7f4552433732313a20617070726f76656420717565727920666f72206e6f6e657860008201527f697374656e7420746f6b656e0000000000000000000000000000000000000000602082015250565b6000612803602c83612141565b915061280e826127a7565b604082019050919050565b60006020820190508181036000830152612832816127f6565b9050919050565b7f4552433732313a20617070726f76616c20746f2063757272656e74206f776e6560008201527f7200000000000000000000000000000000000000000000000000000000000000602082015250565b6000612895602183612141565b91506128a082612839565b604082019050919050565b600060208201905081810360008301526128c481612888565b9050919050565b7f4552433732313a20617070726f76652063616c6c6572206973206e6f74206f7760008201527f6e6572206e6f7220617070726f76656420666f7220616c6c0000000000000000602082015250565b6000612927603883612141565b9150612932826128cb565b604082019050919050565b600060208201905081810360008301526129568161291a565b9050919050565b7f4552433732313a207472616e736665722063616c6c6572206973206e6f74206f60008201527f776e6572206e6f7220617070726f766564000000000000000000000000000000602082015250565b60006129b9603183612141565b91506129c48261295d565b604082019050919050565b600060208201905081810360008301526129e8816129ac565b9050919050565b7f455243373231456e756d657261626c653a206f776e657220696e646578206f7560008201527f74206f6620626f756e6473000000000000000000000000000000000000000000602082015250565b6000612a4b602b83612141565b9150612a56826129ef565b604082019050919050565b60006020820190508181036000830152612a7a81612a3e565b9050919050565b7f455243373231456e756d657261626c653a20676c6f62616c20696e646578206f60008201527f7574206f6620626f756e64730000000000000000000000000000000000000000602082015250565b6000612add602c83612141565b9150612ae882612a81565b604082019050919050565b60006020820190508181036000830152612b0c81612ad0565b9050919050565b7f4e487b7100000000000000000000000000000000000000000000000000000000600052603260045260246000fd5b7f4552433732313a206f776e657220717565727920666f72206e6f6e657869737460008201527f656e7420746f6b656e0000000000000000000000000000000000000000000000602082015250565b6000612b9e602983612141565b9150612ba982612b42565b604082019050919050565b60006020820190508181036000830152612bcd81612b91565b9050919050565b7f4552433732313a2062616c616e636520717565727920666f7220746865207a6560008201527f726f206164647265737300000000000000000000000000000000000000000000602082015250565b6000612c30602a83612141565b9150612c3b82612bd4565b604082019050919050565b60006020820190508181036000830152612c5f81612c23565b9050919050565b7f4552433732314d657461646174613a2055524920717565727920666f72206e6f60008201527f6e6578697374656e7420746f6b656e0000000000000000000000000000000000602082015250565b6000612cc2602f83612141565b9150612ccd82612c66565b604082019050919050565b60006020820190508181036000830152612cf181612cb5565b9050919050565b600081905092915050565b6000612d0e82612136565b612d188185612cf8565b9350612d28818560208601612152565b80840191505092915050565b6000612d408285612d03565b9150612d4c8284612d03565b91508190509392505050565b7f4552433732313a206f70657261746f7220717565727920666f72206e6f6e657860008201527f697374656e7420746f6b656e0000000000000000000000000000000000000000602082015250565b6000612db4602c83612141565b9150612dbf82612d58565b604082019050919050565b60006020820190508181036000830152612de381612da7565b9050919050565b7f4552433732313a207472616e736665722066726f6d20696e636f72726563742060008201527f6f776e6572000000000000000000000000000000000000000000000000000000602082015250565b6000612e46602583612141565b9150612e5182612dea565b604082019050919050565b60006020820190508181036000830152612e7581612e39565b9050919050565b7f4552433732313a207472616e7366657220746f20746865207a65726f2061646460008201527f7265737300000000000000000000000000000000000000000000000000000000602082015250565b6000612ed8602483612141565b9150612ee382612e7c565b604082019050919050565b60006020820190508181036000830152612f0781612ecb565b9050919050565b7f4e487b7100000000000000000000000000000000000000000000000000000000600052601160045260246000fd5b6000612f48826121f1565b9150612f53836121f1565b925082821015612f6657612f65612f0e565b5b828203905092915050565b6000612f7c826121f1565b9150612f87836121f1565b9250827fffffffffffffffffffffffffffffffffffffffffffffffffffffffffffffffff03821115612fbc57612fbb612f0e565b5b828201905092915050565b7f4552433732313a206d696e7420746f20746865207a65726f2061646472657373600082015250565b6000612ffd602083612141565b915061300882612fc7565b602082019050919050565b6000602082019050818103600083015261302c81612ff0565b9050919050565b7f4552433732313a20746f6b656e20616c7265616479206d696e74656400000000600082015250565b6000613069601c83612141565b915061307482613033565b602082019050919050565b600060208201905081810360008301526130988161305c565b9050919050565b7f4552433732313a207472616e7366657220746f206e6f6e20455243373231526560008201527f63656976657220696d706c656d656e7465720000000000000000000000000000602082015250565b60006130fb603283612141565b91506131068261309f565b604082019050919050565b6000602082019050818103600083015261312a816130ee565b9050919050565b7f4552433732313a20617070726f766520746f2063616c6c657200000000000000600082015250565b6000613167601983612141565b915061317282613131565b602082019050919050565b600060208201905081810360008301526131968161315a565b9050919050565b60006131a8826121f1565b91507fffffffffffffffffffffffffffffffffffffffffffffffffffffffffffffffff8214156131db576131da612f0e565b5b600182019050919050565b7f4e487b7100000000000000000000000000000000000000000000000000000000600052601260045260246000fd5b6000613220826121f1565b915061322b836121f1565b92508261323b5761323a6131e6565b5b828204905092915050565b6000613251826121f1565b915061325c836121f1565b92508261326c5761326b6131e6565b5b828206905092915050565b600081519050919050565b600082825260208201905092915050565b600061329e82613277565b6132a88185613282565b93506132b8818560208601612152565b6132c181612185565b840191505092915050565b60006080820190506132e16000830187612286565b6132ee6020830186612286565b6132fb604083018561231c565b818103606083015261330d8184613293565b905095945050505050565b600081519050613327816120a7565b92915050565b60006020828403121561334357613342612071565b5b600061335184828501613318565b91505092915050565b7f4e487b7100000000000000000000000000000000000000000000000000000000600052603160045260246000fdfea2646970667358221220c657d4e383b9826b7b3be585b415285746fac3cd4f2ffa413340fbbe855a7e2e64736f6c63430008090033",
  "linkReferences": {},
  "deployedLinkReferences": {}
}