{
  "_format": "hh-sol-artifact-1",
  "contractName": "StringReturn",
  "sourceName": "contracts/proxy/mocks/StringReturn.sol",
  "abi": [
    {
      "inputs": [
        {
          "internalType": "string",
          "name": "text",
          "type": "string"
        }
      ],
      "name": "reflect",
      "outputs": [
        {
          "internalType": "string",
          "name": "",
          "type": "string"
        }
      ],
      "stateMutability": "pure",
      "type": "function"
    }
  ],
  "bytecode": "0x608060405234801561001057600080fd5b50610184806100206000396000f3fe608060405234801561001057600080fd5b506004361061002b5760003560e01c8063c1ce53fc14610030575b600080fd5b6100d66004803603602081101561004657600080fd5b81019060208101813564010000000081111561006157600080fd5b82018360208201111561007357600080fd5b8035906020019184600183028401116401000000008311171561009557600080fd5b91908080601f01602080910402602001604051908101604052809392919081815260200183838082843760009201919091525092955061014b945050505050565b6040805160208082528351818301528351919283929083019185019080838360005b838110156101105781810151838201526020016100f8565b50505050905090810190601f16801561013d5780820380516001836020036101000a031916815260200191505b509250505060405180910390f35b9056fea26469706673582212209fd01f28c1a728cffb61c0c09aed002ef1b816fe0cce4edd87268a6fe48e8af064736f6c634300060a0033",
  "linkReferences": {},
  "deployedLinkReferences": {}
}