{
  "_format": "hh-sol-artifact-1",
  "contractName": "MockCurveGauge",
  "sourceName": "contracts/truefi/mocks/MockCurveGauge.sol",
  "abi": [
    {
      "inputs": [],
      "name": "minter",
      "outputs": [
        {
          "internalType": "address",
          "name": "",
          "type": "address"
        }
      ],
      "stateMutability": "pure",
      "type": "function"
    }
  ],
  "bytecode": "0x6080604052348015600f57600080fd5b5060978061001e6000396000f3fe6080604052348015600f57600080fd5b506004361060285760003560e01c80630754617214602d575b600080fd5b6033605c565b6040805173ffffffffffffffffffffffffffffffffffffffff9092168252519081900360200190f35b60009056fea2646970667358221220a38c73fe20e5b7dffa0beaaf0ecd2cacb4c8fd50380d3f3b147ca9860062be3364736f6c634300060a0033",
  "linkReferences": {},
  "deployedLinkReferences": {}
}