{
  "_format": "hh-sol-artifact-1",
  "contractName": "MockERC20Token",
  "sourceName": "contracts/trusttoken/mocks/MockERC20Token.sol",
  "abi": [
    {
      "anonymous": false,
      "inputs": [
        {
          "indexed": true,
          "internalType": "address",
          "name": "owner",
          "type": "address"
        },
        {
          "indexed": true,
          "internalType": "address",
          "name": "spender",
          "type": "address"
        },
        {
          "indexed": false,
          "internalType": "uint256",
          "name": "value",
          "type": "uint256"
        }
      ],
      "name": "Approval",
      "type": "event"
    },
    {
      "anonymous": false,
      "inputs": [
        {
          "indexed": true,
          "internalType": "address",
          "name": "from",
          "type": "address"
        },
        {
          "indexed": true,
          "internalType": "address",
          "name": "to",
          "type": "address"
        },
        {
          "indexed": false,
          "internalType": "uint256",
          "name": "value",
          "type": "uint256"
        }
      ],
      "name": "Transfer",
      "type": "event"
    },
    {
      "inputs": [
        {
          "internalType": "address",
          "name": "",
          "type": "address"
        },
        {
          "internalType": "address",
          "name": "",
          "type": "address"
        }
      ],
      "name": "allowance",
      "outputs": [
        {
          "internalType": "uint256",
          "name": "",
          "type": "uint256"
        }
      ],
      "stateMutability": "view",
      "type": "function"
    },
    {
      "inputs": [
        {
          "internalType": "address",
          "name": "spender",
          "type": "address"
        },
        {
          "internalType": "uint256",
          "name": "amount",
          "type": "uint256"
        }
      ],
      "name": "approve",
      "outputs": [
        {
          "internalType": "bool",
          "name": "",
          "type": "bool"
        }
      ],
      "stateMutability": "nonpayable",
      "type": "function"
    },
    {
      "inputs": [
        {
          "internalType": "address",
          "name": "",
          "type": "address"
        }
      ],
      "name": "balanceOf",
      "outputs": [
        {
          "internalType": "uint256",
          "name": "",
          "type": "uint256"
        }
      ],
      "stateMutability": "view",
      "type": "function"
    },
    {
      "inputs": [
        {
          "internalType": "uint256",
          "name": "_value",
          "type": "uint256"
        }
      ],
      "name": "burn",
      "outputs": [],
      "stateMutability": "nonpayable",
      "type": "function"
    },
    {
      "inputs": [
        {
          "internalType": "address",
          "name": "",
          "type": "address"
        },
        {
          "internalType": "uint32",
          "name": "",
          "type": "uint32"
        }
      ],
      "name": "checkpoints",
      "outputs": [
        {
          "internalType": "uint32",
          "name": "fromBlock",
          "type": "uint32"
        },
        {
          "internalType": "uint96",
          "name": "votes",
          "type": "uint96"
        }
      ],
      "stateMutability": "view",
      "type": "function"
    },
    {
      "inputs": [],
      "name": "decimals",
      "outputs": [
        {
          "internalType": "uint8",
          "name": "",
          "type": "uint8"
        }
      ],
      "stateMutability": "pure",
      "type": "function"
    },
    {
      "inputs": [
        {
          "internalType": "address",
          "name": "spender",
          "type": "address"
        },
        {
          "internalType": "uint256",
          "name": "subtractedValue",
          "type": "uint256"
        }
      ],
      "name": "decreaseAllowance",
      "outputs": [
        {
          "internalType": "bool",
          "name": "",
          "type": "bool"
        }
      ],
      "stateMutability": "nonpayable",
      "type": "function"
    },
    {
      "inputs": [
        {
          "internalType": "address",
          "name": "",
          "type": "address"
        }
      ],
      "name": "delegates",
      "outputs": [
        {
          "internalType": "address",
          "name": "",
          "type": "address"
        }
      ],
      "stateMutability": "view",
      "type": "function"
    },
    {
      "inputs": [
        {
          "internalType": "address",
          "name": "spender",
          "type": "address"
        },
        {
          "internalType": "uint256",
          "name": "addedValue",
          "type": "uint256"
        }
      ],
      "name": "increaseAllowance",
      "outputs": [
        {
          "internalType": "bool",
          "name": "",
          "type": "bool"
        }
      ],
      "stateMutability": "nonpayable",
      "type": "function"
    },
    {
      "inputs": [
        {
          "internalType": "address",
          "name": "_to",
          "type": "address"
        },
        {
          "internalType": "uint256",
          "name": "_value",
          "type": "uint256"
        }
      ],
      "name": "mint",
      "outputs": [],
      "stateMutability": "nonpayable",
      "type": "function"
    },
    {
      "inputs": [],
      "name": "name",
      "outputs": [
        {
          "internalType": "string",
          "name": "",
          "type": "string"
        }
      ],
      "stateMutability": "pure",
      "type": "function"
    },
    {
      "inputs": [
        {
          "internalType": "address",
          "name": "",
          "type": "address"
        }
      ],
      "name": "nonces",
      "outputs": [
        {
          "internalType": "uint256",
          "name": "",
          "type": "uint256"
        }
      ],
      "stateMutability": "view",
      "type": "function"
    },
    {
      "inputs": [
        {
          "internalType": "address",
          "name": "",
          "type": "address"
        }
      ],
      "name": "numCheckpoints",
      "outputs": [
        {
          "internalType": "uint32",
          "name": "",
          "type": "uint32"
        }
      ],
      "stateMutability": "view",
      "type": "function"
    },
    {
      "inputs": [],
      "name": "registry",
      "outputs": [
        {
          "internalType": "contract Registry",
          "name": "",
          "type": "address"
        }
      ],
      "stateMutability": "view",
      "type": "function"
    },
    {
      "inputs": [],
      "name": "returnsLocked",
      "outputs": [
        {
          "internalType": "bool",
          "name": "",
          "type": "bool"
        }
      ],
      "stateMutability": "view",
      "type": "function"
    },
    {
      "inputs": [],
      "name": "rounding",
      "outputs": [
        {
          "internalType": "uint8",
          "name": "",
          "type": "uint8"
        }
      ],
      "stateMutability": "pure",
      "type": "function"
    },
    {
      "inputs": [
        {
          "internalType": "contract Registry",
          "name": "_registry",
          "type": "address"
        }
      ],
      "name": "setRegistry",
      "outputs": [],
      "stateMutability": "nonpayable",
      "type": "function"
    },
    {
      "inputs": [],
      "name": "symbol",
      "outputs": [
        {
          "internalType": "string",
          "name": "",
          "type": "string"
        }
      ],
      "stateMutability": "pure",
      "type": "function"
    },
    {
      "inputs": [],
      "name": "timeLockRegistry",
      "outputs": [
        {
          "internalType": "address",
          "name": "",
          "type": "address"
        }
      ],
      "stateMutability": "view",
      "type": "function"
    },
    {
      "inputs": [],
      "name": "totalSupply",
      "outputs": [
        {
          "internalType": "uint256",
          "name": "",
          "type": "uint256"
        }
      ],
      "stateMutability": "view",
      "type": "function"
    },
    {
      "inputs": [
        {
          "internalType": "address",
          "name": "recipient",
          "type": "address"
        },
        {
          "internalType": "uint256",
          "name": "amount",
          "type": "uint256"
        }
      ],
      "name": "transfer",
      "outputs": [
        {
          "internalType": "bool",
          "name": "",
          "type": "bool"
        }
      ],
      "stateMutability": "nonpayable",
      "type": "function"
    },
    {
      "inputs": [
        {
          "internalType": "address",
          "name": "sender",
          "type": "address"
        },
        {
          "internalType": "address",
          "name": "recipient",
          "type": "address"
        },
        {
          "internalType": "uint256",
          "name": "amount",
          "type": "uint256"
        }
      ],
      "name": "transferFrom",
      "outputs": [
        {
          "internalType": "bool",
          "name": "",
          "type": "bool"
        }
      ],
      "stateMutability": "nonpayable",
      "type": "function"
    }
  ],
  "bytecode": "0x608060405234801561001057600080fd5b50611268806100206000396000f3fe608060405234801561001057600080fd5b50600436106101825760003560e01c8063587cde1e116100d857806395d89b411161008c578063a91ee0dc11610066578063a91ee0dc14610505578063dd62ed3e14610538578063f1127ed81461057357610182565b806395d89b411461048b578063a457c2d714610493578063a9059cbb146104cc57610182565b806370a08231116100bd57806370a082311461041d5780637b103999146104505780637ecebe001461045857610182565b8063587cde1e1461039e5780636fcfff45146103d157610182565b80632e4404031161013a5780633950935111610114578063395093511461030d57806340c10f191461034657806342966c681461038157610182565b80632e440403146102df578063313ce567146102fd578063335f57531461030557610182565b806318160ddd1161016b57806318160ddd14610251578063238189a81461026b57806323b872dd1461029c57610182565b806306fdde0314610187578063095ea7b314610204575b600080fd5b61018f6105df565b6040805160208082528351818301528351919283929083019185019080838360005b838110156101c95781810151838201526020016101b1565b50505050905090810190601f1680156101f65780820380516001836020036101000a031916815260200191505b509250505060405180910390f35b61023d6004803603604081101561021a57600080fd5b5073ffffffffffffffffffffffffffffffffffffffff8135169060200135610616565b604080519115158252519081900360200190f35b610259610633565b60408051918252519081900360200190f35b610273610639565b6040805173ffffffffffffffffffffffffffffffffffffffff9092168252519081900360200190f35b61023d600480360360608110156102b257600080fd5b5073ffffffffffffffffffffffffffffffffffffffff813581169160208101359091169060400135610655565b6102e76106fc565b6040805160ff9092168252519081900360200190f35b6102e7610701565b61023d610706565b61023d6004803603604081101561032357600080fd5b5073ffffffffffffffffffffffffffffffffffffffff8135169060200135610727565b61037f6004803603604081101561035c57600080fd5b5073ffffffffffffffffffffffffffffffffffffffff8135169060200135610788565b005b61037f6004803603602081101561039757600080fd5b5035610796565b610273600480360360208110156103b457600080fd5b503573ffffffffffffffffffffffffffffffffffffffff166107a3565b610404600480360360208110156103e757600080fd5b503573ffffffffffffffffffffffffffffffffffffffff166107cb565b6040805163ffffffff9092168252519081900360200190f35b6102596004803603602081101561043357600080fd5b503573ffffffffffffffffffffffffffffffffffffffff166107e3565b6102736107f5565b6102596004803603602081101561046e57600080fd5b503573ffffffffffffffffffffffffffffffffffffffff16610811565b61018f610823565b61023d600480360360408110156104a957600080fd5b5073ffffffffffffffffffffffffffffffffffffffff813516906020013561085a565b61023d600480360360408110156104e257600080fd5b5073ffffffffffffffffffffffffffffffffffffffff81351690602001356108d5565b61037f6004803603602081101561051b57600080fd5b503573ffffffffffffffffffffffffffffffffffffffff166108e9565b6102596004803603604081101561054e57600080fd5b5073ffffffffffffffffffffffffffffffffffffffff81358116916020013516610930565b6105b26004803603604081101561058957600080fd5b50803573ffffffffffffffffffffffffffffffffffffffff16906020013563ffffffff1661094d565b6040805163ffffffff90931683526bffffffffffffffffffffffff90911660208301528051918290030190f35b60408051808201909152600781527f5472756555534400000000000000000000000000000000000000000000000000602082015290565b600061062a610623610988565b848461098c565b50600192915050565b60015481565b60085473ffffffffffffffffffffffffffffffffffffffff1681565b6000610662848484610ad3565b6106f28461066e610988565b6106ed8560405180606001604052806028815260200161117c6028913973ffffffffffffffffffffffffffffffffffffffff8a166000908152600360205260408120906106b9610988565b73ffffffffffffffffffffffffffffffffffffffff168152602081019190915260400160002054919063ffffffff610cb116565b61098c565b5060019392505050565b600290565b601290565b60085474010000000000000000000000000000000000000000900460ff1681565b600061062a610734610988565b846106ed8560036000610745610988565b73ffffffffffffffffffffffffffffffffffffffff908116825260208083019390935260409182016000908120918c16815292529020549063ffffffff610d6216565b6107928282610ddd565b5050565b6107a03382610f1c565b50565b60096020526000908152604090205473ffffffffffffffffffffffffffffffffffffffff1681565b600b6020526000908152604090205463ffffffff1681565b60026020526000908152604090205481565b600d5473ffffffffffffffffffffffffffffffffffffffff1690565b600c6020526000908152604090205481565b60408051808201909152600481527f5455534400000000000000000000000000000000000000000000000000000000602082015290565b600061062a610867610988565b846106ed8560405180606001604052806025815260200161120e6025913960036000610891610988565b73ffffffffffffffffffffffffffffffffffffffff908116825260208083019390935260409182016000908120918d1681529252902054919063ffffffff610cb116565b600061062a6108e2610988565b8484610ad3565b600d80547fffffffffffffffffffffffff00000000000000000000000000000000000000001673ffffffffffffffffffffffffffffffffffffffff92909216919091179055565b600360209081526000928352604080842090915290825290205481565b600a60209081526000928352604080842090915290825290205463ffffffff81169064010000000090046bffffffffffffffffffffffff1682565b3390565b73ffffffffffffffffffffffffffffffffffffffff83166109f8576040517f08c379a00000000000000000000000000000000000000000000000000000000081526004018080602001828103825260248152602001806111ea6024913960400191505060405180910390fd5b73ffffffffffffffffffffffffffffffffffffffff8216610a64576040517f08c379a00000000000000000000000000000000000000000000000000000000081526004018080602001828103825260228152602001806111346022913960400191505060405180910390fd5b73ffffffffffffffffffffffffffffffffffffffff808416600081815260036020908152604080832094871680845294825291829020859055815185815291517f8c5be1e5ebec7d5bd14f71427d1e84f3dd0314c0f7b2291e5b200ac8c7c3b9259281900390910190a3505050565b73ffffffffffffffffffffffffffffffffffffffff8316610b3f576040517f08c379a00000000000000000000000000000000000000000000000000000000081526004018080602001828103825260258152602001806111c56025913960400191505060405180910390fd5b73ffffffffffffffffffffffffffffffffffffffff8216610bab576040517f08c379a00000000000000000000000000000000000000000000000000000000081526004018080602001828103825260238152602001806110ef6023913960400191505060405180910390fd5b610bb6838383611072565b610c06816040518060600160405280602681526020016111566026913973ffffffffffffffffffffffffffffffffffffffff8616600090815260026020526040902054919063ffffffff610cb116565b73ffffffffffffffffffffffffffffffffffffffff8085166000908152600260205260408082209390935590841681522054610c48908263ffffffff610d6216565b73ffffffffffffffffffffffffffffffffffffffff80841660008181526002602090815260409182902094909455805185815290519193928716927fddf252ad1be2c89b69c2b068fc378daa952ba7f163c4a11628f55a4df523b3ef92918290030190a3505050565b60008184841115610d5a576040517f08c379a00000000000000000000000000000000000000000000000000000000081526004018080602001828103825283818151815260200191508051906020019080838360005b83811015610d1f578181015183820152602001610d07565b50505050905090810190601f168015610d4c5780820380516001836020036101000a031916815260200191505b509250505060405180910390fd5b505050900390565b600082820183811015610dd657604080517f08c379a000000000000000000000000000000000000000000000000000000000815260206004820152601b60248201527f536166654d6174683a206164646974696f6e206f766572666c6f770000000000604482015290519081900360640190fd5b9392505050565b73ffffffffffffffffffffffffffffffffffffffff8216610e5f57604080517f08c379a000000000000000000000000000000000000000000000000000000000815260206004820152601f60248201527f45524332303a206d696e7420746f20746865207a65726f206164647265737300604482015290519081900360640190fd5b610e6b60008383611072565b600154610e7e908263ffffffff610d6216565b60015573ffffffffffffffffffffffffffffffffffffffff8216600090815260026020526040902054610eb7908263ffffffff610d6216565b73ffffffffffffffffffffffffffffffffffffffff831660008181526002602090815260408083209490945583518581529351929391927fddf252ad1be2c89b69c2b068fc378daa952ba7f163c4a11628f55a4df523b3ef9281900390910190a35050565b73ffffffffffffffffffffffffffffffffffffffff8216610f88576040517f08c379a00000000000000000000000000000000000000000000000000000000081526004018080602001828103825260218152602001806111a46021913960400191505060405180910390fd5b610f9482600083611072565b610fe4816040518060600160405280602281526020016111126022913973ffffffffffffffffffffffffffffffffffffffff8516600090815260026020526040902054919063ffffffff610cb116565b73ffffffffffffffffffffffffffffffffffffffff831660009081526002602052604090205560015461101d908263ffffffff61107716565b60015560408051828152905160009173ffffffffffffffffffffffffffffffffffffffff8516917fddf252ad1be2c89b69c2b068fc378daa952ba7f163c4a11628f55a4df523b3ef9181900360200190a35050565b505050565b6000828211156110e857604080517f08c379a000000000000000000000000000000000000000000000000000000000815260206004820152601e60248201527f536166654d6174683a207375627472616374696f6e206f766572666c6f770000604482015290519081900360640190fd5b5090039056fe45524332303a207472616e7366657220746f20746865207a65726f206164647265737345524332303a206275726e20616d6f756e7420657863656564732062616c616e636545524332303a20617070726f766520746f20746865207a65726f206164647265737345524332303a207472616e7366657220616d6f756e7420657863656564732062616c616e636545524332303a207472616e7366657220616d6f756e74206578636565647320616c6c6f77616e636545524332303a206275726e2066726f6d20746865207a65726f206164647265737345524332303a207472616e736665722066726f6d20746865207a65726f206164647265737345524332303a20617070726f76652066726f6d20746865207a65726f206164647265737345524332303a2064656372656173656420616c6c6f77616e63652062656c6f77207a65726fa2646970667358221220ba36fd288878adf8dca0515a8eda20ac9ff966da27c7fc9929769865f79eb26964736f6c634300060a0033",
  "linkReferences": {},
  "deployedLinkReferences": {}
}