{
  "_format": "hh-sol-artifact-1",
  "contractName": "TestTrueLender",
  "sourceName": "contracts/truefi2/mocks/TestTrueLender.sol",
  "abi": [
    {
      "anonymous": false,
      "inputs": [
        {
          "indexed": false,
          "internalType": "uint256",
          "name": "newFee",
          "type": "uint256"
        }
      ],
      "name": "FeeChanged",
      "type": "event"
    },
    {
      "anonymous": false,
      "inputs": [
        {
          "indexed": false,
          "internalType": "contract ITrueFiPool2",
          "name": "newFeePool",
          "type": "address"
        }
      ],
      "name": "FeePoolChanged",
      "type": "event"
    },
    {
      "anonymous": false,
      "inputs": [
        {
          "indexed": true,
          "internalType": "address",
          "name": "previousOwner",
          "type": "address"
        },
        {
          "indexed": true,
          "internalType": "address",
          "name": "newOwner",
          "type": "address"
        }
      ],
      "name": "OwnershipTransferred",
      "type": "event"
    },
    {
      "anonymous": false,
      "inputs": [
        {
          "indexed": true,
          "internalType": "address",
          "name": "pool",
          "type": "address"
        },
        {
          "indexed": false,
          "internalType": "address",
          "name": "loanToken",
          "type": "address"
        },
        {
          "indexed": false,
          "internalType": "uint256",
          "name": "amount",
          "type": "uint256"
        }
      ],
      "name": "Reclaimed",
      "type": "event"
    },
    {
      "inputs": [],
      "name": "_1inch",
      "outputs": [
        {
          "internalType": "contract I1Inch3",
          "name": "",
          "type": "address"
        }
      ],
      "stateMutability": "view",
      "type": "function"
    },
    {
      "inputs": [],
      "name": "claimOwnership",
      "outputs": [],
      "stateMutability": "nonpayable",
      "type": "function"
    },
    {
      "inputs": [],
      "name": "deprecate",
      "outputs": [],
      "stateMutability": "nonpayable",
      "type": "function"
    },
    {
      "inputs": [
        {
          "internalType": "address",
          "name": "recipient",
          "type": "address"
        },
        {
          "internalType": "uint256",
          "name": "numerator",
          "type": "uint256"
        },
        {
          "internalType": "uint256",
          "name": "denominator",
          "type": "uint256"
        }
      ],
      "name": "distribute",
      "outputs": [],
      "stateMutability": "nonpayable",
      "type": "function"
    },
    {
      "inputs": [],
      "name": "factory",
      "outputs": [
        {
          "internalType": "contract IPoolFactory",
          "name": "",
          "type": "address"
        }
      ],
      "stateMutability": "view",
      "type": "function"
    },
    {
      "inputs": [],
      "name": "fee",
      "outputs": [
        {
          "internalType": "uint256",
          "name": "",
          "type": "uint256"
        }
      ],
      "stateMutability": "view",
      "type": "function"
    },
    {
      "inputs": [],
      "name": "feePool",
      "outputs": [
        {
          "internalType": "contract ITrueFiPool2",
          "name": "",
          "type": "address"
        }
      ],
      "stateMutability": "view",
      "type": "function"
    },
    {
      "inputs": [],
      "name": "feeToken",
      "outputs": [
        {
          "internalType": "contract IERC20WithDecimals",
          "name": "",
          "type": "address"
        }
      ],
      "stateMutability": "view",
      "type": "function"
    },
    {
      "inputs": [
        {
          "internalType": "contract ILoanToken2Deprecated",
          "name": "loanToken",
          "type": "address"
        }
      ],
      "name": "fund",
      "outputs": [],
      "stateMutability": "nonpayable",
      "type": "function"
    },
    {
      "inputs": [
        {
          "internalType": "contract IStakingPool",
          "name": "_stakingPool",
          "type": "address"
        },
        {
          "internalType": "contract IPoolFactory",
          "name": "_factory",
          "type": "address"
        },
        {
          "internalType": "contract I1Inch3",
          "name": "__1inch",
          "type": "address"
        }
      ],
      "name": "initialize",
      "outputs": [],
      "stateMutability": "nonpayable",
      "type": "function"
    },
    {
      "inputs": [],
      "name": "isInitialized",
      "outputs": [
        {
          "internalType": "bool",
          "name": "",
          "type": "bool"
        }
      ],
      "stateMutability": "view",
      "type": "function"
    },
    {
      "inputs": [
        {
          "internalType": "contract ITrueFiPool2",
          "name": "pool",
          "type": "address"
        }
      ],
      "name": "loans",
      "outputs": [
        {
          "internalType": "contract ILoanToken2Deprecated[]",
          "name": "result",
          "type": "address[]"
        }
      ],
      "stateMutability": "view",
      "type": "function"
    },
    {
      "inputs": [],
      "name": "owner",
      "outputs": [
        {
          "internalType": "address",
          "name": "",
          "type": "address"
        }
      ],
      "stateMutability": "view",
      "type": "function"
    },
    {
      "inputs": [],
      "name": "pendingOwner",
      "outputs": [
        {
          "internalType": "address",
          "name": "",
          "type": "address"
        }
      ],
      "stateMutability": "view",
      "type": "function"
    },
    {
      "inputs": [
        {
          "internalType": "contract ITrueFiPool2",
          "name": "",
          "type": "address"
        },
        {
          "internalType": "uint256",
          "name": "",
          "type": "uint256"
        }
      ],
      "name": "poolLoans",
      "outputs": [
        {
          "internalType": "contract ILoanToken2Deprecated",
          "name": "",
          "type": "address"
        }
      ],
      "stateMutability": "view",
      "type": "function"
    },
    {
      "inputs": [
        {
          "internalType": "contract ILoanToken2Deprecated",
          "name": "loanToken",
          "type": "address"
        },
        {
          "internalType": "bytes",
          "name": "data",
          "type": "bytes"
        }
      ],
      "name": "reclaim",
      "outputs": [],
      "stateMutability": "nonpayable",
      "type": "function"
    },
    {
      "inputs": [
        {
          "internalType": "uint256",
          "name": "newFee",
          "type": "uint256"
        }
      ],
      "name": "setFee",
      "outputs": [],
      "stateMutability": "nonpayable",
      "type": "function"
    },
    {
      "inputs": [
        {
          "internalType": "contract ITrueFiPool2",
          "name": "newFeePool",
          "type": "address"
        }
      ],
      "name": "setFeePool",
      "outputs": [],
      "stateMutability": "nonpayable",
      "type": "function"
    },
    {
      "inputs": [],
      "name": "stakingPool",
      "outputs": [
        {
          "internalType": "contract IStakingPool",
          "name": "",
          "type": "address"
        }
      ],
      "stateMutability": "view",
      "type": "function"
    },
    {
      "inputs": [],
      "name": "swapFeeSlippage",
      "outputs": [
        {
          "internalType": "uint256",
          "name": "",
          "type": "uint256"
        }
      ],
      "stateMutability": "view",
      "type": "function"
    },
    {
      "inputs": [
        {
          "internalType": "address",
          "name": "recipient",
          "type": "address"
        },
        {
          "internalType": "uint256",
          "name": "numerator",
          "type": "uint256"
        },
        {
          "internalType": "uint256",
          "name": "denominator",
          "type": "uint256"
        },
        {
          "internalType": "address",
          "name": "pool",
          "type": "address"
        }
      ],
      "name": "testDistribute",
      "outputs": [],
      "stateMutability": "nonpayable",
      "type": "function"
    },
    {
      "inputs": [
        {
          "internalType": "contract ILoanToken2Deprecated",
          "name": "loan",
          "type": "address"
        },
        {
          "internalType": "address",
          "name": "recipient",
          "type": "address"
        }
      ],
      "name": "testTransferAllLoanTokens",
      "outputs": [],
      "stateMutability": "nonpayable",
      "type": "function"
    },
    {
      "inputs": [
        {
          "internalType": "contract ILoanToken2Deprecated",
          "name": "loan",
          "type": "address"
        },
        {
          "internalType": "address",
          "name": "recipient",
          "type": "address"
        }
      ],
      "name": "transferAllLoanTokens",
      "outputs": [],
      "stateMutability": "nonpayable",
      "type": "function"
    },
    {
      "inputs": [
        {
          "internalType": "address",
          "name": "newOwner",
          "type": "address"
        }
      ],
      "name": "transferOwnership",
      "outputs": [],
      "stateMutability": "nonpayable",
      "type": "function"
    },
    {
      "inputs": [
        {
          "internalType": "contract ITrueFiPool2",
          "name": "pool",
          "type": "address"
        }
      ],
      "name": "value",
      "outputs": [
        {
          "internalType": "uint256",
          "name": "",
          "type": "uint256"
        }
      ],
      "stateMutability": "view",
      "type": "function"
    }
  ],
  "bytecode": "0x608060405234801561001057600080fd5b50613767806100206000396000f3fe608060405234801561001057600080fd5b50600436106101a35760003560e01c806369fe0e2d116100ee578063c35287f711610097578063e182219f11610071578063e182219f146102fd578063e2c92a5214610310578063e30c397814610323578063f2fde38b1461032b576101a3565b8063c35287f7146102da578063c45a0155146102ed578063ddca3f43146102f5576101a3565b8063ae2e933b116100c8578063ae2e933b146102ac578063af640937146102b4578063c0c53b8b146102c7576101a3565b806369fe0e2d1461027157806373b4086b146102845780638da5cb5b146102a4576101a3565b8063318e3157116101505780634e71e0c81161012a5780634e71e0c81461024e578063647846a51461025657806369f9d91c1461025e576101a3565b8063318e315714610211578063392e53cd1461022457806347db9ed114610239576101a3565b806319db22281161018157806319db2228146101e35780631e34b76f146101f657806323024408146101fe576101a3565b80630c305a13146101a85780630c56ae3b146101bd5780630fcc0c28146101db575b600080fd5b6101bb6101b6366004612bf0565b61033e565b005b6101c561040a565b6040516101d29190612ded565b60405180910390f35b6101bb610419565b6101bb6101f1366004612954565b610467565b6101c561058f565b6101bb61020c366004612954565b61059e565b6101bb61021f366004612bf0565b6103fc565b61022c6107dc565b6040516101d29190612e81565b6102416107e5565b6040516101d29190613678565b6101bb6107eb565b6101c5610893565b61024161026c366004612954565b6108a2565b6101bb61027f366004612d3a565b610a2e565b610297610292366004612954565b610aba565b6040516101d29190612e34565b6101c5610b30565b6101c5610b3f565b6101bb6102c2366004612b87565b610b4e565b6101bb6102d5366004612ca6565b610b60565b6101bb6102e8366004612c28565b610ca6565b6101c5610fc9565b610241610fd8565b6101c561030b366004612cf0565b610fde565b6101bb61031e366004612b53565b611013565b6101c56110d4565b6101bb610339366004612954565b6110e3565b6039546040517fec2b4e360000000000000000000000000000000000000000000000000000000081526001600160a01b039091169063ec2b4e3690610387903390600401612ded565b60206040518083038186803b15801561039f57600080fd5b505afa1580156103b3573d6000803e3d6000fd5b505050506040513d601f19601f820116820180604052508101906103d79190612bd0565b6103fc5760405162461bcd60e51b81526004016103f3906133d5565b60405180910390fd5b6104068282611152565b5050565b6038546001600160a01b031681565b7fffffffffffffffffffffffffffffffffffffffffffffffffffffffffffffffff603655603a80547fffffffffffffffffffffffff0000000000000000000000000000000000000000169055565b61046f611327565b6033546001600160a01b0390811691161461049c5760405162461bcd60e51b81526004016103f390613343565b806001600160a01b031663fc0c546a6040518163ffffffff1660e01b815260040160206040518083038186803b1580156104d557600080fd5b505afa1580156104e9573d6000803e3d6000fd5b505050506040513d601f19601f8201168201806040525081019061050d9190612970565b603c80547fffffffffffffffffffffffff00000000000000000000000000000000000000009081166001600160a01b0393841617909155603d80549091169183169190911790556040517f41063ef1187e59a041490ad5167dc1de07132758a7f118d3a886074e1b0ded9990610584908390612ded565b60405180910390a150565b603b546001600160a01b031681565b6000816001600160a01b03166316f0115b6040518163ffffffff1660e01b815260040160206040518083038186803b1580156105d957600080fd5b505afa1580156105ed573d6000803e3d6000fd5b505050506040513d601f19601f820116820180604052508101906106119190612970565b90506000826001600160a01b031663aa8c217c6040518163ffffffff1660e01b815260040160206040518083038186803b15801561064e57600080fd5b505afa158015610662573d6000803e3d6000fd5b505050506040513d601f19601f820116820180604052508101906106869190612d52565b6001600160a01b03838116600081815260356020908152604080832080546001810182559084529282902090920180547fffffffffffffffffffffffff0000000000000000000000000000000000000000169489169490941790935580517ffc0c546a000000000000000000000000000000000000000000000000000000008152905193945061078493879386939263fc0c546a9260048083019392829003018186803b15801561073657600080fd5b505afa15801561074a573d6000803e3d6000fd5b505050506040513d601f19601f8201168201806040525081019061076e9190612970565b6001600160a01b0316919063ffffffff61132b16565b826001600160a01b031663b60d42886040518163ffffffff1660e01b8152600401600060405180830381600087803b1580156107bf57600080fd5b505af11580156107d3573d6000803e3d6000fd5b50505050505050565b60005460ff1690565b603e5481565b6034546001600160a01b031633146108155760405162461bcd60e51b81526004016103f3906134c6565b6034546033546040516001600160a01b0392831692909116907f8be0079c531659141344cd1fd0a4f28419497f9722a3daafe3b4186f6b6457e090600090a360348054603380547fffffffffffffffffffffffff00000000000000000000000000000000000000009081166001600160a01b03841617909155169055565b603c546001600160a01b031681565b6001600160a01b038116600090815260356020526040812081805b8254811015610a2657610a1c8382815481106108d557fe5b60009182526020909120015484546001600160a01b039091169063c5a46ee69086908590811061090157fe5b6000918252602090912001546040517f70a082310000000000000000000000000000000000000000000000000000000081526001600160a01b03909116906370a0823190610953903090600401612ded565b60206040518083038186803b15801561096b57600080fd5b505afa15801561097f573d6000803e3d6000fd5b505050506040513d601f19601f820116820180604052508101906109a39190612d52565b6040518263ffffffff1660e01b81526004016109bf9190613678565b60206040518083038186803b1580156109d757600080fd5b505afa1580156109eb573d6000803e3d6000fd5b505050506040513d601f19601f82011682018060405250810190610a0f9190612d52565b839063ffffffff61148916565b91506001016108bd565b509392505050565b610a36611327565b6033546001600160a01b03908116911614610a635760405162461bcd60e51b81526004016103f390613343565b612710811115610a855760405162461bcd60e51b81526004016103f390612e9f565b60378190556040517f6bbc57480a46553fa4d156ce702beef5f3ad66303b0ed1a5d4cb44966c6584c390610584908390613678565b6001600160a01b038116600090815260356020908152604091829020805483518184028101840190945280845260609392830182828015610b2457602002820191906000526020600020905b81546001600160a01b03168152600190910190602001808311610b06575b50505050509050919050565b6033546001600160a01b031690565b603d546001600160a01b031681565b610b5a848484846114b7565b50505050565b600054610100900460ff1680610b795750610b79611516565b80610b87575060005460ff16155b610ba35760405162461bcd60e51b81526004016103f390613378565b600054610100900460ff16158015610c0957600080547fffffffffffffffffffffffffffffffffffffffffffffffffffffffffffffff007fffffffffffffffffffffffffffffffffffffffffffffffffffffffffffff00ff909116610100171660011790555b610c123361151c565b603880546001600160a01b038087167fffffffffffffffffffffffff00000000000000000000000000000000000000009283161790925560398054868416908316179055603b8054928516929091169190911790556064603e556103e86037558015610b5a57600080547fffffffffffffffffffffffffffffffffffffffffffffffffffffffffffff00ff16905550505050565b6000836001600160a01b03166316f0115b6040518163ffffffff1660e01b815260040160206040518083038186803b158015610ce157600080fd5b505afa158015610cf5573d6000803e3d6000fd5b505050506040513d601f19601f82011682018060405250810190610d199190612970565b90506000846001600160a01b031663200d2ed26040518163ffffffff1660e01b815260040160206040518083038186803b158015610d5657600080fd5b505afa158015610d6a573d6000803e3d6000fd5b505050506040513d601f19601f82011682018060405250810190610d8e9190612d1b565b90506003816005811115610d9e57fe5b1015610dbc5760405162461bcd60e51b81526004016103f39061322c565b6003816005811115610dca57fe5b14610e0757610dd7610b30565b6001600160a01b0316336001600160a01b031614610e075760405162461bcd60e51b81526004016103f390612f59565b6001600160a01b0382166000908152603560205260408120905b8154811015610fab57866001600160a01b0316828281548110610e4057fe5b6000918252602090912001546001600160a01b03161415610fa357815482907fffffffffffffffffffffffffffffffffffffffffffffffffffffffffffffffff8101908110610e8b57fe5b9060005260206000200160009054906101000a90046001600160a01b0316828281548110610eb557fe5b9060005260206000200160006101000a8154816001600160a01b0302191690836001600160a01b0316021790555081805480610eed57fe5b60008281526020812082017fffffffffffffffffffffffffffffffffffffffffffffffffffffffffffffffff90810180547fffffffffffffffffffffffff0000000000000000000000000000000000000000169055909101909155610f5488868989611658565b9050846001600160a01b03167fc4cc5c1b6cf3b5cafd06bc7fa8b6320dbeea074c4f18c4c036e52a3a773aac548983604051610f91929190612e1b565b60405180910390a25050505050610fc4565b600101610e21565b5060405162461bcd60e51b81526004016103f390612fed565b505050565b6039546001600160a01b031681565b60375481565b60356020528160005260406000208181548110610ff757fe5b6000918252602090912001546001600160a01b03169150829050565b6039546040517fec2b4e360000000000000000000000000000000000000000000000000000000081526001600160a01b039091169063ec2b4e369061105c903390600401612ded565b60206040518083038186803b15801561107457600080fd5b505afa158015611088573d6000803e3d6000fd5b505050506040513d601f19601f820116820180604052508101906110ac9190612bd0565b6110c85760405162461bcd60e51b81526004016103f3906133d5565b610fc4838383336114b7565b6034546001600160a01b031690565b6110eb611327565b6033546001600160a01b039081169116146111185760405162461bcd60e51b81526004016103f390613343565b603480547fffffffffffffffffffffffff0000000000000000000000000000000000000000166001600160a01b0392909216919091179055565b600060356000846001600160a01b03166316f0115b6040518163ffffffff1660e01b815260040160206040518083038186803b15801561119157600080fd5b505afa1580156111a5573d6000803e3d6000fd5b505050506040513d601f19601f820116820180604052508101906111c99190612970565b6001600160a01b031681526020810191909152604001600090812091505b8154811015610fab57836001600160a01b031682828154811061120657fe5b6000918252602090912001546001600160a01b0316141561131f57815482907fffffffffffffffffffffffffffffffffffffffffffffffffffffffffffffffff810190811061125157fe5b9060005260206000200160009054906101000a90046001600160a01b031682828154811061127b57fe5b9060005260206000200160006101000a8154816001600160a01b0302191690836001600160a01b03160217905550818054806112b357fe5b60008281526020902081017fffffffffffffffffffffffffffffffffffffffffffffffffffffffffffffffff90810180547fffffffffffffffffffffffff00000000000000000000000000000000000000001690550190556113188484600180611a40565b5050610406565b6001016111e7565b3390565b8015806113cc57506040517fdd62ed3e0000000000000000000000000000000000000000000000000000000081526001600160a01b0384169063dd62ed3e9061137a9030908690600401612e01565b60206040518083038186803b15801561139257600080fd5b505afa1580156113a6573d6000803e3d6000fd5b505050506040513d601f19601f820116820180604052508101906113ca9190612d52565b155b6113e85760405162461bcd60e51b81526004016103f390613580565b610fc48363095ea7b360e01b8484604051602401611407929190612e1b565b604080517fffffffffffffffffffffffffffffffffffffffffffffffffffffffffffffffe08184030181529190526020810180517bffffffffffffffffffffffffffffffffffffffffffffffffffffffff167fffffffff0000000000000000000000000000000000000000000000000000000090931692909217909152611af7565b6000828201838110156114ae5760405162461bcd60e51b81526004016103f390612fb6565b90505b92915050565b6001600160a01b0381166000908152603560205260408120905b815481101561150e576115068282815481106114e957fe5b6000918252602090912001546001600160a01b0316878787611a40565b6001016114d1565b505050505050565b303b1590565b600054610100900460ff16806115355750611535611516565b80611543575060005460ff16155b61155f5760405162461bcd60e51b81526004016103f390613378565b600054610100900460ff161580156115c557600080547fffffffffffffffffffffffffffffffffffffffffffffffffffffffffffffff007fffffffffffffffffffffffffffffffffffffffffffffffffffffffffffff00ff909116610100171660011790555b603380547fffffffffffffffffffffffff0000000000000000000000000000000000000000166001600160a01b0384169081179091556040516000907f8be0079c531659141344cd1fd0a4f28419497f9722a3daafe3b4186f6b6457e0908290a3801561040657600080547fffffffffffffffffffffffffffffffffffffffffffffffffffffffffffff00ff1690555050565b600080846001600160a01b031663fc0c546a6040518163ffffffff1660e01b815260040160206040518083038186803b15801561169457600080fd5b505afa1580156116a8573d6000803e3d6000fd5b505050506040513d601f19601f820116820180604052508101906116cc9190612970565b6001600160a01b03166370a08231306040518263ffffffff1660e01b81526004016116f79190612ded565b60206040518083038186803b15801561170f57600080fd5b505afa158015611723573d6000803e3d6000fd5b505050506040513d601f19601f820116820180604052508101906117479190612d52565b6040517f70a082310000000000000000000000000000000000000000000000000000000081529091506001600160a01b0387169063db006a759082906370a0823190611797903090600401612ded565b60206040518083038186803b1580156117af57600080fd5b505afa1580156117c3573d6000803e3d6000fd5b505050506040513d601f19601f820116820180604052508101906117e79190612d52565b6040518263ffffffff1660e01b81526004016118039190613678565b600060405180830381600087803b15801561181d57600080fd5b505af1158015611831573d6000803e3d6000fd5b505050506000856001600160a01b031663fc0c546a6040518163ffffffff1660e01b815260040160206040518083038186803b15801561187057600080fd5b505afa158015611884573d6000803e3d6000fd5b505050506040513d601f19601f820116820180604052508101906118a89190612970565b6001600160a01b03166370a08231306040518263ffffffff1660e01b81526004016118d39190612ded565b60206040518083038186803b1580156118eb57600080fd5b505afa1580156118ff573d6000803e3d6000fd5b505050506040513d601f19601f820116820180604052508101906119239190612d52565b90506000611937828463ffffffff611b8616565b603c549091506000906001600160a01b03161561195d5761195a888a8989611bae565b90505b6119aa88611971848463ffffffff611b8616565b8a6001600160a01b031663fc0c546a6040518163ffffffff1660e01b815260040160206040518083038186803b15801561073657600080fd5b6001600160a01b03881663371fd8e66119c9848463ffffffff611b8616565b6040518263ffffffff1660e01b81526004016119e59190613678565b600060405180830381600087803b1580156119ff57600080fd5b505af1158015611a13573d6000803e3d6000fd5b5050603c546001600160a01b0316159150611a32905057611a32612049565b50925050505b949350505050565b610b5a83611ae083611ad4886001600160a01b03166370a08231306040518263ffffffff1660e01b8152600401611a779190612ded565b60206040518083038186803b158015611a8f57600080fd5b505afa158015611aa3573d6000803e3d6000fd5b505050506040513d601f19601f82011682018060405250810190611ac79190612d52565b879063ffffffff61224e16565b9063ffffffff61228816565b6001600160a01b038716919063ffffffff6122ba16565b6060611b4c826040518060400160405280602081526020017f5361666545524332303a206c6f772d6c6576656c2063616c6c206661696c6564815250856001600160a01b03166122d99092919063ffffffff16565b805190915015610fc45780806020019051810190611b6a9190612bd0565b610fc45760405162461bcd60e51b81526004016103f390613523565b600082821115611ba85760405162461bcd60e51b81526004016103f3906130a7565b50900390565b600080611cba612710611ad4603754611cae896001600160a01b031663aa8c217c6040518163ffffffff1660e01b815260040160206040518083038186803b158015611bf957600080fd5b505afa158015611c0d573d6000803e3d6000fd5b505050506040513d601f19601f82011682018060405250810190611c319190612d52565b8a6001600160a01b0316630dca59c16040518163ffffffff1660e01b815260040160206040518083038186803b158015611c6a57600080fd5b505afa158015611c7e573d6000803e3d6000fd5b505050506040513d601f19601f82011682018060405250810190611ca29190612d52565b9063ffffffff611b8616565b9063ffffffff61224e16565b90506000866001600160a01b031663fc0c546a6040518163ffffffff1660e01b815260040160206040518083038186803b158015611cf757600080fd5b505afa158015611d0b573d6000803e3d6000fd5b505050506040513d601f19601f82011682018060405250810190611d2f9190612970565b603c549091506001600160a01b0380831691161415611d5057509050611a38565b81611d6057600092505050611a38565b611d68612859565b603b54600090611d88906001600160a01b0316888863ffffffff6122f216565b915091506000611f12670de0b6b3a7640000611ad4603c60009054906101000a90046001600160a01b03166001600160a01b031663313ce5676040518163ffffffff1660e01b815260040160206040518083038186803b158015611deb57600080fd5b505afa158015611dff573d6000803e3d6000fd5b505050506040513d601f19601f82011682018060405250810190611e239190612d52565b600a0a8d6001600160a01b0316637dc0d1d06040518163ffffffff1660e01b815260040160206040518083038186803b158015611e5f57600080fd5b505afa158015611e73573d6000803e3d6000fd5b505050506040513d601f19601f82011682018060405250810190611e979190612970565b6001600160a01b0316632cd4aaba8a6040518263ffffffff1660e01b8152600401611ec29190613678565b60206040518083038186803b158015611eda57600080fd5b505afa158015611eee573d6000803e3d6000fd5b505050506040513d601f19601f82011682018060405250810190611cae9190612d52565b9050836001600160a01b031683600001516001600160a01b031614611f495760405162461bcd60e51b81526004016103f390613469565b603c5460208401516001600160a01b03908116911614611f7b5760405162461bcd60e51b81526004016103f390613172565b60608301516001600160a01b03163014611fa75760405162461bcd60e51b81526004016103f390612efc565b84836080015114611fca5760405162461bcd60e51b81526004016103f390613289565b60c083015160011615611fef5760405162461bcd60e51b81526004016103f39061304a565b61201c612710611ad461200f603e54612710611b8690919063ffffffff16565b849063ffffffff61224e16565b82101561203b5760405162461bcd60e51b81526004016103f3906131cf565b509298975050505050505050565b603c546040517f70a082310000000000000000000000000000000000000000000000000000000081526000916001600160a01b0316906370a0823190612093903090600401612ded565b60206040518083038186803b1580156120ab57600080fd5b505afa1580156120bf573d6000803e3d6000fd5b505050506040513d601f19601f820116820180604052508101906120e39190612d52565b9050806120f0575061224c565b603d54603c54612113916001600160a01b0391821691168363ffffffff61132b16565b603d546040517f049878f30000000000000000000000000000000000000000000000000000000081526001600160a01b039091169063049878f39061215c908490600401613678565b600060405180830381600087803b15801561217657600080fd5b505af115801561218a573d6000803e3d6000fd5b5050603854603d546040517f70a0823100000000000000000000000000000000000000000000000000000000815261224a94506001600160a01b0392831693509116906370a08231906121e1903090600401612ded565b60206040518083038186803b1580156121f957600080fd5b505afa15801561220d573d6000803e3d6000fd5b505050506040513d601f19601f820116820180604052508101906122319190612d52565b603d546001600160a01b0316919063ffffffff6122ba16565b505b565b60008261225d575060006114b1565b8282028284828161226a57fe5b04146114ae5760405162461bcd60e51b81526004016103f3906132e6565b60008082116122a95760405162461bcd60e51b81526004016103f39061313b565b8183816122b257fe5b049392505050565b610fc48363a9059cbb60e01b8484604051602401611407929190612e1b565b60606122e88484600085612759565b90505b9392505050565b6122fa612859565b60008383600081811061230957fe5b9050013560f81c60f81b7effffffffffffffffffffffffffffffffffffffffffffffffffffffffffffff1916607c60f81b14156123645761234d83600481876136c8565b81019061235a919061298c565b5092506125279050565b600080806060612377876004818b6136c8565b8101906123849190612a95565b6001600160a01b0384168a5260808a0183905260a08a01829052600060c08b01819052815194985092965090945092509082907fffffffffffffffffffffffffffffffffffffffffffffffffffffffffffffffff81019081106123e357fe5b602090810291909101015190506001600160a01b0381167f8000000000000000000000000000000000000000000000000000000000000000821615158061249a57816001600160a01b031663d21220a76040518163ffffffff1660e01b815260040160206040518083038186803b15801561245d57600080fd5b505afa158015612471573d6000803e3d6000fd5b505050506040513d601f19601f820116820180604052508101906124959190612970565b61250b565b816001600160a01b0316630dfe16816040518163ffffffff1660e01b815260040160206040518083038186803b1580156124d357600080fd5b505afa1580156124e7573d6000803e3d6000fd5b505050506040513d601f19601f8201168201806040525081019061250b9190612970565b6001600160a01b031660208a0152505030606088015250505050505b6080820151825161254b916001600160a01b0390911690879063ffffffff61132b16565b602082015160608301516040517f70a082310000000000000000000000000000000000000000000000000000000081526000926001600160a01b0316916370a082319161259b9190600401612ded565b60206040518083038186803b1580156125b357600080fd5b505afa1580156125c7573d6000803e3d6000fd5b505050506040513d601f19601f820116820180604052508101906125eb9190612d52565b90506000866001600160a01b03168686604051612609929190612dc1565b6000604051808303816000865af19150503d8060008114612646576040519150601f19603f3d011682016040523d82523d6000602084013e61264b565b606091505b5050905080612661576040513d806000833e8082fd5b602084015160608501516040517f70a082310000000000000000000000000000000000000000000000000000000081526000926001600160a01b0316916370a08231916126b19190600401612ded565b60206040518083038186803b1580156126c957600080fd5b505afa1580156126dd573d6000803e3d6000fd5b505050506040513d601f19601f820116820180604052508101906127019190612d52565b9050612713818463ffffffff611b8616565b93507fd31a51230cc78027e6e9f39f0f4ed16548a3dbbead54a259a9b3279fcde26a1785856040516127469291906135dd565b60405180910390a1505050935093915050565b60608247101561277b5760405162461bcd60e51b81526004016103f3906130de565b6127848561281a565b6127a05760405162461bcd60e51b81526004016103f390613432565b60006060866001600160a01b031685876040516127bd9190612dd1565b60006040518083038185875af1925050503d80600081146127fa576040519150601f19603f3d011682016040523d82523d6000602084013e6127ff565b606091505b509150915061280f828286612820565b979650505050505050565b3b151590565b6060831561282f5750816122eb565b82511561283f5782518084602001fd5b8160405162461bcd60e51b81526004016103f39190612e8c565b60405180610100016040528060006001600160a01b0316815260200160006001600160a01b0316815260200160006001600160a01b0316815260200160006001600160a01b03168152602001600081526020016000815260200160008152602001606081525090565b80356114b18161371c565b600082601f8301126128dd578081fd5b813567ffffffffffffffff8111156128f3578182fd5b61292460207fffffffffffffffffffffffffffffffffffffffffffffffffffffffffffffffe0601f84011601613681565b915080825283602082850101111561293b57600080fd5b8060208401602084013760009082016020015292915050565b600060208284031215612965578081fd5b81356114ae8161371c565b600060208284031215612981578081fd5b81516114ae8161371c565b6000806000606084860312156129a0578182fd5b83356129ab8161371c565b9250602084013567ffffffffffffffff808211156129c7578384fd5b6101009186018088038313156129db578485fd5b6129e483613681565b6129ee89836128c2565b81526129fd89602084016128c2565b6020820152612a0f89604084016128c2565b6040820152612a2189606084016128c2565b60608201526080820135608082015260a082013560a082015260c082013560c082015260e0820135935082841115612a57578586fd5b612a63898584016128cd565b60e08201529450506040860135915080821115612a7e578283fd5b50612a8b868287016128cd565b9150509250925092565b60008060008060808587031215612aaa578081fd5b8435612ab58161371c565b9350602085810135935060408601359250606086013567ffffffffffffffff811115612adf578283fd5b80870188601f820112612af0578384fd5b80359150612b05612b00836136a8565b613681565b82815283810190828501858502840186018c1015612b21578687fd5b8693505b84841015612b43578035835260019390930192918501918501612b25565b50979a9699509497505050505050565b600080600060608486031215612b67578283fd5b8335612b728161371c565b95602085013595506040909401359392505050565b60008060008060808587031215612b9c578182fd5b8435612ba78161371c565b935060208501359250604085013591506060850135612bc58161371c565b939692955090935050565b600060208284031215612be1578081fd5b815180151581146114ae578182fd5b60008060408385031215612c02578182fd5b8235612c0d8161371c565b91506020830135612c1d8161371c565b809150509250929050565b600080600060408486031215612c3c578081fd5b8335612c478161371c565b9250602084013567ffffffffffffffff80821115612c63578283fd5b81860187601f820112612c74578384fd5b8035925081831115612c84578384fd5b876020848301011115612c95578384fd5b949760209095019650909450505050565b600080600060608486031215612cba578081fd5b8335612cc58161371c565b92506020840135612cd58161371c565b91506040840135612ce58161371c565b809150509250925092565b60008060408385031215612d02578182fd5b8235612d0d8161371c565b946020939093013593505050565b600060208284031215612d2c578081fd5b8151600681106114ae578182fd5b600060208284031215612d4b578081fd5b5035919050565b600060208284031215612d63578081fd5b5051919050565b6001600160a01b03169052565b60008151808452612d8f8160208601602086016136f0565b601f017fffffffffffffffffffffffffffffffffffffffffffffffffffffffffffffffe0169290920160200192915050565b6000828483379101908152919050565b60008251612de38184602087016136f0565b9190910192915050565b6001600160a01b0391909116815260200190565b6001600160a01b0392831681529116602082015260400190565b6001600160a01b03929092168252602082015260400190565b6020808252825182820181905260009190848201906040850190845b81811015612e755783516001600160a01b031683529284019291840191600101612e50565b50909695505050505050565b901515815260200190565b6000602082526122eb6020830184612d77565b60208082526028908201527f547275654c656e6465723a206665652063616e6e6f74206265206d6f7265207460408201527f68616e2031303025000000000000000000000000000000000000000000000000606082015260800190565b60208082526022908201527f547275654c656e6465723a205265636569766572206973206e6f74206c656e6460408201527f6572000000000000000000000000000000000000000000000000000000000000606082015260800190565b60208082526036908201527f547275654c656e6465723a204f6e6c79206f776e65722063616e207265636c6160408201527f696d2066726f6d2064656661756c746564206c6f616e00000000000000000000606082015260800190565b6020808252601b908201527f536166654d6174683a206164646974696f6e206f766572666c6f770000000000604082015260600190565b60208082526037908201527f547275654c656e6465723a2054686973206c6f616e20686173206e6f7420626560408201527f656e2066756e64656420627920746865206c656e646572000000000000000000606082015260800190565b60208082526027908201527f547275654c656e6465723a205061727469616c2066696c6c206973206e6f742060408201527f616c6c6f77656400000000000000000000000000000000000000000000000000606082015260800190565b6020808252601e908201527f536166654d6174683a207375627472616374696f6e206f766572666c6f770000604082015260600190565b60208082526026908201527f416464726573733a20696e73756666696369656e742062616c616e636520666f60408201527f722063616c6c0000000000000000000000000000000000000000000000000000606082015260800190565b6020808252601a908201527f536166654d6174683a206469766973696f6e206279207a65726f000000000000604082015260600190565b6020808252602e908201527f547275654c656e6465723a2044657374696e6174696f6e20746f6b656e20697360408201527f206e6f742066656520746f6b656e000000000000000000000000000000000000606082015260800190565b6020808252602f908201527f547275654c656e6465723a204665652072657475726e65642066726f6d20737760408201527f617020697320746f6f20736d616c6c0000000000000000000000000000000000606082015260800190565b60208082526027908201527f547275654c656e6465723a204c6f616e546f6b656e206973206e6f7420636c6f60408201527f7365642079657400000000000000000000000000000000000000000000000000606082015260800190565b60208082526025908201527f547275654c656e6465723a20496e636f7272656374206665652073776170206160408201527f6d6f756e74000000000000000000000000000000000000000000000000000000606082015260800190565b60208082526021908201527f536166654d6174683a206d756c7469706c69636174696f6e206f766572666c6f60408201527f7700000000000000000000000000000000000000000000000000000000000000606082015260800190565b6020808252818101527f4f776e61626c653a2063616c6c6572206973206e6f7420746865206f776e6572604082015260600190565b6020808252602e908201527f436f6e747261637420696e7374616e63652068617320616c726561647920626560408201527f656e20696e697469616c697a6564000000000000000000000000000000000000606082015260800190565b6020808252602d908201527f547275654c656e6465723a20506f6f6c206e6f7420737570706f72746564206260408201527f792074686520666163746f727900000000000000000000000000000000000000606082015260800190565b6020808252601d908201527f416464726573733a2063616c6c20746f206e6f6e2d636f6e7472616374000000604082015260600190565b60208082526034908201527f547275654c656e6465723a20536f7572636520746f6b656e206973206e6f742060408201527f73616d6520617320706f6f6c277320746f6b656e000000000000000000000000606082015260800190565b60208082526028908201527f4f776e61626c653a2063616c6c6572206973206e6f74207468652070656e646960408201527f6e67206f776e6572000000000000000000000000000000000000000000000000606082015260800190565b6020808252602a908201527f5361666545524332303a204552433230206f7065726174696f6e20646964206e60408201527f6f74207375636365656400000000000000000000000000000000000000000000606082015260800190565b60208082526036908201527f5361666545524332303a20617070726f76652066726f6d206e6f6e2d7a65726f60408201527f20746f206e6f6e2d7a65726f20616c6c6f77616e636500000000000000000000606082015260800190565b6000604082526135f1604083018551612d6a565b60208401516136036060840182612d6a565b5060408401516136166080840182612d6a565b50606084015161362960a0840182612d6a565b50608084015160c083015260a084015160e083015260c0840151610100818185015260e086015191508061012085015250613668610140840182612d77565b9150508260208301529392505050565b90815260200190565b60405181810167ffffffffffffffff811182821017156136a057600080fd5b604052919050565b600067ffffffffffffffff8211156136be578081fd5b5060209081020190565b600080858511156136d7578182fd5b838611156136e3578182fd5b5050820193919092039150565b60005b8381101561370b5781810151838201526020016136f3565b83811115610b5a5750506000910152565b6001600160a01b038116811461224a57600080fdfea2646970667358221220cb32051ea9d1666ecffeb46264e544986f761f260d1ed27b9dec4eac1223af4264736f6c634300060a0033",
  "linkReferences": {},
  "deployedLinkReferences": {}
}