{
  "_format": "hh-sol-artifact-1",
  "contractName": "TrueRatingAgencyV2",
  "sourceName": "contracts/truefi/TrueRatingAgencyV2.sol",
  "abi": [
    {
      "anonymous": false,
      "inputs": [
        {
          "indexed": false,
          "internalType": "address",
          "name": "loanToken",
          "type": "address"
        },
        {
          "indexed": false,
          "internalType": "address",
          "name": "rater",
          "type": "address"
        },
        {
          "indexed": false,
          "internalType": "uint256",
          "name": "claimedReward",
          "type": "uint256"
        }
      ],
      "name": "Claimed",
      "type": "event"
    },
    {
      "anonymous": false,
      "inputs": [
        {
          "indexed": true,
          "internalType": "address",
          "name": "previousOwner",
          "type": "address"
        },
        {
          "indexed": true,
          "internalType": "address",
          "name": "newOwner",
          "type": "address"
        }
      ],
      "name": "OwnershipTransferred",
      "type": "event"
    },
    {
      "anonymous": false,
      "inputs": [
        {
          "indexed": false,
          "internalType": "uint256",
          "name": "ratersRewardFactor",
          "type": "uint256"
        }
      ],
      "name": "RatersRewardFactorChanged",
      "type": "event"
    },
    {
      "anonymous": false,
      "inputs": [
        {
          "indexed": false,
          "internalType": "uint256",
          "name": "newRewardMultiplier",
          "type": "uint256"
        }
      ],
      "name": "RewardMultiplierChanged",
      "type": "event"
    },
    {
      "inputs": [],
      "name": "TRU",
      "outputs": [
        {
          "internalType": "contract IBurnableERC20",
          "name": "",
          "type": "address"
        }
      ],
      "stateMutability": "view",
      "type": "function"
    },
    {
      "inputs": [
        {
          "internalType": "address",
          "name": "id",
          "type": "address"
        },
        {
          "internalType": "address",
          "name": "rater",
          "type": "address"
        }
      ],
      "name": "claim",
      "outputs": [],
      "stateMutability": "nonpayable",
      "type": "function"
    },
    {
      "inputs": [
        {
          "internalType": "address",
          "name": "id",
          "type": "address"
        },
        {
          "internalType": "address",
          "name": "rater",
          "type": "address"
        }
      ],
      "name": "claimable",
      "outputs": [
        {
          "internalType": "uint256",
          "name": "",
          "type": "uint256"
        }
      ],
      "stateMutability": "view",
      "type": "function"
    },
    {
      "inputs": [
        {
          "internalType": "address",
          "name": "id",
          "type": "address"
        },
        {
          "internalType": "address",
          "name": "rater",
          "type": "address"
        }
      ],
      "name": "claimed",
      "outputs": [
        {
          "internalType": "uint256",
          "name": "",
          "type": "uint256"
        }
      ],
      "stateMutability": "view",
      "type": "function"
    },
    {
      "inputs": [],
      "name": "distributor",
      "outputs": [
        {
          "internalType": "contract IArbitraryDistributor",
          "name": "",
          "type": "address"
        }
      ],
      "stateMutability": "view",
      "type": "function"
    },
    {
      "inputs": [
        {
          "internalType": "address",
          "name": "id",
          "type": "address"
        },
        {
          "internalType": "address",
          "name": "rater",
          "type": "address"
        }
      ],
      "name": "getNoRate",
      "outputs": [
        {
          "internalType": "uint256",
          "name": "",
          "type": "uint256"
        }
      ],
      "stateMutability": "view",
      "type": "function"
    },
    {
      "inputs": [
        {
          "internalType": "address",
          "name": "id",
          "type": "address"
        }
      ],
      "name": "getResults",
      "outputs": [
        {
          "internalType": "uint256",
          "name": "",
          "type": "uint256"
        },
        {
          "internalType": "uint256",
          "name": "",
          "type": "uint256"
        },
        {
          "internalType": "uint256",
          "name": "",
          "type": "uint256"
        }
      ],
      "stateMutability": "view",
      "type": "function"
    },
    {
      "inputs": [
        {
          "internalType": "address",
          "name": "id",
          "type": "address"
        }
      ],
      "name": "getTotalNoRatings",
      "outputs": [
        {
          "internalType": "uint256",
          "name": "",
          "type": "uint256"
        }
      ],
      "stateMutability": "view",
      "type": "function"
    },
    {
      "inputs": [
        {
          "internalType": "address",
          "name": "id",
          "type": "address"
        }
      ],
      "name": "getTotalYesRatings",
      "outputs": [
        {
          "internalType": "uint256",
          "name": "",
          "type": "uint256"
        }
      ],
      "stateMutability": "view",
      "type": "function"
    },
    {
      "inputs": [
        {
          "internalType": "address",
          "name": "id",
          "type": "address"
        }
      ],
      "name": "getVotingStart",
      "outputs": [
        {
          "internalType": "uint256",
          "name": "",
          "type": "uint256"
        }
      ],
      "stateMutability": "view",
      "type": "function"
    },
    {
      "inputs": [
        {
          "internalType": "address",
          "name": "id",
          "type": "address"
        },
        {
          "internalType": "address",
          "name": "rater",
          "type": "address"
        }
      ],
      "name": "getYesRate",
      "outputs": [
        {
          "internalType": "uint256",
          "name": "",
          "type": "uint256"
        }
      ],
      "stateMutability": "view",
      "type": "function"
    },
    {
      "inputs": [
        {
          "internalType": "contract IBurnableERC20",
          "name": "_TRU",
          "type": "address"
        },
        {
          "internalType": "contract IVoteTokenWithERC20",
          "name": "_stkTRU",
          "type": "address"
        },
        {
          "internalType": "contract IArbitraryDistributor",
          "name": "_distributor",
          "type": "address"
        }
      ],
      "name": "initialize",
      "outputs": [],
      "stateMutability": "nonpayable",
      "type": "function"
    },
    {
      "inputs": [],
      "name": "isInitialized",
      "outputs": [
        {
          "internalType": "bool",
          "name": "",
          "type": "bool"
        }
      ],
      "stateMutability": "view",
      "type": "function"
    },
    {
      "inputs": [
        {
          "internalType": "address",
          "name": "",
          "type": "address"
        }
      ],
      "name": "loans",
      "outputs": [
        {
          "internalType": "address",
          "name": "creator",
          "type": "address"
        },
        {
          "internalType": "uint256",
          "name": "timestamp",
          "type": "uint256"
        },
        {
          "internalType": "uint256",
          "name": "blockNumber",
          "type": "uint256"
        },
        {
          "internalType": "uint256",
          "name": "reward",
          "type": "uint256"
        }
      ],
      "stateMutability": "view",
      "type": "function"
    },
    {
      "inputs": [],
      "name": "owner",
      "outputs": [
        {
          "internalType": "address",
          "name": "",
          "type": "address"
        }
      ],
      "stateMutability": "view",
      "type": "function"
    },
    {
      "inputs": [],
      "name": "ratersRewardFactor",
      "outputs": [
        {
          "internalType": "uint256",
          "name": "",
          "type": "uint256"
        }
      ],
      "stateMutability": "view",
      "type": "function"
    },
    {
      "inputs": [],
      "name": "renounceOwnership",
      "outputs": [],
      "stateMutability": "nonpayable",
      "type": "function"
    },
    {
      "inputs": [],
      "name": "rewardMultiplier",
      "outputs": [
        {
          "internalType": "uint256",
          "name": "",
          "type": "uint256"
        }
      ],
      "stateMutability": "view",
      "type": "function"
    },
    {
      "inputs": [
        {
          "internalType": "uint256",
          "name": "newRatersRewardFactor",
          "type": "uint256"
        }
      ],
      "name": "setRatersRewardFactor",
      "outputs": [],
      "stateMutability": "nonpayable",
      "type": "function"
    },
    {
      "inputs": [
        {
          "internalType": "uint256",
          "name": "newRewardMultiplier",
          "type": "uint256"
        }
      ],
      "name": "setRewardMultiplier",
      "outputs": [],
      "stateMutability": "nonpayable",
      "type": "function"
    },
    {
      "inputs": [
        {
          "internalType": "address",
          "name": "id",
          "type": "address"
        }
      ],
      "name": "status",
      "outputs": [
        {
          "internalType": "enum TrueRatingAgencyV2.LoanStatus",
          "name": "",
          "type": "uint8"
        }
      ],
      "stateMutability": "view",
      "type": "function"
    },
    {
      "inputs": [],
      "name": "stkTRU",
      "outputs": [
        {
          "internalType": "contract IVoteTokenWithERC20",
          "name": "",
          "type": "address"
        }
      ],
      "stateMutability": "view",
      "type": "function"
    },
    {
      "inputs": [
        {
          "internalType": "address",
          "name": "newOwner",
          "type": "address"
        }
      ],
      "name": "transferOwnership",
      "outputs": [],
      "stateMutability": "nonpayable",
      "type": "function"
    }
  ],
  "bytecode": "0x608060405234801561001057600080fd5b50612210806100206000396000f3fe608060405234801561001057600080fd5b506004361061018d5760003560e01c80636f2c590a116100e3578063bfe109281161008c578063ec607eff11610066578063ec607eff1461053f578063ef09965614610547578063f2fde38b1461057a5761018d565b8063bfe10928146104b7578063c0c53b8b146104bf578063d4570c1c146105045761018d565b80638da5cb5b116100bd5780638da5cb5b1461048a57806396f5fb4614610492578063be1c529f146104af5761018d565b80636f2c590a1461040a578063715018a61461041257806373b4086b1461041a5761018d565b8063392e53cd116101455780635cf0f66c1161011f5780635cf0f66c1461033d5780636374598614610378578063645b8b1b146103b35761018d565b8063392e53cd1461029f57806350bc4a98146102bb5780635bc0a9311461030c5761018d565b80630c9cbf0e116101765780630c9cbf0e146101f65780631217b0bc1461023157806321c0b342146102645761018d565b80630b1b47c5146101925780630bd075a1146101d7575b600080fd5b6101c5600480360360208110156101a857600080fd5b503573ffffffffffffffffffffffffffffffffffffffff166105ad565b60408051918252519081900360200190f35b6101f4600480360360208110156101ed57600080fd5b50356105e8565b005b6101c56004803603604081101561020c57600080fd5b5073ffffffffffffffffffffffffffffffffffffffff813581169160200135166106b4565b6101c56004803603602081101561024757600080fd5b503573ffffffffffffffffffffffffffffffffffffffff166106f2565b6101f46004803603604081101561027a57600080fd5b5073ffffffffffffffffffffffffffffffffffffffff81358116916020013516610728565b6102a7610e2f565b604080519115158252519081900360200190f35b6102ee600480360360208110156102d157600080fd5b503573ffffffffffffffffffffffffffffffffffffffff16610e38565b60408051938452602084019290925282820152519081900360600190f35b610314610e65565b6040805173ffffffffffffffffffffffffffffffffffffffff9092168252519081900360200190f35b6101c56004803603604081101561035357600080fd5b5073ffffffffffffffffffffffffffffffffffffffff81358116916020013516610e81565b6101c56004803603604081101561038e57600080fd5b5073ffffffffffffffffffffffffffffffffffffffff81358116916020013516610ec6565b6103e6600480360360208110156103c957600080fd5b503573ffffffffffffffffffffffffffffffffffffffff16610f0a565b604051808260068111156103f657fe5b60ff16815260200191505060405180910390f35b6101c561109e565b6101f46110a4565b61044d6004803603602081101561043057600080fd5b503573ffffffffffffffffffffffffffffffffffffffff166111a4565b6040805173ffffffffffffffffffffffffffffffffffffffff90951685526020850193909352838301919091526060830152519081900360800190f35b6103146111e2565b6101f4600480360360208110156104a857600080fd5b50356111fe565b610314611325565b610314611341565b6101f4600480360360608110156104d557600080fd5b5073ffffffffffffffffffffffffffffffffffffffff813581169160208101358216916040909101351661135d565b6101c56004803603604081101561051a57600080fd5b5073ffffffffffffffffffffffffffffffffffffffff813581169160200135166115c5565b6101c5611723565b6101c56004803603602081101561055d57600080fd5b503573ffffffffffffffffffffffffffffffffffffffff16611729565b6101f46004803603602081101561059057600080fd5b503573ffffffffffffffffffffffffffffffffffffffff16611754565b73ffffffffffffffffffffffffffffffffffffffff81166000908152603560209081526040808320600184526003019091529020545b919050565b6105f06118df565b60335473ffffffffffffffffffffffffffffffffffffffff90811691161461067957604080517f08c379a000000000000000000000000000000000000000000000000000000000815260206004820181905260248201527f4f776e61626c653a2063616c6c6572206973206e6f7420746865206f776e6572604482015290519081900360640190fd5b603b8190556040805182815290517f4a1fd148056ac6dcd3d5898451d5397d472d134a1f0f0257600acd5a1df3fb4f9181900360200190a150565b73ffffffffffffffffffffffffffffffffffffffff808316600090815260356020908152604080832093851683526005909301905220545b92915050565b73ffffffffffffffffffffffffffffffffffffffff16600090815260356020908152604080832083805260030190915290205490565b81600361073482610f0a565b600681111561073f57fe5b1015610796576040517f08c379a000000000000000000000000000000000000000000000000000000000815260040180806020018281038252602781526020018061209e6027913960400191505060405180910390fd5b73ffffffffffffffffffffffffffffffffffffffff8316600090815260356020526040812060060154819060051115610c2d5760008573ffffffffffffffffffffffffffffffffffffffff166366d16cc36040518163ffffffff1660e01b815260040160206040518083038186803b15801561081157600080fd5b505afa158015610825573d6000803e3d6000fd5b505050506040513d602081101561083b57600080fd5b5051604080517f54fd4d50000000000000000000000000000000000000000000000000000000008152905191925060009173ffffffffffffffffffffffffffffffffffffffff8916916354fd4d50916004808301926020929190829003018186803b1580156108a957600080fd5b505afa1580156108bd573d6000803e3d6000fd5b505050506040513d60208110156108d357600080fd5b505160ff16600414156109ed578673ffffffffffffffffffffffffffffffffffffffff1663fc0c546a6040518163ffffffff1660e01b815260040160206040518083038186803b15801561092657600080fd5b505afa15801561093a573d6000803e3d6000fd5b505050506040513d602081101561095057600080fd5b5051604080517f313ce567000000000000000000000000000000000000000000000000000000008152905173ffffffffffffffffffffffffffffffffffffffff9092169163313ce56791600480820192602092909190829003018186803b1580156109ba57600080fd5b505afa1580156109ce573d6000803e3d6000fd5b505050506040513d60208110156109e457600080fd5b50519050610a62565b8673ffffffffffffffffffffffffffffffffffffffff1663313ce5676040518163ffffffff1660e01b815260040160206040518083038186803b158015610a3357600080fd5b505afa158015610a47573d6000803e3d6000fd5b505050506040513d6020811015610a5d57600080fd5b505190505b610be0610bdb82600a0a610bcf603860009054906101000a900473ffffffffffffffffffffffffffffffffffffffff1673ffffffffffffffffffffffffffffffffffffffff1663aa8c217c6040518163ffffffff1660e01b8152600401602060405180830381600087803b158015610ad957600080fd5b505af1158015610aed573d6000803e3d6000fd5b505050506040513d6020811015610b0357600080fd5b5051603b54603854604080517f55234ec00000000000000000000000000000000000000000000000000000000081529051610bcf93670de0b6b3a764000093610bc3939192849273ffffffffffffffffffffffffffffffffffffffff909216916355234ec09160048083019260209291908290030181600087803b158015610b8a57600080fd5b505af1158015610b9e573d6000803e3d6000fd5b505050506040513d6020811015610bb457600080fd5b50518c9063ffffffff6118e316565b9063ffffffff6118e316565b9063ffffffff61195d16565b6119de565b9350610bfd612710610bcf603a54876118e390919063ffffffff16565b73ffffffffffffffffffffffffffffffffffffffff88166000908152603560205260409020600601819055925050505b6000610c3986866115c5565b73ffffffffffffffffffffffffffffffffffffffff8088166000908152603560209081526040808320938a168352600590930190522054909150610c83908263ffffffff6119f516565b73ffffffffffffffffffffffffffffffffffffffff8088166000908152603560209081526040808320938a1683526005909301905220558215610d9f57603854604080517f91c05b0b00000000000000000000000000000000000000000000000000000000815260048101869052905173ffffffffffffffffffffffffffffffffffffffff909216916391c05b0b9160248082019260009290919082900301818387803b158015610d3357600080fd5b505af1158015610d47573d6000803e3d6000fd5b5050603754610d9f925073ffffffffffffffffffffffffffffffffffffffff169050610d79858563ffffffff611a6916565b60365473ffffffffffffffffffffffffffffffffffffffff16919063ffffffff611ae016565b8015610e2757603654610dcf9073ffffffffffffffffffffffffffffffffffffffff16868363ffffffff611ae016565b6040805173ffffffffffffffffffffffffffffffffffffffff80891682528716602082015280820183905290517ff7a40077ff7a04c7e61f6f26fb13774259ddf1b6bce9ecf26a8276cdd39926839181900360600190a15b505050505050565b60005460ff1690565b6000806000610e4684611729565b610e4f856106f2565b610e58866105ad565b9250925092509193909250565b60365473ffffffffffffffffffffffffffffffffffffffff1681565b73ffffffffffffffffffffffffffffffffffffffff91821660009081526035602090815260408083209390941682526004909201825282812060018252909152205490565b73ffffffffffffffffffffffffffffffffffffffff918216600090815260356020908152604080832093909416825260049092018252828120818052909152205490565b73ffffffffffffffffffffffffffffffffffffffff808216600090815260356020526040812080549192909116158015610f4657506001810154155b15610f555760009150506105e3565b805473ffffffffffffffffffffffffffffffffffffffff16158015610f7d5750600181015415155b15610f8c5760029150506105e3565b60008373ffffffffffffffffffffffffffffffffffffffff1663200d2ed26040518163ffffffff1660e01b815260040160206040518083038186803b158015610fd457600080fd5b505afa158015610fe8573d6000803e3d6000fd5b505050506040513d6020811015610ffe57600080fd5b50519050600181600581111561101057fe5b14806110275750600281600581111561102557fe5b145b15611037576003925050506105e3565b600381600581111561104557fe5b1415611056576004925050506105e3565b600481600581111561106457fe5b1415611075576005925050506105e3565b600581600581111561108357fe5b1415611094576006925050506105e3565b5060019392505050565b603b5481565b6110ac6118df565b60335473ffffffffffffffffffffffffffffffffffffffff90811691161461113557604080517f08c379a000000000000000000000000000000000000000000000000000000000815260206004820181905260248201527f4f776e61626c653a2063616c6c6572206973206e6f7420746865206f776e6572604482015290519081900360640190fd5b60335460405160009173ffffffffffffffffffffffffffffffffffffffff16907f8be0079c531659141344cd1fd0a4f28419497f9722a3daafe3b4186f6b6457e0908390a3603380547fffffffffffffffffffffffff0000000000000000000000000000000000000000169055565b603560205260009081526040902080546001820154600283015460069093015473ffffffffffffffffffffffffffffffffffffffff90921692909184565b60335473ffffffffffffffffffffffffffffffffffffffff1690565b6112066118df565b60335473ffffffffffffffffffffffffffffffffffffffff90811691161461128f57604080517f08c379a000000000000000000000000000000000000000000000000000000000815260206004820181905260248201527f4f776e61626c653a2063616c6c6572206973206e6f7420746865206f776e6572604482015290519081900360640190fd5b6127108111156112ea576040517f08c379a00000000000000000000000000000000000000000000000000000000081526004018080602001828103825260448152602001806121976044913960600191505060405180910390fd5b603a8190556040805182815290517f5bec5c20283b8df463a07661f72891bf17ccbafea3b5c13dbb395bf2a32c6fb19181900360200190a150565b60375473ffffffffffffffffffffffffffffffffffffffff1681565b60385473ffffffffffffffffffffffffffffffffffffffff1681565b600054610100900460ff16806113765750611376611b72565b80611384575060005460ff16155b6113d9576040517f08c379a000000000000000000000000000000000000000000000000000000000815260040180806020018281038252602e81526020018061213f602e913960400191505060405180910390fd5b600054610100900460ff1615801561143f57600080547fffffffffffffffffffffffffffffffffffffffffffffffffffffffffffffff007fffffffffffffffffffffffffffffffffffffffffffffffffffffffffffff00ff909116610100171660011790555b8173ffffffffffffffffffffffffffffffffffffffff166338af3eed6040518163ffffffff1660e01b8152600401602060405180830381600087803b15801561148757600080fd5b505af115801561149b573d6000803e3d6000fd5b505050506040513d60208110156114b157600080fd5b505173ffffffffffffffffffffffffffffffffffffffff163014611520576040517f08c379a00000000000000000000000000000000000000000000000000000000081526004018080602001828103825260338152602001806120eb6033913960400191505060405180910390fd5b611528611b78565b6036805473ffffffffffffffffffffffffffffffffffffffff8087167fffffffffffffffffffffffff000000000000000000000000000000000000000092831617909255603780548684169083161790556038805492851692909116919091179055612710603a5580156115bf57600080547fffffffffffffffffffffffffffffffffffffffffffffffffffffffffffff00ff1690555b50505050565b600060036115d284610f0a565b60068111156115dd57fe5b10156115eb575060006106ec565b73ffffffffffffffffffffffffffffffffffffffff83811660009081526035602090815260408083209386168352600490930181528282206001835290528181205481805291812054909161164091906119f5565b73ffffffffffffffffffffffffffffffffffffffff85166000908152603560209081526040808320600184526003019091528082205482805290822054929350909161168b916119f5565b73ffffffffffffffffffffffffffffffffffffffff8616600090815260356020526040812060060154919250906116ce908390610bcf908663ffffffff6118e316565b73ffffffffffffffffffffffffffffffffffffffff8088166000908152603560209081526040808320938a16835260059093019052205490915061171990829063ffffffff611a6916565b9695505050505050565b603a5481565b73ffffffffffffffffffffffffffffffffffffffff1660009081526035602052604090206001015490565b61175c6118df565b60335473ffffffffffffffffffffffffffffffffffffffff9081169116146117e557604080517f08c379a000000000000000000000000000000000000000000000000000000000815260206004820181905260248201527f4f776e61626c653a2063616c6c6572206973206e6f7420746865206f776e6572604482015290519081900360640190fd5b73ffffffffffffffffffffffffffffffffffffffff8116611851576040517f08c379a00000000000000000000000000000000000000000000000000000000081526004018080602001828103825260268152602001806120786026913960400191505060405180910390fd5b60335460405173ffffffffffffffffffffffffffffffffffffffff8084169216907f8be0079c531659141344cd1fd0a4f28419497f9722a3daafe3b4186f6b6457e090600090a3603380547fffffffffffffffffffffffff00000000000000000000000000000000000000001673ffffffffffffffffffffffffffffffffffffffff92909216919091179055565b3390565b6000826118f2575060006106ec565b828202828482816118ff57fe5b0414611956576040517f08c379a000000000000000000000000000000000000000000000000000000000815260040180806020018281038252602181526020018061211e6021913960400191505060405180910390fd5b9392505050565b60008082116119cd57604080517f08c379a000000000000000000000000000000000000000000000000000000000815260206004820152601a60248201527f536166654d6174683a206469766973696f6e206279207a65726f000000000000604482015290519081900360640190fd5b8183816119d657fe5b049392505050565b60006106ec826402540be40063ffffffff61195d16565b60008282018381101561195657604080517f08c379a000000000000000000000000000000000000000000000000000000000815260206004820152601b60248201527f536166654d6174683a206164646974696f6e206f766572666c6f770000000000604482015290519081900360640190fd5b600082821115611ada57604080517f08c379a000000000000000000000000000000000000000000000000000000000815260206004820152601e60248201527f536166654d6174683a207375627472616374696f6e206f766572666c6f770000604482015290519081900360640190fd5b50900390565b6040805173ffffffffffffffffffffffffffffffffffffffff8416602482015260448082018490528251808303909101815260649091019091526020810180517bffffffffffffffffffffffffffffffffffffffffffffffffffffffff167fa9059cbb00000000000000000000000000000000000000000000000000000000179052611b6d908490611d09565b505050565b303b1590565b600054610100900460ff1680611b915750611b91611b72565b80611b9f575060005460ff16155b611bf4576040517f08c379a000000000000000000000000000000000000000000000000000000000815260040180806020018281038252602e81526020018061213f602e913960400191505060405180910390fd5b600054610100900460ff16158015611c5a57600080547fffffffffffffffffffffffffffffffffffffffffffffffffffffffffffffff007fffffffffffffffffffffffffffffffffffffffffffffffffffffffffffff00ff909116610100171660011790555b6000611c646118df565b603380547fffffffffffffffffffffffff00000000000000000000000000000000000000001673ffffffffffffffffffffffffffffffffffffffff8316908117909155604051919250906000907f8be0079c531659141344cd1fd0a4f28419497f9722a3daafe3b4186f6b6457e0908290a3508015611d0657600080547fffffffffffffffffffffffffffffffffffffffffffffffffffffffffffff00ff1690555b50565b6060611d6b826040518060400160405280602081526020017f5361666545524332303a206c6f772d6c6576656c2063616c6c206661696c65648152508573ffffffffffffffffffffffffffffffffffffffff16611de19092919063ffffffff16565b805190915015611b6d57808060200190516020811015611d8a57600080fd5b5051611b6d576040517f08c379a000000000000000000000000000000000000000000000000000000000815260040180806020018281038252602a81526020018061216d602a913960400191505060405180910390fd5b6060611df08484600085611df8565b949350505050565b606082471015611e53576040517f08c379a00000000000000000000000000000000000000000000000000000000081526004018080602001828103825260268152602001806120c56026913960400191505060405180910390fd5b611e5c85611fb3565b611ec757604080517f08c379a000000000000000000000000000000000000000000000000000000000815260206004820152601d60248201527f416464726573733a2063616c6c20746f206e6f6e2d636f6e7472616374000000604482015290519081900360640190fd5b600060608673ffffffffffffffffffffffffffffffffffffffff1685876040518082805190602001908083835b60208310611f3157805182527fffffffffffffffffffffffffffffffffffffffffffffffffffffffffffffffe09092019160209182019101611ef4565b6001836020036101000a03801982511681845116808217855250505050505090500191505060006040518083038185875af1925050503d8060008114611f93576040519150601f19603f3d011682016040523d82523d6000602084013e611f98565b606091505b5091509150611fa8828286611fb9565b979650505050505050565b3b151590565b60608315611fc8575081611956565b825115611fd85782518084602001fd5b816040517f08c379a00000000000000000000000000000000000000000000000000000000081526004018080602001828103825283818151815260200191508051906020019080838360005b8381101561203c578181015183820152602001612024565b50505050905090810190601f1680156120695780820380516001836020036101000a031916815260200191505b509250505060405180910390fdfe4f776e61626c653a206e6577206f776e657220697320746865207a65726f206164647265737354727565526174696e674167656e637956323a204c6f616e20776173206e6f742066756e646564416464726573733a20696e73756666696369656e742062616c616e636520666f722063616c6c54727565526174696e674167656e637956323a20496e76616c6964206469737472696275746f722062656e6566696369617279536166654d6174683a206d756c7469706c69636174696f6e206f766572666c6f77436f6e747261637420696e7374616e63652068617320616c7265616479206265656e20696e697469616c697a65645361666545524332303a204552433230206f7065726174696f6e20646964206e6f74207375636365656454727565526174696e674167656e637956323a205261746572732072657761726420666163746f722063616e6e6f742062652067726561746572207468616e2031303025a2646970667358221220f67e2adb52567a2aa68996976df865189a51802156d9dab3c3b79340f78bbebe64736f6c634300060a0033",
  "linkReferences": {},
  "deployedLinkReferences": {}
}