{
  "_format": "hh-sol-artifact-1",
  "contractName": "Implementation2",
  "sourceName": "contracts/mocks/RegressionImplementation.sol",
  "abi": [
    {
      "inputs": [],
      "name": "getValue",
      "outputs": [
        {
          "internalType": "uint256",
          "name": "",
          "type": "uint256"
        }
      ],
      "stateMutability": "view",
      "type": "function"
    },
    {
      "inputs": [],
      "name": "initialize",
      "outputs": [],
      "stateMutability": "nonpayable",
      "type": "function"
    },
    {
      "inputs": [
        {
          "internalType": "uint256",
          "name": "_number",
          "type": "uint256"
        }
      ],
      "name": "setValue",
      "outputs": [],
      "stateMutability": "nonpayable",
      "type": "function"
    }
  ],
  "bytecode": "0x608060405234801561001057600080fd5b50610321806100206000396000f3fe608060405234801561001057600080fd5b50600436106100415760003560e01c8063209652551461004657806355241077146100645780638129fc1c14610080575b600080fd5b61004e61008a565b60405161005b91906101cf565b60405180910390f35b61007e6004803603810190610079919061021b565b610094565b005b61008861009e565b005b6000600154905090565b8060018190555050565b600060019054906101000a900460ff166100c65760008054906101000a900460ff16156100cf565b6100ce610182565b5b61010e576040517f08c379a0000000000000000000000000000000000000000000000000000000008152600401610105906102cb565b60405180910390fd5b60008060019054906101000a900460ff16159050801561015e576001600060016101000a81548160ff02191690831515021790555060016000806101000a81548160ff0219169083151502179055505b801561017f5760008060016101000a81548160ff0219169083151502179055505b50565b600061018d30610193565b15905090565b6000808273ffffffffffffffffffffffffffffffffffffffff163b119050919050565b6000819050919050565b6101c9816101b6565b82525050565b60006020820190506101e460008301846101c0565b92915050565b600080fd5b6101f8816101b6565b811461020357600080fd5b50565b600081359050610215816101ef565b92915050565b600060208284031215610231576102306101ea565b5b600061023f84828501610206565b91505092915050565b600082825260208201905092915050565b7f496e697469616c697a61626c653a20636f6e747261637420697320616c72656160008201527f647920696e697469616c697a6564000000000000000000000000000000000000602082015250565b60006102b5602e83610248565b91506102c082610259565b604082019050919050565b600060208201905081810360008301526102e4816102a8565b905091905056fea2646970667358221220e45296eb874fc9680183b584cac26cf39a910a28122d4a9b06acda43eb6f26e764736f6c63430008090033",
  "linkReferences": {},
  "deployedLinkReferences": {}
}