{
  "_format": "hh-sol-artifact-1",
  "contractName": "ConditionalEscrowMock",
  "sourceName": "contracts/mocks/ConditionalEscrowMock.sol",
  "abi": [
    {
      "anonymous": false,
      "inputs": [
        {
          "indexed": true,
          "internalType": "address",
          "name": "payee",
          "type": "address"
        },
        {
          "indexed": false,
          "internalType": "uint256",
          "name": "weiAmount",
          "type": "uint256"
        }
      ],
      "name": "Deposited",
      "type": "event"
    },
    {
      "anonymous": false,
      "inputs": [
        {
          "indexed": true,
          "internalType": "address",
          "name": "previousOwner",
          "type": "address"
        },
        {
          "indexed": true,
          "internalType": "address",
          "name": "newOwner",
          "type": "address"
        }
      ],
      "name": "OwnershipTransferred",
      "type": "event"
    },
    {
      "anonymous": false,
      "inputs": [
        {
          "indexed": true,
          "internalType": "address",
          "name": "payee",
          "type": "address"
        },
        {
          "indexed": false,
          "internalType": "uint256",
          "name": "weiAmount",
          "type": "uint256"
        }
      ],
      "name": "Withdrawn",
      "type": "event"
    },
    {
      "inputs": [
        {
          "internalType": "address",
          "name": "payee",
          "type": "address"
        }
      ],
      "name": "deposit",
      "outputs": [],
      "stateMutability": "payable",
      "type": "function"
    },
    {
      "inputs": [
        {
          "internalType": "address",
          "name": "payee",
          "type": "address"
        }
      ],
      "name": "depositsOf",
      "outputs": [
        {
          "internalType": "uint256",
          "name": "",
          "type": "uint256"
        }
      ],
      "stateMutability": "view",
      "type": "function"
    },
    {
      "inputs": [],
      "name": "owner",
      "outputs": [
        {
          "internalType": "address",
          "name": "",
          "type": "address"
        }
      ],
      "stateMutability": "view",
      "type": "function"
    },
    {
      "inputs": [],
      "name": "renounceOwnership",
      "outputs": [],
      "stateMutability": "nonpayable",
      "type": "function"
    },
    {
      "inputs": [
        {
          "internalType": "address",
          "name": "payee",
          "type": "address"
        },
        {
          "internalType": "bool",
          "name": "allowed",
          "type": "bool"
        }
      ],
      "name": "setAllowed",
      "outputs": [],
      "stateMutability": "nonpayable",
      "type": "function"
    },
    {
      "inputs": [
        {
          "internalType": "address",
          "name": "newOwner",
          "type": "address"
        }
      ],
      "name": "transferOwnership",
      "outputs": [],
      "stateMutability": "nonpayable",
      "type": "function"
    },
    {
      "inputs": [
        {
          "internalType": "address payable",
          "name": "payee",
          "type": "address"
        }
      ],
      "name": "withdraw",
      "outputs": [],
      "stateMutability": "nonpayable",
      "type": "function"
    },
    {
      "inputs": [
        {
          "internalType": "address",
          "name": "payee",
          "type": "address"
        }
      ],
      "name": "withdrawalAllowed",
      "outputs": [
        {
          "internalType": "bool",
          "name": "",
          "type": "bool"
        }
      ],
      "stateMutability": "view",
      "type": "function"
    }
  ],
  "bytecode": "0x608060405234801561001057600080fd5b5061002d61002261003260201b60201c565b61003a60201b60201c565b6100fe565b600033905090565b60008060009054906101000a900473ffffffffffffffffffffffffffffffffffffffff169050816000806101000a81548173ffffffffffffffffffffffffffffffffffffffff021916908373ffffffffffffffffffffffffffffffffffffffff1602179055508173ffffffffffffffffffffffffffffffffffffffff168173ffffffffffffffffffffffffffffffffffffffff167f8be0079c531659141344cd1fd0a4f28419497f9722a3daafe3b4186f6b6457e060405160405180910390a35050565b610ece8061010d6000396000f3fe60806040526004361061007b5760003560e01c80638da5cb5b1161004e5780638da5cb5b14610126578063e3a9db1a14610151578063f2fde38b1461018e578063f340fa01146101b75761007b565b80634697f05d1461008057806351cff8d9146100a9578063685ca194146100d2578063715018a61461010f575b600080fd5b34801561008c57600080fd5b506100a760048036038101906100a291906109ce565b6101d3565b005b3480156100b557600080fd5b506100d060048036038101906100cb9190610a4c565b61022e565b005b3480156100de57600080fd5b506100f960048036038101906100f49190610a79565b610282565b6040516101069190610ab5565b60405180910390f35b34801561011b57600080fd5b506101246102d8565b005b34801561013257600080fd5b5061013b610360565b6040516101489190610adf565b60405180910390f35b34801561015d57600080fd5b5061017860048036038101906101739190610a79565b610389565b6040516101859190610b13565b60405180910390f35b34801561019a57600080fd5b506101b560048036038101906101b09190610a79565b6103d2565b005b6101d160048036038101906101cc9190610a79565b6104ca565b005b80600260008473ffffffffffffffffffffffffffffffffffffffff1673ffffffffffffffffffffffffffffffffffffffff16815260200190815260200160002060006101000a81548160ff0219169083151502179055505050565b61023781610282565b610276576040517f08c379a000000000000000000000000000000000000000000000000000000000815260040161026d90610bb1565b60405180910390fd5b61027f816105f3565b50565b6000600260008373ffffffffffffffffffffffffffffffffffffffff1673ffffffffffffffffffffffffffffffffffffffff16815260200190815260200160002060009054906101000a900460ff169050919050565b6102e0610773565b73ffffffffffffffffffffffffffffffffffffffff166102fe610360565b73ffffffffffffffffffffffffffffffffffffffff1614610354576040517f08c379a000000000000000000000000000000000000000000000000000000000815260040161034b90610c1d565b60405180910390fd5b61035e600061077b565b565b60008060009054906101000a900473ffffffffffffffffffffffffffffffffffffffff16905090565b6000600160008373ffffffffffffffffffffffffffffffffffffffff1673ffffffffffffffffffffffffffffffffffffffff168152602001908152602001600020549050919050565b6103da610773565b73ffffffffffffffffffffffffffffffffffffffff166103f8610360565b73ffffffffffffffffffffffffffffffffffffffff161461044e576040517f08c379a000000000000000000000000000000000000000000000000000000000815260040161044590610c1d565b60405180910390fd5b600073ffffffffffffffffffffffffffffffffffffffff168173ffffffffffffffffffffffffffffffffffffffff1614156104be576040517f08c379a00000000000000000000000000000000000000000000000000000000081526004016104b590610caf565b60405180910390fd5b6104c78161077b565b50565b6104d2610773565b73ffffffffffffffffffffffffffffffffffffffff166104f0610360565b73ffffffffffffffffffffffffffffffffffffffff1614610546576040517f08c379a000000000000000000000000000000000000000000000000000000000815260040161053d90610c1d565b60405180910390fd5b600034905080600160008473ffffffffffffffffffffffffffffffffffffffff1673ffffffffffffffffffffffffffffffffffffffff168152602001908152602001600020600082825461059a9190610cfe565b925050819055508173ffffffffffffffffffffffffffffffffffffffff167f2da466a7b24304f47e87fa2e1e5a81b9831ce54fec19055ce277ca2f39ba42c4826040516105e79190610b13565b60405180910390a25050565b6105fb610773565b73ffffffffffffffffffffffffffffffffffffffff16610619610360565b73ffffffffffffffffffffffffffffffffffffffff161461066f576040517f08c379a000000000000000000000000000000000000000000000000000000000815260040161066690610c1d565b60405180910390fd5b6000600160008373ffffffffffffffffffffffffffffffffffffffff1673ffffffffffffffffffffffffffffffffffffffff1681526020019081526020016000205490506000600160008473ffffffffffffffffffffffffffffffffffffffff1673ffffffffffffffffffffffffffffffffffffffff16815260200190815260200160002081905550610721818373ffffffffffffffffffffffffffffffffffffffff1661083f90919063ffffffff16565b8173ffffffffffffffffffffffffffffffffffffffff167f7084f5476618d8e60b11ef0d7d3f06914655adb8793e28ff7f018d4c76d505d5826040516107679190610b13565b60405180910390a25050565b600033905090565b60008060009054906101000a900473ffffffffffffffffffffffffffffffffffffffff169050816000806101000a81548173ffffffffffffffffffffffffffffffffffffffff021916908373ffffffffffffffffffffffffffffffffffffffff1602179055508173ffffffffffffffffffffffffffffffffffffffff168173ffffffffffffffffffffffffffffffffffffffff167f8be0079c531659141344cd1fd0a4f28419497f9722a3daafe3b4186f6b6457e060405160405180910390a35050565b80471015610882576040517f08c379a000000000000000000000000000000000000000000000000000000000815260040161087990610da0565b60405180910390fd5b60008273ffffffffffffffffffffffffffffffffffffffff16826040516108a890610df1565b60006040518083038185875af1925050503d80600081146108e5576040519150601f19603f3d011682016040523d82523d6000602084013e6108ea565b606091505b505090508061092e576040517f08c379a000000000000000000000000000000000000000000000000000000000815260040161092590610e78565b60405180910390fd5b505050565b600080fd5b600073ffffffffffffffffffffffffffffffffffffffff82169050919050565b600061096382610938565b9050919050565b61097381610958565b811461097e57600080fd5b50565b6000813590506109908161096a565b92915050565b60008115159050919050565b6109ab81610996565b81146109b657600080fd5b50565b6000813590506109c8816109a2565b92915050565b600080604083850312156109e5576109e4610933565b5b60006109f385828601610981565b9250506020610a04858286016109b9565b9150509250929050565b6000610a1982610938565b9050919050565b610a2981610a0e565b8114610a3457600080fd5b50565b600081359050610a4681610a20565b92915050565b600060208284031215610a6257610a61610933565b5b6000610a7084828501610a37565b91505092915050565b600060208284031215610a8f57610a8e610933565b5b6000610a9d84828501610981565b91505092915050565b610aaf81610996565b82525050565b6000602082019050610aca6000830184610aa6565b92915050565b610ad981610958565b82525050565b6000602082019050610af46000830184610ad0565b92915050565b6000819050919050565b610b0d81610afa565b82525050565b6000602082019050610b286000830184610b04565b92915050565b600082825260208201905092915050565b7f436f6e646974696f6e616c457363726f773a207061796565206973206e6f742060008201527f616c6c6f77656420746f20776974686472617700000000000000000000000000602082015250565b6000610b9b603383610b2e565b9150610ba682610b3f565b604082019050919050565b60006020820190508181036000830152610bca81610b8e565b9050919050565b7f4f776e61626c653a2063616c6c6572206973206e6f7420746865206f776e6572600082015250565b6000610c07602083610b2e565b9150610c1282610bd1565b602082019050919050565b60006020820190508181036000830152610c3681610bfa565b9050919050565b7f4f776e61626c653a206e6577206f776e657220697320746865207a65726f206160008201527f6464726573730000000000000000000000000000000000000000000000000000602082015250565b6000610c99602683610b2e565b9150610ca482610c3d565b604082019050919050565b60006020820190508181036000830152610cc881610c8c565b9050919050565b7f4e487b7100000000000000000000000000000000000000000000000000000000600052601160045260246000fd5b6000610d0982610afa565b9150610d1483610afa565b9250827fffffffffffffffffffffffffffffffffffffffffffffffffffffffffffffffff03821115610d4957610d48610ccf565b5b828201905092915050565b7f416464726573733a20696e73756666696369656e742062616c616e6365000000600082015250565b6000610d8a601d83610b2e565b9150610d9582610d54565b602082019050919050565b60006020820190508181036000830152610db981610d7d565b9050919050565b600081905092915050565b50565b6000610ddb600083610dc0565b9150610de682610dcb565b600082019050919050565b6000610dfc82610dce565b9150819050919050565b7f416464726573733a20756e61626c6520746f2073656e642076616c75652c207260008201527f6563697069656e74206d61792068617665207265766572746564000000000000602082015250565b6000610e62603a83610b2e565b9150610e6d82610e06565b604082019050919050565b60006020820190508181036000830152610e9181610e55565b905091905056fea2646970667358221220232354a234bdd44e6c193c36c0725b4ce58a0dabe0810c51a5aad93d513fd09b64736f6c63430008090033",
  "linkReferences": {},
  "deployedLinkReferences": {}
}