{
  "_format": "hh-sol-artifact-1",
  "contractName": "LineOfCreditAgency",
  "sourceName": "contracts/truefi2/LineOfCreditAgency.sol",
  "abi": [
    {
      "anonymous": false,
      "inputs": [
        {
          "indexed": true,
          "internalType": "address",
          "name": "who",
          "type": "address"
        },
        {
          "indexed": false,
          "internalType": "bool",
          "name": "isAllowed",
          "type": "bool"
        }
      ],
      "name": "BorrowerAllowed",
      "type": "event"
    },
    {
      "anonymous": false,
      "inputs": [
        {
          "indexed": false,
          "internalType": "address",
          "name": "borrower",
          "type": "address"
        },
        {
          "indexed": false,
          "internalType": "enum LineOfCreditAgency.DefaultReason",
          "name": "reason",
          "type": "uint8"
        }
      ],
      "name": "EnteredDefault",
      "type": "event"
    },
    {
      "anonymous": false,
      "inputs": [
        {
          "indexed": false,
          "internalType": "contract ITrueFiPool2",
          "name": "pool",
          "type": "address"
        },
        {
          "indexed": false,
          "internalType": "address",
          "name": "borrower",
          "type": "address"
        },
        {
          "indexed": false,
          "internalType": "uint256",
          "name": "amount",
          "type": "uint256"
        }
      ],
      "name": "InterestPaid",
      "type": "event"
    },
    {
      "anonymous": false,
      "inputs": [
        {
          "indexed": false,
          "internalType": "uint256",
          "name": "newPeriod",
          "type": "uint256"
        }
      ],
      "name": "InterestRepaymentPeriodChanged",
      "type": "event"
    },
    {
      "anonymous": false,
      "inputs": [
        {
          "indexed": false,
          "internalType": "contract ILoanFactory2",
          "name": "newLoanFactory",
          "type": "address"
        }
      ],
      "name": "LoanFactoryChanged",
      "type": "event"
    },
    {
      "anonymous": false,
      "inputs": [
        {
          "indexed": false,
          "internalType": "uint256",
          "name": "newValue",
          "type": "uint256"
        }
      ],
      "name": "MinCreditScoreChanged",
      "type": "event"
    },
    {
      "anonymous": false,
      "inputs": [
        {
          "indexed": true,
          "internalType": "address",
          "name": "previousOwner",
          "type": "address"
        },
        {
          "indexed": true,
          "internalType": "address",
          "name": "newOwner",
          "type": "address"
        }
      ],
      "name": "OwnershipTransferred",
      "type": "event"
    },
    {
      "anonymous": false,
      "inputs": [
        {
          "indexed": false,
          "internalType": "contract ITrueFiPool2",
          "name": "pool",
          "type": "address"
        },
        {
          "indexed": false,
          "internalType": "bool",
          "name": "isAllowed",
          "type": "bool"
        }
      ],
      "name": "PoolAllowed",
      "type": "event"
    },
    {
      "anonymous": false,
      "inputs": [
        {
          "indexed": false,
          "internalType": "contract IPoolFactory",
          "name": "newPoolFactory",
          "type": "address"
        }
      ],
      "name": "PoolFactoryChanged",
      "type": "event"
    },
    {
      "anonymous": false,
      "inputs": [
        {
          "indexed": false,
          "internalType": "contract ITrueFiPool2",
          "name": "pool",
          "type": "address"
        },
        {
          "indexed": false,
          "internalType": "address",
          "name": "borrower",
          "type": "address"
        },
        {
          "indexed": false,
          "internalType": "uint256",
          "name": "amount",
          "type": "uint256"
        }
      ],
      "name": "PrincipalRepaid",
      "type": "event"
    },
    {
      "anonymous": false,
      "inputs": [
        {
          "indexed": false,
          "internalType": "contract IRateModel",
          "name": "newRateModel",
          "type": "address"
        }
      ],
      "name": "RateModelChanged",
      "type": "event"
    },
    {
      "inputs": [
        {
          "internalType": "address",
          "name": "who",
          "type": "address"
        },
        {
          "internalType": "bool",
          "name": "isAllowed",
          "type": "bool"
        }
      ],
      "name": "allowBorrower",
      "outputs": [],
      "stateMutability": "nonpayable",
      "type": "function"
    },
    {
      "inputs": [
        {
          "internalType": "contract ITrueFiPool2",
          "name": "pool",
          "type": "address"
        },
        {
          "internalType": "uint256",
          "name": "amount",
          "type": "uint256"
        }
      ],
      "name": "borrow",
      "outputs": [],
      "stateMutability": "nonpayable",
      "type": "function"
    },
    {
      "inputs": [
        {
          "internalType": "contract ITrueFiPool2",
          "name": "pool",
          "type": "address"
        },
        {
          "internalType": "address",
          "name": "borrower",
          "type": "address"
        },
        {
          "internalType": "uint256",
          "name": "_totalBorrowed",
          "type": "uint256"
        }
      ],
      "name": "borrowLimit",
      "outputs": [
        {
          "internalType": "uint256",
          "name": "",
          "type": "uint256"
        }
      ],
      "stateMutability": "view",
      "type": "function"
    },
    {
      "inputs": [
        {
          "internalType": "uint8",
          "name": "score",
          "type": "uint8"
        }
      ],
      "name": "borrowLimitAdjustment",
      "outputs": [
        {
          "internalType": "uint256",
          "name": "",
          "type": "uint256"
        }
      ],
      "stateMutability": "view",
      "type": "function"
    },
    {
      "inputs": [
        {
          "internalType": "contract ITrueFiPool2",
          "name": "",
          "type": "address"
        },
        {
          "internalType": "address",
          "name": "",
          "type": "address"
        }
      ],
      "name": "borrowed",
      "outputs": [
        {
          "internalType": "uint256",
          "name": "",
          "type": "uint256"
        }
      ],
      "stateMutability": "view",
      "type": "function"
    },
    {
      "inputs": [
        {
          "internalType": "contract ITrueFiPool2",
          "name": "",
          "type": "address"
        },
        {
          "internalType": "address",
          "name": "",
          "type": "address"
        }
      ],
      "name": "borrowerTotalPaidInterest",
      "outputs": [
        {
          "internalType": "uint256",
          "name": "",
          "type": "uint256"
        }
      ],
      "stateMutability": "view",
      "type": "function"
    },
    {
      "inputs": [],
      "name": "borrowingMutex",
      "outputs": [
        {
          "internalType": "contract IBorrowingMutex",
          "name": "",
          "type": "address"
        }
      ],
      "stateMutability": "view",
      "type": "function"
    },
    {
      "inputs": [
        {
          "internalType": "contract ITrueFiPool2",
          "name": "",
          "type": "address"
        },
        {
          "internalType": "uint256",
          "name": "",
          "type": "uint256"
        }
      ],
      "name": "buckets",
      "outputs": [
        {
          "internalType": "uint16",
          "name": "borrowersCount",
          "type": "uint16"
        },
        {
          "internalType": "uint128",
          "name": "timestamp",
          "type": "uint128"
        },
        {
          "internalType": "uint256",
          "name": "rate",
          "type": "uint256"
        },
        {
          "internalType": "uint256",
          "name": "cumulativeInterestPerShare",
          "type": "uint256"
        },
        {
          "internalType": "uint256",
          "name": "totalBorrowed",
          "type": "uint256"
        }
      ],
      "stateMutability": "view",
      "type": "function"
    },
    {
      "inputs": [],
      "name": "claimOwnership",
      "outputs": [],
      "stateMutability": "nonpayable",
      "type": "function"
    },
    {
      "inputs": [],
      "name": "creditOracle",
      "outputs": [
        {
          "internalType": "contract ITrueFiCreditOracle",
          "name": "",
          "type": "address"
        }
      ],
      "stateMutability": "view",
      "type": "function"
    },
    {
      "inputs": [
        {
          "internalType": "contract ITrueFiPool2",
          "name": "",
          "type": "address"
        },
        {
          "internalType": "address",
          "name": "",
          "type": "address"
        }
      ],
      "name": "creditScore",
      "outputs": [
        {
          "internalType": "uint8",
          "name": "",
          "type": "uint8"
        }
      ],
      "stateMutability": "view",
      "type": "function"
    },
    {
      "inputs": [
        {
          "internalType": "contract ITrueFiPool2",
          "name": "pool",
          "type": "address"
        },
        {
          "internalType": "address",
          "name": "borrower",
          "type": "address"
        }
      ],
      "name": "creditScoreAdjustmentRate",
      "outputs": [
        {
          "internalType": "uint256",
          "name": "",
          "type": "uint256"
        }
      ],
      "stateMutability": "view",
      "type": "function"
    },
    {
      "inputs": [
        {
          "internalType": "contract ITrueFiPool2",
          "name": "pool",
          "type": "address"
        },
        {
          "internalType": "address",
          "name": "borrower",
          "type": "address"
        }
      ],
      "name": "currentRate",
      "outputs": [
        {
          "internalType": "uint256",
          "name": "",
          "type": "uint256"
        }
      ],
      "stateMutability": "view",
      "type": "function"
    },
    {
      "inputs": [
        {
          "internalType": "address",
          "name": "borrower",
          "type": "address"
        }
      ],
      "name": "enterDefault",
      "outputs": [],
      "stateMutability": "nonpayable",
      "type": "function"
    },
    {
      "inputs": [
        {
          "internalType": "contract ITrueFiCreditOracle",
          "name": "_creditOracle",
          "type": "address"
        },
        {
          "internalType": "contract IRateModel",
          "name": "_rateModel",
          "type": "address"
        },
        {
          "internalType": "contract IBorrowingMutex",
          "name": "_borrowingMutex",
          "type": "address"
        },
        {
          "internalType": "contract IPoolFactory",
          "name": "_poolFactory",
          "type": "address"
        },
        {
          "internalType": "contract ILoanFactory2",
          "name": "_loanFactory",
          "type": "address"
        },
        {
          "internalType": "contract IStakingVault",
          "name": "_stakingVault",
          "type": "address"
        }
      ],
      "name": "initialize",
      "outputs": [],
      "stateMutability": "nonpayable",
      "type": "function"
    },
    {
      "inputs": [
        {
          "internalType": "contract ITrueFiPool2",
          "name": "pool",
          "type": "address"
        },
        {
          "internalType": "address",
          "name": "borrower",
          "type": "address"
        }
      ],
      "name": "interest",
      "outputs": [
        {
          "internalType": "uint256",
          "name": "",
          "type": "uint256"
        }
      ],
      "stateMutability": "view",
      "type": "function"
    },
    {
      "inputs": [],
      "name": "interestRepaymentPeriod",
      "outputs": [
        {
          "internalType": "uint256",
          "name": "",
          "type": "uint256"
        }
      ],
      "stateMutability": "view",
      "type": "function"
    },
    {
      "inputs": [
        {
          "internalType": "address",
          "name": "",
          "type": "address"
        }
      ],
      "name": "isBorrowerAllowed",
      "outputs": [
        {
          "internalType": "bool",
          "name": "",
          "type": "bool"
        }
      ],
      "stateMutability": "view",
      "type": "function"
    },
    {
      "inputs": [],
      "name": "isInitialized",
      "outputs": [
        {
          "internalType": "bool",
          "name": "",
          "type": "bool"
        }
      ],
      "stateMutability": "view",
      "type": "function"
    },
    {
      "inputs": [
        {
          "internalType": "contract ITrueFiPool2",
          "name": "pool",
          "type": "address"
        },
        {
          "internalType": "address",
          "name": "borrower",
          "type": "address"
        }
      ],
      "name": "isOverLimit",
      "outputs": [
        {
          "internalType": "bool",
          "name": "",
          "type": "bool"
        }
      ],
      "stateMutability": "view",
      "type": "function"
    },
    {
      "inputs": [
        {
          "internalType": "address",
          "name": "borrower",
          "type": "address"
        },
        {
          "internalType": "uint256",
          "name": "stakedAmount",
          "type": "uint256"
        }
      ],
      "name": "isOverProFormaLimit",
      "outputs": [
        {
          "internalType": "bool",
          "name": "",
          "type": "bool"
        }
      ],
      "stateMutability": "view",
      "type": "function"
    },
    {
      "inputs": [],
      "name": "loanFactory",
      "outputs": [
        {
          "internalType": "contract ILoanFactory2",
          "name": "",
          "type": "address"
        }
      ],
      "stateMutability": "view",
      "type": "function"
    },
    {
      "inputs": [],
      "name": "minCreditScore",
      "outputs": [
        {
          "internalType": "uint256",
          "name": "",
          "type": "uint256"
        }
      ],
      "stateMutability": "view",
      "type": "function"
    },
    {
      "inputs": [
        {
          "internalType": "contract ITrueFiPool2",
          "name": "",
          "type": "address"
        },
        {
          "internalType": "address",
          "name": "",
          "type": "address"
        }
      ],
      "name": "nextInterestRepayTime",
      "outputs": [
        {
          "internalType": "uint256",
          "name": "",
          "type": "uint256"
        }
      ],
      "stateMutability": "view",
      "type": "function"
    },
    {
      "inputs": [
        {
          "internalType": "contract ITrueFiPool2",
          "name": "",
          "type": "address"
        },
        {
          "internalType": "address",
          "name": "",
          "type": "address"
        }
      ],
      "name": "overBorrowLimitTime",
      "outputs": [
        {
          "internalType": "uint256",
          "name": "",
          "type": "uint256"
        }
      ],
      "stateMutability": "view",
      "type": "function"
    },
    {
      "inputs": [],
      "name": "owner",
      "outputs": [
        {
          "internalType": "address",
          "name": "",
          "type": "address"
        }
      ],
      "stateMutability": "view",
      "type": "function"
    },
    {
      "inputs": [
        {
          "internalType": "contract ITrueFiPool2",
          "name": "pool",
          "type": "address"
        }
      ],
      "name": "payInterest",
      "outputs": [],
      "stateMutability": "nonpayable",
      "type": "function"
    },
    {
      "inputs": [],
      "name": "pendingOwner",
      "outputs": [
        {
          "internalType": "address",
          "name": "",
          "type": "address"
        }
      ],
      "stateMutability": "view",
      "type": "function"
    },
    {
      "inputs": [
        {
          "internalType": "contract ITrueFiPool2",
          "name": "pool",
          "type": "address"
        }
      ],
      "name": "poke",
      "outputs": [],
      "stateMutability": "nonpayable",
      "type": "function"
    },
    {
      "inputs": [],
      "name": "pokeAll",
      "outputs": [],
      "stateMutability": "nonpayable",
      "type": "function"
    },
    {
      "inputs": [
        {
          "internalType": "contract ITrueFiPool2",
          "name": "pool",
          "type": "address"
        },
        {
          "internalType": "address",
          "name": "borrower",
          "type": "address"
        }
      ],
      "name": "pokeBorrowLimitTimer",
      "outputs": [],
      "stateMutability": "nonpayable",
      "type": "function"
    },
    {
      "inputs": [
        {
          "internalType": "contract ITrueFiPool2",
          "name": "pool",
          "type": "address"
        }
      ],
      "name": "poolBasicRate",
      "outputs": [
        {
          "internalType": "uint256",
          "name": "",
          "type": "uint256"
        }
      ],
      "stateMutability": "view",
      "type": "function"
    },
    {
      "inputs": [
        {
          "internalType": "contract ITrueFiPool2",
          "name": "pool",
          "type": "address"
        }
      ],
      "name": "poolCreditValue",
      "outputs": [
        {
          "internalType": "uint256",
          "name": "",
          "type": "uint256"
        }
      ],
      "stateMutability": "view",
      "type": "function"
    },
    {
      "inputs": [],
      "name": "poolFactory",
      "outputs": [
        {
          "internalType": "contract IPoolFactory",
          "name": "",
          "type": "address"
        }
      ],
      "stateMutability": "view",
      "type": "function"
    },
    {
      "inputs": [
        {
          "internalType": "contract ITrueFiPool2",
          "name": "",
          "type": "address"
        }
      ],
      "name": "poolTotalInterest",
      "outputs": [
        {
          "internalType": "uint256",
          "name": "",
          "type": "uint256"
        }
      ],
      "stateMutability": "view",
      "type": "function"
    },
    {
      "inputs": [
        {
          "internalType": "contract ITrueFiPool2",
          "name": "",
          "type": "address"
        }
      ],
      "name": "poolTotalPaidInterest",
      "outputs": [
        {
          "internalType": "uint256",
          "name": "",
          "type": "uint256"
        }
      ],
      "stateMutability": "view",
      "type": "function"
    },
    {
      "inputs": [],
      "name": "rateModel",
      "outputs": [
        {
          "internalType": "contract IRateModel",
          "name": "",
          "type": "address"
        }
      ],
      "stateMutability": "view",
      "type": "function"
    },
    {
      "inputs": [
        {
          "internalType": "contract ITrueFiPool2",
          "name": "pool",
          "type": "address"
        },
        {
          "internalType": "uint256",
          "name": "amount",
          "type": "uint256"
        }
      ],
      "name": "repay",
      "outputs": [],
      "stateMutability": "nonpayable",
      "type": "function"
    },
    {
      "inputs": [
        {
          "internalType": "contract ITrueFiPool2",
          "name": "pool",
          "type": "address"
        }
      ],
      "name": "repayInFull",
      "outputs": [],
      "stateMutability": "nonpayable",
      "type": "function"
    },
    {
      "inputs": [
        {
          "internalType": "uint256",
          "name": "newPeriod",
          "type": "uint256"
        }
      ],
      "name": "setInterestRepaymentPeriod",
      "outputs": [],
      "stateMutability": "nonpayable",
      "type": "function"
    },
    {
      "inputs": [
        {
          "internalType": "contract ILoanFactory2",
          "name": "newLoanFactory",
          "type": "address"
        }
      ],
      "name": "setLoanFactory",
      "outputs": [],
      "stateMutability": "nonpayable",
      "type": "function"
    },
    {
      "inputs": [
        {
          "internalType": "uint256",
          "name": "newValue",
          "type": "uint256"
        }
      ],
      "name": "setMinCreditScore",
      "outputs": [],
      "stateMutability": "nonpayable",
      "type": "function"
    },
    {
      "inputs": [
        {
          "internalType": "contract IPoolFactory",
          "name": "newPoolFactory",
          "type": "address"
        }
      ],
      "name": "setPoolFactory",
      "outputs": [],
      "stateMutability": "nonpayable",
      "type": "function"
    },
    {
      "inputs": [
        {
          "internalType": "contract IRateModel",
          "name": "newRateModel",
          "type": "address"
        }
      ],
      "name": "setRateModel",
      "outputs": [],
      "stateMutability": "nonpayable",
      "type": "function"
    },
    {
      "inputs": [
        {
          "internalType": "contract ITrueFiPool2",
          "name": "pool",
          "type": "address"
        },
        {
          "internalType": "address",
          "name": "borrower",
          "type": "address"
        }
      ],
      "name": "singleCreditValue",
      "outputs": [
        {
          "internalType": "uint256",
          "name": "",
          "type": "uint256"
        }
      ],
      "stateMutability": "view",
      "type": "function"
    },
    {
      "inputs": [],
      "name": "stakingVault",
      "outputs": [
        {
          "internalType": "contract IStakingVault",
          "name": "",
          "type": "address"
        }
      ],
      "stateMutability": "view",
      "type": "function"
    },
    {
      "inputs": [
        {
          "internalType": "address",
          "name": "borrower",
          "type": "address"
        }
      ],
      "name": "totalBorrowed",
      "outputs": [
        {
          "internalType": "uint256",
          "name": "",
          "type": "uint256"
        }
      ],
      "stateMutability": "view",
      "type": "function"
    },
    {
      "inputs": [
        {
          "internalType": "address",
          "name": "newOwner",
          "type": "address"
        }
      ],
      "name": "transferOwnership",
      "outputs": [],
      "stateMutability": "nonpayable",
      "type": "function"
    },
    {
      "inputs": [
        {
          "internalType": "address",
          "name": "borrower",
          "type": "address"
        }
      ],
      "name": "updateAllCreditScores",
      "outputs": [],
      "stateMutability": "nonpayable",
      "type": "function"
    },
    {
      "inputs": [
        {
          "internalType": "contract ITrueFiPool2",
          "name": "pool",
          "type": "address"
        },
        {
          "internalType": "address",
          "name": "borrower",
          "type": "address"
        }
      ],
      "name": "updateCreditScore",
      "outputs": [],
      "stateMutability": "nonpayable",
      "type": "function"
    },
    {
      "inputs": [],
      "name": "usedBucketsBitmap",
      "outputs": [
        {
          "internalType": "uint256",
          "name": "",
          "type": "uint256"
        }
      ],
      "stateMutability": "view",
      "type": "function"
    },
    {
      "inputs": [
        {
          "internalType": "contract ITrueFiPool2",
          "name": "pool",
          "type": "address"
        }
      ],
      "name": "utilizationAdjustmentRate",
      "outputs": [
        {
          "internalType": "uint256",
          "name": "",
          "type": "uint256"
        }
      ],
      "stateMutability": "view",
      "type": "function"
    }
  ],
  "bytecode": "0x608060405234801561001057600080fd5b50615a0280620000216000396000f3fe608060405234801561001057600080fd5b506004361061034b5760003560e01c806386a31998116101bd578063b78ee56f116100f9578063e2e1ca2b116100a2578063e36922a51161007c578063e36922a514610a15578063e47dc69714610a1d578063f2fde38b14610a4b578063f5af8d1114610a715761034b565b8063e2e1ca2b146109df578063e30c397814610a05578063e367d34714610a0d5761034b565b8063cc2a9a5b116100d3578063cc2a9a5b1461093d578063cf8770c51461098b578063d007c644146109b95761034b565b8063b78ee56f146108bb578063c3d557a6146108e9578063cb765116146109175761034b565b80639bdccf5411610166578063b0249c9a11610140578063b0249c9a14610839578063b0a02abe1461085f578063b1a997ac1461088d578063b37ed8cd146108b35761034b565b80639bdccf54146107e65780639c6497b914610814578063a1088459146108315761034b565b806390d23b801161019757806390d23b801461076c578063916a121c1461079a57806391f13a88146107c05761034b565b806386a31998146107185780638da5cb5b1461073e5780638fcdbbc7146107465761034b565b8063425fcc951161028c57806359992dc21161023557806376f79b101161020f57806376f79b1014610657578063780f9e371461065f578063785ad746146106855780637f9028c8146106f25761034b565b806359992dc2146105f357806361fd92c7146105fb578063638cc24e146106315761034b565b806347f3fdc21161026657806347f3fdc2146105995780634b8a3529146105bf5780634e71e0c8146105eb5761034b565b8063425fcc951461051f578063453152ef1461054d578063473597a0146105735761034b565b806326117263116102f95780633628436e116102d35780633628436e146104d9578063392e53cd146105075780633a6f09921461050f5780634219dc40146105175761034b565b8063261172631461046e578063270e05a61461049c5780632d7d894a146104b95761034b565b806322867d781161032a57806322867d78146103dc57806322c11d721461040a57806324e7964a1461044a5761034b565b8062c0a572146103505780631512df8e1461039457806319e09ae0146103ae575b600080fd5b61037e6004803603604081101561036657600080fd5b506001600160a01b0381358116916020013516610a9f565b6040805160ff9092168252519081900360200190f35b61039c610abf565b60408051918252519081900360200190f35b61039c600480360360408110156103c457600080fd5b506001600160a01b0381358116916020013516610ac5565b610408600480360360408110156103f257600080fd5b506001600160a01b038135169060200135610ae2565b005b6104366004803603604081101561042057600080fd5b506001600160a01b038135169060200135610d94565b604080519115158252519081900360200190f35b61045261117c565b604080516001600160a01b039092168252519081900360200190f35b6104086004803603604081101561048457600080fd5b506001600160a01b038135811691602001351661118b565b610408600480360360208110156104b257600080fd5b503561121d565b61039c600480360360208110156104cf57600080fd5b503560ff166112c2565b610436600480360360408110156104ef57600080fd5b506001600160a01b038135811691602001351661135c565b6104366115d7565b61039c6115e0565b6104526115e6565b61039c6004803603604081101561053557600080fd5b506001600160a01b03813581169160200135166115f5565b61039c6004803603602081101561056357600080fd5b50356001600160a01b0316611612565b6104086004803603602081101561058957600080fd5b50356001600160a01b0316611733565b61039c600480360360208110156105af57600080fd5b50356001600160a01b031661184e565b610408600480360360408110156105d557600080fd5b506001600160a01b0381351690602001356118bb565b61040861204c565b610408612113565b61039c6004803603606081101561061157600080fd5b506001600160a01b0381358116916020810135909116906040013561228d565b6104086004803603602081101561064757600080fd5b50356001600160a01b0316612504565b61039c6126e8565b6104086004803603602081101561067557600080fd5b50356001600160a01b03166126ee565b6106b16004803603604081101561069b57600080fd5b506001600160a01b03813516906020013561273c565b6040805161ffff90961686526fffffffffffffffffffffffffffffffff90941660208601528484019290925260608401526080830152519081900360a00190f35b6104086004803603602081101561070857600080fd5b50356001600160a01b0316612793565b6104086004803603602081101561072e57600080fd5b50356001600160a01b03166128bc565b6104526129d7565b61039c6004803603602081101561075c57600080fd5b50356001600160a01b03166129e6565b6104086004803603604081101561078257600080fd5b506001600160a01b03813581169160200135166129f8565b61039c600480360360208110156107b057600080fd5b50356001600160a01b0316612a7f565b610436600480360360208110156107d657600080fd5b50356001600160a01b0316612a91565b61039c600480360360408110156107fc57600080fd5b506001600160a01b0381358116916020013516612aa6565b6104086004803603602081101561082a57600080fd5b5035612b37565b610452612bdc565b6104086004803603602081101561084f57600080fd5b50356001600160a01b0316612beb565b61039c6004803603604081101561087557600080fd5b506001600160a01b038135811691602001351661318c565b610408600480360360208110156108a357600080fd5b50356001600160a01b03166131a9565b6104526132be565b61039c600480360360408110156108d157600080fd5b506001600160a01b03813581169160200135166132cd565b610408600480360360408110156108ff57600080fd5b506001600160a01b03813516906020013515156132ea565b61039c6004803603602081101561092d57600080fd5b50356001600160a01b03166133d2565b610408600480360360c081101561095357600080fd5b506001600160a01b038135811691602081013582169160408201358116916060810135821691608082013581169160a001351661343f565b61039c600480360360408110156109a157600080fd5b506001600160a01b03813581169160200135166135ce565b610408600480360360208110156109cf57600080fd5b50356001600160a01b0316613650565b61039c600480360360208110156109f557600080fd5b50356001600160a01b031661365e565b610452613916565b610452613925565b610452613934565b61039c60048036036040811015610a3357600080fd5b506001600160a01b0381358116916020013516613943565b61040860048036036020811015610a6157600080fd5b50356001600160a01b0316613984565b61039c60048036036040811015610a8757600080fd5b506001600160a01b0381358116916020013516613a28565b603660209081526000928352604080842090915290825290205460ff1681565b60435481565b604760209081526000928352604080842090915290825290205481565b604554604080517fec2b4e360000000000000000000000000000000000000000000000000000000081526001600160a01b0385811660048301529151919092169163ec2b4e36916024808301926020929190829003018186803b158015610b4857600080fd5b505afa158015610b5c573d6000803e3d6000fd5b505050506040513d6020811015610b7257600080fd5b5051610baf5760405162461bcd60e51b815260040180806020018281038252602d815260200180615546602d913960400191505060405180910390fd5b6001600160a01b03821660009081526037602090815260408083203380855292528220549190610be0908590613a28565b905082610bf3838363ffffffff613a8216565b1015610c305760405162461bcd60e51b815260040180806020018281038252602e815260200180615696602e913960400191505060405180910390fd5b80831015610c4757610c428484613adc565b610ca2565b603f54610c5b90429063ffffffff613a8216565b6001600160a01b0385166000908152603b60209081526040808320338452909152902055610c898482613adc565b610ca284610c9d858463ffffffff613bb416565b613c11565b6001600160a01b0384166000908152603760209081526040808320338452909152902054610cef576001600160a01b0384166000908152603b602090815260408083203384529091528120555b610cf9843361118b565b610d038484613cbf565b610d0c3361365e565b610d8e57604254604080517f2f6c493c00000000000000000000000000000000000000000000000000000000815233600482015290516001600160a01b0390921691632f6c493c9160248082019260009290919082900301818387803b158015610d7557600080fd5b505af1158015610d89573d6000803e3d6000fd5b505050505b50505050565b60006060604560009054906101000a90046001600160a01b03166001600160a01b0316638b450aba6040518163ffffffff1660e01b815260040160006040518083038186803b158015610de657600080fd5b505afa158015610dfa573d6000803e3d6000fd5b505050506040513d6000823e601f3d9081017fffffffffffffffffffffffffffffffffffffffffffffffffffffffffffffffe01682016040526020811015610e4157600080fd5b8101908080516040519392919084640100000000821115610e6157600080fd5b908301906020820185811115610e7657600080fd5b8251866020820283011164010000000082111715610e9357600080fd5b82525081516020918201928201910280838360005b83811015610ec0578181015183820152602001610ea8565b5050505090500160405250505090506000610eda8561365e565b604154604080517f776f38430000000000000000000000000000000000000000000000000000000081526001600160a01b0389811660048301529151939450600093919092169163776f3843916024808301926020929190829003018186803b158015610f4657600080fd5b505afa158015610f5a573d6000803e3d6000fd5b505050506040513d6020811015610f7057600080fd5b5051604154604080517f639d68bb0000000000000000000000000000000000000000000000000000000081526001600160a01b038a811660048301529151939450600093919092169163639d68bb916024808301926020929190829003018186803b158015610fde57600080fd5b505afa158015610ff2573d6000803e3d6000fd5b505050506040513d602081101561100857600080fd5b5051905060005b845181101561116c5760006037600087848151811061102a57fe5b60200260200101516001600160a01b03166001600160a01b0316815260200190815260200160002060008a6001600160a01b03166001600160a01b0316815260200190815260200160002054118015611151575060405485516001600160a01b03909116906340770fc5908790849081106110a157fe5b602090810291909101810151604080517fffffffff0000000000000000000000000000000000000000000000000000000060e086901b1681526001600160a01b03909216600483015260ff8816602483015260448201879052606482018c9052608482018990525160a48083019392829003018186803b15801561112457600080fd5b505afa158015611138573d6000803e3d6000fd5b505050506040513d602081101561114e57600080fd5b50515b1561116457600195505050505050611176565b60010161100f565b5060009450505050505b92915050565b6048546001600160a01b031681565b611195828261135c565b6111c6576001600160a01b038083166000908152604760209081526040808320938516835292905290812055611219565b6001600160a01b03808316600090815260476020908152604080832093851683529290522054611219576001600160a01b0380831660009081526047602090815260408083209385168352929052204290555b5050565b611225613e23565b6033546001600160a01b03908116911614611287576040805162461bcd60e51b815260206004820181905260248201527f4f776e61626c653a2063616c6c6572206973206e6f7420746865206f776e6572604482015290519081900360640190fd5b603f8190556040805182815290517fdbed267c634ebc66bafb6198c6ef85d5aa083474a5db5dd77aca3686ab3d41489181900360200190a150565b6040805481517f2d7d894a00000000000000000000000000000000000000000000000000000000815260ff8416600482015291516000926001600160a01b0390921691632d7d894a916024808301926020929190829003018186803b15801561132a57600080fd5b505afa15801561133e573d6000803e3d6000fd5b505050506040513d602081101561135457600080fd5b505192915050565b6040805460415482517f776f38430000000000000000000000000000000000000000000000000000000081526001600160a01b0385811660048301529351600094938416936340770fc593889391169163776f384391602480820192602092909190829003018186803b1580156113d257600080fd5b505afa1580156113e6573d6000803e3d6000fd5b505050506040513d60208110156113fc57600080fd5b5051604154604080517f639d68bb0000000000000000000000000000000000000000000000000000000081526001600160a01b0389811660048301529151919092169163639d68bb916024808301926020929190829003018186803b15801561146457600080fd5b505afa158015611478573d6000803e3d6000fd5b505050506040513d602081101561148e57600080fd5b5051604854604080517ff99318550000000000000000000000000000000000000000000000000000000081526001600160a01b038a811660048301529151919092169163f9931855916024808301926020929190829003018186803b1580156114f657600080fd5b505afa15801561150a573d6000803e3d6000fd5b505050506040513d602081101561152057600080fd5b505161152b8861365e565b604080517fffffffff0000000000000000000000000000000000000000000000000000000060e089901b1681526001600160a01b03909616600487015260ff90941660248601526044850192909252606484015260848301525160a4808301926020929190829003018186803b1580156115a457600080fd5b505afa1580156115b8573d6000803e3d6000fd5b505050506040513d60208110156115ce57600080fd5b50519392505050565b60005460ff1690565b603f5481565b6045546001600160a01b031681565b603b60209081526000928352604080842090915290825290205481565b6043546001600160a01b03821660009081526035602052604081209091904283805b60ff81116116c45760018516611649576116b8565b60008482610100811061165857fe5b6005020190506116916116846b033b2e3c9fd0803ce80000008360030154613e2790919063ffffffff16565b849063ffffffff613a8216565b92506116b46116846116a38387613e80565b60038401549063ffffffff613e2716565b9250505b600194851c9401611634565b506001600160a01b038616600090815260396020908152604080832054603a90925290912054611729919061171d906b033b2e3c9fd0803ce800000090611711908663ffffffff613a8216565b9063ffffffff613ee716565b9063ffffffff613bb416565b9695505050505050565b61173b613e23565b6033546001600160a01b0390811691161461179d576040805162461bcd60e51b815260206004820181905260248201527f4f776e61626c653a2063616c6c6572206973206e6f7420746865206f776e6572604482015290519081900360640190fd5b6001600160a01b0381166117e25760405162461bcd60e51b815260040180806020018281038252603d815260200180615509603d913960400191505060405180910390fd5b604580546001600160a01b0383167fffffffffffffffffffffffff0000000000000000000000000000000000000000909116811790915560408051918252517f795330811956c33ce7c62f7f68fe6de51ad3a39159f8f11d511de9c50b1869e29181900360200190a150565b6040805481517fcf67331a0000000000000000000000000000000000000000000000000000000081526001600160a01b038481166004830152600060248301819052935192169163cf67331a91604480820192602092909190829003018186803b15801561132a57600080fd5b336000908152603e602052604090205460ff166119095760405162461bcd60e51b81526004018080602001828103825260338152602001806155af6033913960400191505060405180910390fd5b604554604080517fec2b4e360000000000000000000000000000000000000000000000000000000081526001600160a01b0385811660048301529151919092169163ec2b4e36916024808301926020929190829003018186803b15801561196f57600080fd5b505afa158015611983573d6000803e3d6000fd5b505050506040513d602081101561199957600080fd5b50516119d65760405162461bcd60e51b815260040180806020018281038252603b81526020018061561e603b913960400191505060405180910390fd5b60008111611a155760405162461bcd60e51b815260040180806020018281038252603c815260200180615890603c913960400191505060405180910390fd5b604154604080517f645b8b1b00000000000000000000000000000000000000000000000000000000815233600482015290516000926001600160a01b03169163645b8b1b916024808301926020929190829003018186803b158015611a7957600080fd5b505afa158015611a8d573d6000803e3d6000fd5b505050506040513d6020811015611aa357600080fd5b50516002811115611ab057fe5b14611aec5760405162461bcd60e51b81526004018080602001828103825260318152602001806158cc6031913960400191505060405180910390fd5b611af68233613f4e565b15611b325760405162461bcd60e51b815260040180806020018281038252603c8152602001806155e2603c913960400191505060405180910390fd5b604154604080517f776f384300000000000000000000000000000000000000000000000000000000815233600482015290516000926001600160a01b03169163776f3843916024808301926020929190829003018186803b158015611b9657600080fd5b505afa158015611baa573d6000803e3d6000fd5b505050506040513d6020811015611bc057600080fd5b505160445490915060ff82161015611c095760405162461bcd60e51b815260040180806020018281038252603b815260200180615761603b913960400191505060405180910390fd5b6000611c143361365e565b9050611c2184338361228d565b846001600160a01b0316637dc0d1d06040518163ffffffff1660e01b815260040160206040518083038186803b158015611c5a57600080fd5b505afa158015611c6e573d6000803e3d6000fd5b505050506040513d6020811015611c8457600080fd5b5051604080517f2cd4aaba0000000000000000000000000000000000000000000000000000000081526004810187905290516001600160a01b0390921691632cd4aaba91602480820192602092909190829003018186803b158015611ce857600080fd5b505afa158015611cfc573d6000803e3d6000fd5b505050506040513d6020811015611d1257600080fd5b50511115611d515760405162461bcd60e51b815260040180806020018281038252603c815260200180615573603c913960400191505060405180910390fd5b80611dda57604254604080517f17ffe17100000000000000000000000000000000000000000000000000000000815233600482015230602482015290516001600160a01b03909216916317ffe1719160448082019260009290919082900301818387803b158015611dc157600080fd5b505af1158015611dd5573d6000803e3d6000fd5b505050505b604254604080517fd71c9c12000000000000000000000000000000000000000000000000000000008152336004820152905130926001600160a01b03169163d71c9c12916024808301926020929190829003018186803b158015611e3d57600080fd5b505afa158015611e51573d6000803e3d6000fd5b505050506040513d6020811015611e6757600080fd5b50516001600160a01b031614611eae5760405162461bcd60e51b81526004018080602001828103825260488152602001806154c16048913960600191505060405180910390fd5b6001600160a01b038416600090815260376020908152604080832033845290915281205490611ee3828663ffffffff613a8216565b9050600080611ef3883385613fae565b915091508360001415611f3957603f54611f1490429063ffffffff613a8216565b6001600160a01b0389166000908152603b602090815260408083203384529091529020555b6001600160a01b0388166000908152604760209081526040808320338085529252822091909155611f6e90899084848761424c565b876001600160a01b031663c5ebeaec886040518263ffffffff1660e01b815260040180828152602001915050600060405180830381600087803b158015611fb457600080fd5b505af1158015611fc8573d6000803e3d6000fd5b50505050610d8933888a6001600160a01b031663fc0c546a6040518163ffffffff1660e01b815260040160206040518083038186803b15801561200a57600080fd5b505afa15801561201e573d6000803e3d6000fd5b505050506040513d602081101561203457600080fd5b50516001600160a01b0316919063ffffffff6142db16565b6034546001600160a01b031633146120955760405162461bcd60e51b81526004018080602001828103825260288152602001806158fd6028913960400191505060405180910390fd5b6034546033546040516001600160a01b0392831692909116907f8be0079c531659141344cd1fd0a4f28419497f9722a3daafe3b4186f6b6457e090600090a360348054603380547fffffffffffffffffffffffff00000000000000000000000000000000000000009081166001600160a01b03841617909155169055565b604554604080517f8b450aba00000000000000000000000000000000000000000000000000000000815290516060926001600160a01b031691638b450aba916004808301926000929190829003018186803b15801561217157600080fd5b505afa158015612185573d6000803e3d6000fd5b505050506040513d6000823e601f3d9081017fffffffffffffffffffffffffffffffffffffffffffffffffffffffffffffffe016820160405260208110156121cc57600080fd5b81019080805160405193929190846401000000008211156121ec57600080fd5b90830190602082018581111561220157600080fd5b825186602082028301116401000000008211171561221e57600080fd5b82525081516020918201928201910280838360005b8381101561224b578181015183820152602001612233565b50505050905001604052505050905060008090505b81518110156112195761228582828151811061227857fe5b60200260200101516131a9565b600101612260565b6040805460415482517f776f38430000000000000000000000000000000000000000000000000000000081526001600160a01b03868116600483015293516000949384169363368267b193899391169163776f384391602480820192602092909190829003018186803b15801561230357600080fd5b505afa158015612317573d6000803e3d6000fd5b505050506040513d602081101561232d57600080fd5b5051604154604080517f639d68bb0000000000000000000000000000000000000000000000000000000081526001600160a01b038a811660048301529151919092169163639d68bb916024808301926020929190829003018186803b15801561239557600080fd5b505afa1580156123a9573d6000803e3d6000fd5b505050506040513d60208110156123bf57600080fd5b5051604854604080517ff99318550000000000000000000000000000000000000000000000000000000081526001600160a01b038b811660048301529151919092169163f9931855916024808301926020929190829003018186803b15801561242757600080fd5b505afa15801561243b573d6000803e3d6000fd5b505050506040513d602081101561245157600080fd5b5051604080517fffffffff0000000000000000000000000000000000000000000000000000000060e088901b1681526001600160a01b03909516600486015260ff909316602485015260448401919091526064830152608482018690525160a4808301926020929190829003018186803b1580156124ce57600080fd5b505afa1580156124e2573d6000803e3d6000fd5b505050506040513d60208110156124f857600080fd5b505190505b9392505050565b604554604080517f8b450aba00000000000000000000000000000000000000000000000000000000815290516060926001600160a01b031691638b450aba916004808301926000929190829003018186803b15801561256257600080fd5b505afa158015612576573d6000803e3d6000fd5b505050506040513d6000823e601f3d9081017fffffffffffffffffffffffffffffffffffffffffffffffffffffffffffffffe016820160405260208110156125bd57600080fd5b81019080805160405193929190846401000000008211156125dd57600080fd5b9083019060208201858111156125f257600080fd5b825186602082028301116401000000008211171561260f57600080fd5b82525081516020918201928201910280838360005b8381101561263c578181015183820152602001612624565b50505050905001604052505050905060008090505b81518110156126e35760006037600084848151811061266c57fe5b60200260200101516001600160a01b03166001600160a01b031681526020019081526020016000206000856001600160a01b03166001600160a01b031681526020019081526020016000205411156126db576126db8282815181106126cd57fe5b6020026020010151846129f8565b600101612651565b505050565b60445481565b6001600160a01b03811660009081526037602090815260408083203380855292529091205461273991839161273491612728908490613a28565b9063ffffffff613a8216565b610ae2565b50565b603560205281600052604060002081610100811061275657fe5b6005020180546001820154600283015460039093015461ffff83169550620100009092046fffffffffffffffffffffffffffffffff169350919085565b61279b613e23565b6033546001600160a01b039081169116146127fd576040805162461bcd60e51b815260206004820181905260248201527f4f776e61626c653a2063616c6c6572206973206e6f7420746865206f776e6572604482015290519081900360640190fd5b6001600160a01b0381166128425760405162461bcd60e51b815260040180806020018281038252603b8152602001806156e7603b913960400191505060405180910390fd5b604080547fffffffffffffffffffffffff0000000000000000000000000000000000000000166001600160a01b03831617905561287d612113565b604080516001600160a01b038316815290517fa365f907d989895db78cd81f06e90ddf12b0592d06147f4ebecd0e358bbb83ae9181900360200190a150565b6128c4613e23565b6033546001600160a01b03908116911614612926576040805162461bcd60e51b815260206004820181905260248201527f4f776e61626c653a2063616c6c6572206973206e6f7420746865206f776e6572604482015290519081900360640190fd5b6001600160a01b03811661296b5760405162461bcd60e51b815260040180806020018281038252603d815260200180615659603d913960400191505060405180910390fd5b604680546001600160a01b0383167fffffffffffffffffffffffff0000000000000000000000000000000000000000909116811790915560408051918252517f5cb600ce52807ba2c4eb188b6eb2abed4e5c93fa2e14124088bdbf36f13264239181900360200190a150565b6033546001600160a01b031690565b603a6020526000908152604090205481565b6001600160a01b0380831660009081526037602090815260408083209385168352929052908120548190612a2f9085908590613fae565b915091508060ff168260ff161415612a48575050611219565b6001600160a01b03808516600090815260376020908152604080832093871683529290522054610d8e90859085908590859061424c565b60396020526000908152604090205481565b603e6020526000908152604090205460ff1681565b604080546001600160a01b03848116600081815260366020908152858220878516835281528582205486517f70ffcf4a000000000000000000000000000000000000000000000000000000008152600481019490945260ff166024840152604483018290529451909492909316926370ffcf4a92606480840193919291829003018186803b1580156115a457600080fd5b612b3f613e23565b6033546001600160a01b03908116911614612ba1576040805162461bcd60e51b815260206004820181905260248201527f4f776e61626c653a2063616c6c6572206973206e6f7420746865206f776e6572604482015290519081900360640190fd5b60448190556040805182815290517fc4efab7f5b3274735cba7841bb05d0ea54adde101bb8774087a35d6584b4c9ca9181900360200190a150565b6040546001600160a01b031681565b612bf3613e23565b6033546001600160a01b03908116911614612c55576040805162461bcd60e51b815260206004820181905260248201527f4f776e61626c653a2063616c6c6572206973206e6f7420746865206f776e6572604482015290519081900360640190fd5b604254604080517fd71c9c120000000000000000000000000000000000000000000000000000000081526001600160a01b038481166004830152915130939092169163d71c9c1291602480820192602092909190829003018186803b158015612cbd57600080fd5b505afa158015612cd1573d6000803e3d6000fd5b505050506040513d6020811015612ce757600080fd5b50516001600160a01b031614612d2e5760405162461bcd60e51b81526004018080602001828103825260488152602001806158106048913960600191505060405180910390fd5b6001600160a01b0381166000908152603e602052604090205460ff16612d5e57612d5981600061435b565b612739565b6002604154604080517f645b8b1b0000000000000000000000000000000000000000000000000000000081526001600160a01b0385811660048301529151919092169163645b8b1b916024808301926020929190829003018186803b158015612dc657600080fd5b505afa158015612dda573d6000803e3d6000fd5b505050506040513d6020811015612df057600080fd5b50516002811115612dfd57fe5b1415612e0e57612d5981600161435b565b604454604154604080517f776f38430000000000000000000000000000000000000000000000000000000081526001600160a01b0385811660048301529151919092169163776f3843916024808301926020929190829003018186803b158015612e7757600080fd5b505afa158015612e8b573d6000803e3d6000fd5b505050506040513d6020811015612ea157600080fd5b505160ff161015612eb757612d5981600261435b565b6000612f43604160009054906101000a90046001600160a01b03166001600160a01b031663a06db7dc6040518163ffffffff1660e01b815260040160206040518083038186803b158015612f0a57600080fd5b505afa158015612f1e573d6000803e3d6000fd5b505050506040513d6020811015612f3457600080fd5b5051429063ffffffff613bb416565b90506060604560009054906101000a90046001600160a01b03166001600160a01b0316638b450aba6040518163ffffffff1660e01b815260040160006040518083038186803b158015612f9557600080fd5b505afa158015612fa9573d6000803e3d6000fd5b505050506040513d6000823e601f3d9081017fffffffffffffffffffffffffffffffffffffffffffffffffffffffffffffffe01682016040526020811015612ff057600080fd5b810190808051604051939291908464010000000082111561301057600080fd5b90830190602082018581111561302557600080fd5b825186602082028301116401000000008211171561304257600080fd5b82525081516020918201928201910280838360005b8381101561306f578181015183820152602001613057565b50505050905001604052505050905060008090505b815181101561315457600082828151811061309b57fe5b6020908102919091018101516001600160a01b038082166000908152603b84526040808220928a168252919093529091205490915080158015906130df5750808510155b156130f9576130ef86600361435b565b5050505050612739565b6001600160a01b038083166000908152604760209081526040808320938a1683529290522054801580159061312e5750808610155b156131495761313e87600461435b565b505050505050612739565b505050600101613084565b5060405162461bcd60e51b815260040180806020018281038252604881526020018061594f6048913960600191505060405180910390fd5b603760209081526000928352604080842090915290825290205481565b604554604080517fec2b4e360000000000000000000000000000000000000000000000000000000081526001600160a01b0384811660048301529151919092169163ec2b4e36916024808301926020929190829003018186803b15801561320f57600080fd5b505afa158015613223573d6000803e3d6000fd5b505050506040513d602081101561323957600080fd5b50516132765760405162461bcd60e51b81526004018080602001828103825260388152602001806158586038913960400191505060405180910390fd5b6043544260006132858461184e565b905060005b60ff81116132b7576001841661329f576132ab565b6132ab858285856148c3565b600193841c930161328a565b5050505050565b6046546001600160a01b031681565b603860209081526000928352604080842090915290825290205481565b6132f2613e23565b6033546001600160a01b03908116911614613354576040805162461bcd60e51b815260206004820181905260248201527f4f776e61626c653a2063616c6c6572206973206e6f7420746865206f776e6572604482015290519081900360640190fd5b6001600160a01b0382166000818152603e602090815260409182902080547fffffffffffffffffffffffffffffffffffffffffffffffffffffffffffffff0016851515908117909155825190815291517f043e49085c09c744c530865c7daae89b6fe8d800d397df88807f472d471621229281900390910190a25050565b6040805481517f7e84560a0000000000000000000000000000000000000000000000000000000081526001600160a01b0384811660048301526000602483018190529351921691637e84560a91604480820192602092909190829003018186803b15801561132a57600080fd5b600054610100900460ff16806134585750613458614ae6565b80613466575060005460ff16155b6134a15760405162461bcd60e51b815260040180806020018281038252602e8152602001806157e2602e913960400191505060405180910390fd5b600054610100900460ff1615801561350757600080547fffffffffffffffffffffffffffffffffffffffffffffffffffffffffffffff007fffffffffffffffffffffffffffffffffffffffffffffffffffffffffffff00ff909116610100171660011790555b61351033614aec565b604180547fffffffffffffffffffffffff00000000000000000000000000000000000000009081166001600160a01b038a8116919091179092556040805482168984161790556042805482168884161790556045805482168784161790556046805482168684161790556048805490911691841691909117905560bf6044556228de80603f5580156135c557600080547fffffffffffffffffffffffffffffffffffffffffffffffffffffffffffff00ff1690555b50505050505050565b604080546001600160a01b03848116600090815260366020908152848220868416835281528482205485517f3c2f67f200000000000000000000000000000000000000000000000000000000815260ff9091166004820152945191949290931692633c2f67f29260248082019391829003018186803b1580156115a457600080fd5b612739816127348333613a28565b6000806060604560009054906101000a90046001600160a01b03166001600160a01b0316638b450aba6040518163ffffffff1660e01b815260040160006040518083038186803b1580156136b157600080fd5b505afa1580156136c5573d6000803e3d6000fd5b505050506040513d6000823e601f3d9081017fffffffffffffffffffffffffffffffffffffffffffffffffffffffffffffffe0168201604052602081101561370c57600080fd5b810190808051604051939291908464010000000082111561372c57600080fd5b90830190602082018581111561374157600080fd5b825186602082028301116401000000008211171561375e57600080fd5b82525081516020918201928201910280838360005b8381101561378b578181015183820152602001613773565b50505050905001604052505050905060008090505b815181101561390d576139038282815181106137b857fe5b60200260200101516001600160a01b0316637dc0d1d06040518163ffffffff1660e01b815260040160206040518083038186803b1580156137f857600080fd5b505afa15801561380c573d6000803e3d6000fd5b505050506040513d602081101561382257600080fd5b505183516001600160a01b0390911690632cd4aaba9060379060009087908790811061384a57fe5b60200260200101516001600160a01b03166001600160a01b031681526020019081526020016000206000896001600160a01b03166001600160a01b03168152602001908152602001600020546040518263ffffffff1660e01b81526004018082815260200191505060206040518083038186803b1580156138ca57600080fd5b505afa1580156138de573d6000803e3d6000fd5b505050506040513d60208110156138f457600080fd5b5051849063ffffffff613a8216565b92506001016137a0565b50909392505050565b6034546001600160a01b031690565b6042546001600160a01b031681565b6041546001600160a01b031681565b60006124fd6139528484613a28565b6001600160a01b038086166000908152603760209081526040808320938816835292905220549063ffffffff613a8216565b61398c613e23565b6033546001600160a01b039081169116146139ee576040805162461bcd60e51b815260206004820181905260248201527f4f776e61626c653a2063616c6c6572206973206e6f7420746865206f776e6572604482015290519081900360640190fd5b603480547fffffffffffffffffffffffff0000000000000000000000000000000000000000166001600160a01b0392909216919091179055565b6001600160a01b038083166000908152603560209081526040808320603683528184209486168452939091528120549091829160ff166101008110613a6957fe5b600502019050613a7a848285614c47565b949350505050565b6000828201838110156124fd576040805162461bcd60e51b815260206004820152601b60248201527f536166654d6174683a206164646974696f6e206f766572666c6f770000000000604482015290519081900360640190fd5b6001600160a01b0382166000908152603860209081526040808320338452909152902054613b10908263ffffffff613a8216565b6001600160a01b038316600081815260386020908152604080832033845282528083209490945591815260399091522054613b51908263ffffffff613a8216565b6001600160a01b038316600081815260396020908152604091829020939093558051918252339282019290925280820183905290517ff75e0f5f6602ca4c59226d587ca078ea5a4ac300638072b99386035b776f26449181900360600190a15050565b600082821115613c0b576040805162461bcd60e51b815260206004820152601e60248201527f536166654d6174683a207375627472616374696f6e206f766572666c6f770000604482015290519081900360640190fd5b50900390565b80613c1b57611219565b6001600160a01b0382166000908152603760209081526040808320338452909152812054613c4f908363ffffffff613bb416565b9050600080613c5f853385613fae565b91509150613c70853384848761424c565b604080516001600160a01b038716815233602082015280820186905290517f23edcbb456c071fd5472bd2ab7e6c565493add0e664dc2c619f6d53225d33d669181900360600190a15050505050565b613d41333083856001600160a01b031663fc0c546a6040518163ffffffff1660e01b815260040160206040518083038186803b158015613cfe57600080fd5b505afa158015613d12573d6000803e3d6000fd5b505050506040513d6020811015613d2857600080fd5b50516001600160a01b031692919063ffffffff614c7e16565b613dc18282846001600160a01b031663fc0c546a6040518163ffffffff1660e01b815260040160206040518083038186803b158015613d7f57600080fd5b505afa158015613d93573d6000803e3d6000fd5b505050506040513d6020811015613da957600080fd5b50516001600160a01b0316919063ffffffff614d0616565b816001600160a01b031663371fd8e6826040518263ffffffff1660e01b815260040180828152602001915050600060405180830381600087803b158015613e0757600080fd5b505af1158015613e1b573d6000803e3d6000fd5b505050505050565b3390565b600082613e3657506000611176565b82820282848281613e4357fe5b04146124fd5760405162461bcd60e51b81526004018080602001828103825260218152602001806157c16021913960400191505060405180910390fd5b60006124fd6301e133806117116127106b033b2e3c9fd0803ce8000000875491900490613edb90613eca9088906201000090046fffffffffffffffffffffffffffffffff16613bb4565b60018901549063ffffffff613e2716565b9063ffffffff613e2716565b6000808211613f3d576040805162461bcd60e51b815260206004820152601a60248201527f536166654d6174683a206469766973696f6e206279207a65726f000000000000604482015290519081900360640190fd5b818381613f4657fe5b049392505050565b6001600160a01b038083166000908152603760209081526040808320938516835292905290812054158015906124fd5750506001600160a01b039182166000908152603b6020908152604080832093909416825291909152205442101590565b6001600160a01b0380841660009081526036602090815260408083208685168085529083528184205460415483517f776f3843000000000000000000000000000000000000000000000000000000008152600481019390935292519495869560ff9092169486949091169263776f38439260248083019392829003018186803b15801561403a57600080fd5b505afa15801561404e573d6000803e3d6000fd5b505050506040513d602081101561406457600080fd5b5051905060ff81166140a75760405162461bcd60e51b815260040180806020018281038252603f815260200180615722603f913960400191505060405180910390fd5b604854604080517ff99318550000000000000000000000000000000000000000000000000000000081526001600160a01b0389811660048301529151600093929092169163f993185591602480820192602092909190829003018186803b15801561411157600080fd5b505afa158015614125573d6000803e3d6000fd5b505050506040513d602081101561413b57600080fd5b50516040805481517f8b3cd8f80000000000000000000000000000000000000000000000000000000081526001600160a01b038c8116600483015260ff8716602483015260448201859052606482018b905292519394506000939290911691638b3cd8f891608480820192602092909190829003018186803b1580156141c057600080fd5b505afa1580156141d4573d6000803e3d6000fd5b505050506040513d60208110156141ea57600080fd5b50516001600160a01b03998a1660009081526036602090815260408083209b909c168252999099529890972080547fffffffffffffffffffffffffffffffffffffffffffffffffffffffffffffff001660ff8a16179055509096945050505050565b6001600160a01b038516600090815260356020526040812061428490879060ff8716610100811061427957fe5b600502018688614e60565b6001600160a01b038088166000818152603760209081526040808320948b168352938152838220879055918152603590915220909150613e1b90879060ff861661010081106142cf57fe5b60050201858885614f9d565b604080516001600160a01b038416602482015260448082018490528251808303909101815260649091019091526020810180517bffffffffffffffffffffffffffffffffffffffffffffffffffffffff167fa9059cbb000000000000000000000000000000000000000000000000000000001790526126e39084906150c5565b604554604080517f8b450aba00000000000000000000000000000000000000000000000000000000815290516060926001600160a01b031691638b450aba916004808301926000929190829003018186803b1580156143b957600080fd5b505afa1580156143cd573d6000803e3d6000fd5b505050506040513d6000823e601f3d9081017fffffffffffffffffffffffffffffffffffffffffffffffffffffffffffffffe0168201604052602081101561441457600080fd5b810190808051604051939291908464010000000082111561443457600080fd5b90830190602082018581111561444957600080fd5b825186602082028301116401000000008211171561446657600080fd5b82525081516020918201928201910280838360005b8381101561449357818101518382015260200161447b565b50505050905001604052505050905060008090505b81518110156147df5760008282815181106144bf57fe5b6020908102919091018101516001600160a01b038082166000908152603784526040808220928a16825291909352822054909250906144fe8388613a28565b90506000614512838363ffffffff613a8216565b90508061452257505050506147d7565b600080614530868b87613fae565b91509150614542868b8484600061424c565b6001600160a01b038087166000908152603860209081526040808320938e1683529290522054614578908563ffffffff613a8216565b60386000886001600160a01b03166001600160a01b0316815260200190815260200160002060008c6001600160a01b03166001600160a01b03168152602001908152602001600020819055506145fc8460396000896001600160a01b03166001600160a01b0316815260200190815260200160002054613a8290919063ffffffff16565b6001600160a01b0380881660008181526039602090815260408083209590955560465485517f46e917ec00000000000000000000000000000000000000000000000000000000815260048101949094528f851660248501526044840189905294519194909316926346e917ec926064808201939182900301818787803b15801561468557600080fd5b505af1158015614699573d6000803e3d6000fd5b505050506040513d60208110156146af57600080fd5b5051604080517f095ea7b30000000000000000000000000000000000000000000000000000000081526001600160a01b038a811660048301526024820188905291519293509083169163095ea7b3916044808201926020929091908290030181600087803b15801561472057600080fd5b505af1158015614734573d6000803e3d6000fd5b505050506040513d602081101561474a57600080fd5b5050604080517f34c389ef0000000000000000000000000000000000000000000000000000000081526001600160a01b038381166004830152602482018790529151918916916334c389ef9160448082019260009290919082900301818387803b1580156147b757600080fd5b505af11580156147cb573d6000803e3d6000fd5b50505050505050505050505b6001016144a8565b50604254604080517f97c3ccd80000000000000000000000000000000000000000000000000000000081526001600160a01b038681166004830152915191909216916397c3ccd891602480830192600092919082900301818387803b15801561484757600080fd5b505af115801561485b573d6000803e3d6000fd5b505050507fdee5170d40e09432635c35813fe7602bed3dababb1dda7a4dcee62f112742fa7838360405180836001600160a01b03166001600160a01b031681526020018260048111156148aa57fe5b60ff1681526020019250505060405180910390a1505050565b6001600160a01b038416600090815260356020526040812060ff851661010081106148ea57fe5b60050201905060006148fc8285613e80565b905061493d614918828460030154613e2790919063ffffffff16565b6001600160a01b0388166000908152603a60205260409020549063ffffffff613a8216565b6001600160a01b0387166000908152603a6020526040902055600282015461496b908263ffffffff613a8216565b60028301556040805481517f3c2f67f200000000000000000000000000000000000000000000000000000000815260ff8816600482015291516001600160a01b03909116916321ae19139186918491633c2f67f291602480820192602092909190829003018186803b1580156149e057600080fd5b505afa1580156149f4573d6000803e3d6000fd5b505050506040513d6020811015614a0a57600080fd5b5051604080517fffffffff0000000000000000000000000000000000000000000000000000000060e086901b16815260048101939093526024830191909152516044808301926020929190829003018186803b158015614a6957600080fd5b505afa158015614a7d573d6000803e3d6000fd5b505050506040513d6020811015614a9357600080fd5b505160018301555080546fffffffffffffffffffffffffffffffff90931662010000027fffffffffffffffffffffffffffff00000000000000000000000000000000ffff90931692909217909155505050565b303b1590565b600054610100900460ff1680614b055750614b05614ae6565b80614b13575060005460ff16155b614b4e5760405162461bcd60e51b815260040180806020018281038252602e8152602001806157e2602e913960400191505060405180910390fd5b600054610100900460ff16158015614bb457600080547fffffffffffffffffffffffffffffffffffffffffffffffffffffffffffffff007fffffffffffffffffffffffffffffffffffffffffffffffffffffffffffff00ff909116610100171660011790555b603380547fffffffffffffffffffffffff0000000000000000000000000000000000000000166001600160a01b0384169081179091556040516000907f8be0079c531659141344cd1fd0a4f28419497f9722a3daafe3b4186f6b6457e0908290a3801561121957600080547fffffffffffffffffffffffffffffffffffffffffffffffffffffffffffff00ff1690555050565b6001600160a01b038084166000908152603860209081526040808320938516835292905290812054613a7a9061171d868686615176565b604080516001600160a01b0380861660248301528416604482015260648082018490528251808303909101815260849091019091526020810180517bffffffffffffffffffffffffffffffffffffffffffffffffffffffff167f23b872dd00000000000000000000000000000000000000000000000000000000179052610d8e9085906150c5565b801580614da55750604080517fdd62ed3e0000000000000000000000000000000000000000000000000000000081523060048201526001600160a01b03848116602483015291519185169163dd62ed3e91604480820192602092909190829003018186803b158015614d7757600080fd5b505afa158015614d8b573d6000803e3d6000fd5b505050506040513d6020811015614da157600080fd5b5051155b614de05760405162461bcd60e51b81526004018080602001828103825260368152602001806159976036913960400191505060405180910390fd5b604080516001600160a01b038416602482015260448082018490528251808303909101815260649091019091526020810180517bffffffffffffffffffffffffffffffffffffffffffffffffffffffff167f095ea7b3000000000000000000000000000000000000000000000000000000001790526126e39084906150c5565b600060ff8316614e7257506000613a7a565b835461ffff16614eb35760405162461bcd60e51b81526004018080602001828103825260238152602001806156c46023913960400191505060405180910390fd5b614ebd8584615237565b83547fffffffffffffffffffffffffffffffffffffffffffffffffffffffffffff0000811661ffff9182167fffffffffffffffffffffffffffffffffffffffffffffffffffffffffffffffff0182161780865516614f255760438054600160ff86161b191690555b6001600160a01b038086166000908152603760209081526040808320938616835292905220546003850154614f5f9163ffffffff613bb416565b60038501556000614f71868685615176565b6001600160a01b0384166000908152600487016020526040812081815560010155915050949350505050565b60008360ff1611614fdf5760405162461bcd60e51b815260040180806020018281038252603681526020018061548b6036913960400191505060405180910390fd5b614fe98584615237565b8354614ffa9061ffff166001615251565b84547fffffffffffffffffffffffffffffffffffffffffffffffffffffffffffff00001661ffff9182161780865516600114156150405760438054600160ff86161b1790555b6001600160a01b03808616600090815260376020908152604080832093861683529290522054600385015461507a9163ffffffff613a8216565b6003850155604080518082018252918252600285015460208084019182526001600160a01b039094166000908152600490960190935290932092518355516001909201919091555050565b606061511a826040518060400160405280602081526020017f5361666545524332303a206c6f772d6c6576656c2063616c6c206661696c6564815250856001600160a01b031661529c9092919063ffffffff16565b8051909150156126e35780806020019051602081101561513957600080fd5b50516126e35760405162461bcd60e51b815260040180806020018281038252602a815260200180615925602a913960400191505060405180910390fd5b6000806151b86151868542613e80565b6001600160a01b038516600090815260048701602052604090206001015460028701546127289163ffffffff613bb416565b6001600160a01b0380871660009081526037602090815260408083209388168352929052205490915061522e90615207906b033b2e3c9fd0803ce800000090611711908563ffffffff613e2716565b6001600160a01b03851660009081526004870160205260409020549063ffffffff613a8216565b95945050505050565b4260006152438461184e565b9050610d8e848484846148c3565b600082820161ffff80851690821610156124fd5760405162461bcd60e51b815260040180806020018281038252602581526020018061579c6025913960400191505060405180910390fd5b6060613a7a8484600085856152b0856153e0565b615301576040805162461bcd60e51b815260206004820152601d60248201527f416464726573733a2063616c6c20746f206e6f6e2d636f6e7472616374000000604482015290519081900360640190fd5b60006060866001600160a01b031685876040518082805190602001908083835b6020831061535e57805182527fffffffffffffffffffffffffffffffffffffffffffffffffffffffffffffffe09092019160209182019101615321565b6001836020036101000a03801982511681845116808217855250505050505090500191505060006040518083038185875af1925050503d80600081146153c0576040519150601f19603f3d011682016040523d82523d6000602084013e6153c5565b606091505b50915091506153d58282866153e6565b979650505050505050565b3b151590565b606083156153f55750816124fd565b8251156154055782518084602001fd5b8160405162461bcd60e51b81526004018080602001828103825283818151815260200191508051906020019080838360005b8381101561544f578181015183820152602001615437565b50505050905090810190601f16801561547c5780820380516001836020036101000a031916815260200191505b509250505060405180910390fdfe4c696e654f664372656469744167656e63793a204275636b6574206f6620696e6465782030206973206e6f7420737570706f727465644c696e654f664372656469744167656e63793a20426f72726f7765722063616e6e6f74206f70656e2074776f2073696d756c74616e656f7573206465627420706f736974696f6e734c696e654f664372656469744167656e63793a20506f6f6c466163746f72792063616e6e6f742062652073657420746f207a65726f20616464726573734c696e654f664372656469744167656e63793a2054686520706f6f6c206973206e6f7420737570706f727465644c696e654f664372656469744167656e63793a20426f72726f7720616d6f756e742063616e6e6f742065786365656420626f72726f77206c696d69744c696e654f664372656469744167656e63793a2053656e646572206973206e6f7420616c6c6f77656420746f20626f72726f774c696e654f664372656469744167656e63793a2053656e64657220686173206f76657264756520696e74657265737420696e207468697320706f6f6c4c696e654f664372656469744167656e63793a2054686520706f6f6c206973206e6f7420737570706f7274656420666f7220626f72726f77696e674c696e654f664372656469744167656e63793a204c6f616e466163746f72792063616e6e6f742062652073657420746f207a65726f20616464726573734c696e654f664372656469744167656e63793a2043616e6e6f74207265706179206f7665722074686520646562744c696e654f664372656469744167656e63793a206275636b657420697320656d7074794c696e654f664372656469744167656e63793a20526174654d6f64656c2063616e6e6f742062652073657420746f207a65726f20616464726573734c696e654f664372656469744167656e63793a2053636f726520697320726571756972656420746f20626520736574206279204372656469744f7261636c654c696e654f664372656469744167656e63793a20426f72726f77657220686173206372656469742073636f72652062656c6f77206d696e696d756d4c696e654f664372656469744167656e63793a206164646974696f6e206f766572666c6f77536166654d6174683a206d756c7469706c69636174696f6e206f766572666c6f77436f6e747261637420696e7374616e63652068617320616c7265616479206265656e20696e697469616c697a65644c696e654f664372656469744167656e63793a2043616e6e6f742064656661756c74206120626f72726f7765722077697468206e6f206f70656e206465627420706f736974696f6e4c696e654f664372656469744167656e63793a2054686520706f6f6c206973206e6f7420737570706f7274656420666f7220706f6b696e674c696e654f664372656469744167656e63793a20426f72726f77656420616d6f756e742068617320746f2062652067726561746572207468616e20304c696e654f664372656469744167656e63793a2053656e646572206e6f7420656c696769626c6520746f20626f72726f774f776e61626c653a2063616c6c6572206973206e6f74207468652070656e64696e67206f776e65725361666545524332303a204552433230206f7065726174696f6e20646964206e6f7420737563636565644c696e654f664372656469744167656e63793a20426f72726f77657220686173206e6f20726561736f6e20746f20656e7465722064656661756c7420617420746869732074696d655361666545524332303a20617070726f76652066726f6d206e6f6e2d7a65726f20746f206e6f6e2d7a65726f20616c6c6f77616e6365a2646970667358221220ba38acab6c5f80e8bcf12a3cfc525d949ab116f5c56d7876013896f27926374564736f6c634300060a0033",
  "linkReferences": {},
  "deployedLinkReferences": {}
}