{
  "contracts/truefi2/mocks/MockUsdStableCoinOracle.sol": {
    "MockUsdStableCoinOracle": {
      "abi": [
        {
          "inputs": [
            {
              "internalType": "uint256",
              "name": "adjustment",
              "type": "uint256"
            }
          ],
          "name": "setDecimalAdjustment",
          "outputs": [],
          "stateMutability": "nonpayable",
          "type": "function"
        },
        {
          "inputs": [
            {
              "internalType": "uint256",
              "name": "tokenAmount",
              "type": "uint256"
            }
          ],
          "name": "tokenToTru",
          "outputs": [
            {
              "internalType": "uint256",
              "name": "",
              "type": "uint256"
            }
          ],
          "stateMutability": "view",
          "type": "function"
        },
        {
          "inputs": [
            {
              "internalType": "uint256",
              "name": "tokenAmount",
              "type": "uint256"
            }
          ],
          "name": "tokenToUsd",
          "outputs": [
            {
              "internalType": "uint256",
              "name": "",
              "type": "uint256"
            }
          ],
          "stateMutability": "view",
          "type": "function"
        },
        {
          "inputs": [
            {
              "internalType": "uint256",
              "name": "truAmount",
              "type": "uint256"
            }
          ],
          "name": "truToToken",
          "outputs": [
            {
              "internalType": "uint256",
              "name": "",
              "type": "uint256"
            }
          ],
          "stateMutability": "view",
          "type": "function"
        }
      ],
      "evm": {
        "bytecode": {
          "linkReferences": {},
          "object": "608060405234801561001057600080fd5b50610156806100206000396000f3fe608060405234801561001057600080fd5b506004361061004c5760003560e01c806320fa6dba146100515780632cb90b4d146100805780632cd4aaba1461009d57806358384833146100ba575b600080fd5b61006e6004803603602081101561006757600080fd5b50356100d9565b60408051918252519081900360200190f35b61006e6004803603602081101561009657600080fd5b50356100f9565b61006e600480360360208110156100b357600080fd5b5035610111565b6100d7600480360360208110156100d057600080fd5b503561011b565b005b60008054600a0a60046402540be400840204816100f257fe5b0492915050565b60008054601203600a0a6317d784008302816100f257fe5b600054600a0a0290565b60005556fea26469706673582212209b48b7a44f0a5500c60cde4af77fe5778ba536a868e45435b8fc6870e09ad97264736f6c634300060a0033",
          "opcodes": "PUSH1 0x80 PUSH1 0x40 MSTORE CALLVALUE DUP1 ISZERO PUSH2 0x10 JUMPI PUSH1 0x0 DUP1 REVERT JUMPDEST POP PUSH2 0x156 DUP1 PUSH2 0x20 PUSH1 0x0 CODECOPY PUSH1 0x0 RETURN INVALID PUSH1 0x80 PUSH1 0x40 MSTORE CALLVALUE DUP1 ISZERO PUSH2 0x10 JUMPI PUSH1 0x0 DUP1 REVERT JUMPDEST POP PUSH1 0x4 CALLDATASIZE LT PUSH2 0x4C JUMPI PUSH1 0x0 CALLDATALOAD PUSH1 0xE0 SHR DUP1 PUSH4 0x20FA6DBA EQ PUSH2 0x51 JUMPI DUP1 PUSH4 0x2CB90B4D EQ PUSH2 0x80 JUMPI DUP1 PUSH4 0x2CD4AABA EQ PUSH2 0x9D JUMPI DUP1 PUSH4 0x58384833 EQ PUSH2 0xBA JUMPI JUMPDEST PUSH1 0x0 DUP1 REVERT JUMPDEST PUSH2 0x6E PUSH1 0x4 DUP1 CALLDATASIZE SUB PUSH1 0x20 DUP2 LT ISZERO PUSH2 0x67 JUMPI PUSH1 0x0 DUP1 REVERT JUMPDEST POP CALLDATALOAD PUSH2 0xD9 JUMP JUMPDEST PUSH1 0x40 DUP1 MLOAD SWAP2 DUP3 MSTORE MLOAD SWAP1 DUP2 SWAP1 SUB PUSH1 0x20 ADD SWAP1 RETURN JUMPDEST PUSH2 0x6E PUSH1 0x4 DUP1 CALLDATASIZE SUB PUSH1 0x20 DUP2 LT ISZERO PUSH2 0x96 JUMPI PUSH1 0x0 DUP1 REVERT JUMPDEST POP CALLDATALOAD PUSH2 0xF9 JUMP JUMPDEST PUSH2 0x6E PUSH1 0x4 DUP1 CALLDATASIZE SUB PUSH1 0x20 DUP2 LT ISZERO PUSH2 0xB3 JUMPI PUSH1 0x0 DUP1 REVERT JUMPDEST POP CALLDATALOAD PUSH2 0x111 JUMP JUMPDEST PUSH2 0xD7 PUSH1 0x4 DUP1 CALLDATASIZE SUB PUSH1 0x20 DUP2 LT ISZERO PUSH2 0xD0 JUMPI PUSH1 0x0 DUP1 REVERT JUMPDEST POP CALLDATALOAD PUSH2 0x11B JUMP JUMPDEST STOP JUMPDEST PUSH1 0x0 DUP1 SLOAD PUSH1 0xA EXP PUSH1 0x4 PUSH5 0x2540BE400 DUP5 MUL DIV DUP2 PUSH2 0xF2 JUMPI INVALID JUMPDEST DIV SWAP3 SWAP2 POP POP JUMP JUMPDEST PUSH1 0x0 DUP1 SLOAD PUSH1 0x12 SUB PUSH1 0xA EXP PUSH4 0x17D78400 DUP4 MUL DUP2 PUSH2 0xF2 JUMPI INVALID JUMPDEST PUSH1 0x0 SLOAD PUSH1 0xA EXP MUL SWAP1 JUMP JUMPDEST PUSH1 0x0 SSTORE JUMP INVALID LOG2 PUSH5 0x6970667358 0x22 SLT KECCAK256 SWAP12 0x48 0xB7 LOG4 0x4F EXP SSTORE STOP 0xC6 0xC 0xDE 0x4A 0xF7 PUSH32 0xE5778BA536A868E45435B8FC6870E09AD97264736F6C634300060A0033000000 "
        },
        "methodIdentifiers": {
          "setDecimalAdjustment(uint256)": "58384833",
          "tokenToTru(uint256)": "2cb90b4d",
          "tokenToUsd(uint256)": "2cd4aaba",
          "truToToken(uint256)": "20fa6dba"
        }
      }
    }
  }
}